:100000000C9488160C94B2160C94B2160C94B2167A
:100010000C94B2160C94B2160C94B2160C94B21640
:100020000C94B2160C946D4E0C94B2160C94B2163D
:100030000C94B2160C940F650C94B2160C94B21674
:100040000C94B2160C94239B0C9458460C94B21644
:100050000C94A8370C949E370C94B2160C94B216DC
:100060000C94B2160C94B2160C94B2160C94B216F0
:100070000C94B2160C94B2160C94B2160C94B216E0
:100080000C94B2160C94B2160C94B216C745CC451B
:10009000D145DB4509460946E545ED45F545FF45B2
:1000A00040A043A036A03AA05AA05AA047A04BA017
:1000B00051A055A072A831A768A7AEA868A768A7E5
:1000C00068A768A768A768A768A768A768A768A7B8
:1000D00068A768A768A768A768A768A768A768A7A8
:1000E00068A768A768A768A768A768A768A768A798
:1000F000A8A868A768A768A768A768A768A768A747
:1001000068A781A868A768A768A768A768A768A75D
:1001100068A768A768A768A7C5A865A7084AD73BC6
:100120003BCE016E84BCBFFDC12F3D6C74319ABDC6
:1001300056833DDA3D00C77F11BED9E4BB4C3E91EA
:100140006BAAAABE000000803F05A84CCDB2D44ED9
:10015000B93836A9020C50B9918688083CA6AAAADB
:100160002ABE000000803F004E414E494E4954597E
:10017000494E46CDCCCC3D0AD7233C17B7D1387772
:10018000CC2B329595E6241FB14F0A000020410088
:1001900000C84200401C4620BCBE4CCA1B0E5AAED2
:1001A000C59D7400407A10F35A00A0724E180900E1
:1001B00010A5D4E80000E87648170000E40B5402CC
:1001C0000000CA9A3B000000E1F505000080969807
:1001D00000000040420F000000A086010000001057
:1001E0002700000000E80300000000640000000099
:1001F000000A00000000000100000000002C76D87A
:1002000088DC674F0823DFC1DFAE59E1B1B796E55F
:10021000E3E453C63AE651997696E8E6C28426EBC3
:10022000898C9B62ED407C6FFCEFBC9C9F40F2BAD6
:10023000A56FA5F490055A2AF75C936B6CF9676D6E
:10024000C11BFCE0E40D47FEF520E6B500D0ED90C3
:100250002E0300943577050080841E080000204E90
:100260000A000000C80C333333330F986E12831129
:1002700041EF8D2114893BE65516CFFEE6DB18D100
:10028000844B381BF77C1D901DA4BBE424203284D2
:10029000725E228100C9F124ECA1E53D2700000037
:1002A00000000000000000000000006B4300006B35
:1002B0004300007A43EF02EA02E302DC02CE0200CE
:1002C00000A0410000A04100008040FFFFFF434F1D
:1002D0004D4D554E49434154494F4E004452595299
:1002E000554E004552524F525300494E464F00451D
:1002F00043484F006F6B00454550524F4D204F4BC8
:100300000A00486F6D6520257325732573204669A3
:10031000727374004F666673657473204170706CFD
:10032000696564004572723A20546F6F206661728D
:100330002100546F6F206661722066726F6D2072AB
:1003400065666572656E636520706F696E740A001C
:100350006469730043290A0061626C656420286D3A
:10036000696E2074656D702000436F6C6420657841
:10037000747275646573206172652000496E7661E0
:100380006C69642065787472756465720A00206413
:100390003A0020693A0020703A0020466C6F773AA4
:1003A000200020204D61783A200020204D696E3ACF
:1003B0002000536F667420656E6473746F70733AB7
:1003C00020003F4A206F7574206F662072616E674F
:1003D000652028302E303120746F20302E33290ACA
:1003E00000205400205200416363656C65726174A3
:1003F000696F6E3A2050004D31343520533C696EA0
:100400006465783E206F7574206F662072616E6738
:10041000652028302D31290A002F2F200043484124
:100420004D4245525F54454D5045524154555245F9
:10043000004D4F54494F4E5F4D4F44455300544873
:1004400045524D414C5F50524F54454354494F4ED5
:10045000004155544F5245504F52545F53445F53DF
:1004600054415455530050524F4D50545F535550C2
:10047000504F525400454D455247454E43595F50E9
:10048000415253455200434153455F4C49474854FC
:100490005F4252494748544E45535300544F4747D3
:1004A0004C455F4C494748545300534F46545741BD
:1004B00052455F504F574552004255494C445F509A
:1004C000455243454E54004C4556454C494E475FB6
:1004D00044415441005A5F50524F424500415554E7
:1004E0004F4C4556454C005052494E545F4A4F427E
:1004F0000050524F4752455353004155544F5245B7
:10050000504F52545F54454D5000564F4C554D4539
:10051000545249430042494E4152595F46494C4565
:100520005F5452414E534645520053455249414C47
:100530005F584F4E5F584F4646004649524D57410F
:1005400052455F4E414D453A4D61726C696E2032A5
:100550002E302E3120284769744875622920534F68
:10056000555243455F434F44455F55524C3A68747A
:100570007470733A2F2F6769746875622E636F6D9C
:100580002F4D61726C696E4669726D776172652F6D
:100590004D61726C696E2050524F544F434F4C5F07
:1005A00056455253494F4E3A312E30204D41434823
:1005B000494E455F545950453A456E6465722D3336
:1005C0002045585452554445525F434F554E543A76
:1005D0003120555549443A63656465326132662D70
:1005E000343161322D343734382D396231322D6354
:1005F00035356336326633363766660A00456E64D3
:1006000065722D33204F46462E004D313133205335
:10061000004D3131322053687574646F776E006F0E
:1006200066660044454255473A0050726F746563F0
:100630007465642050696E0A002569792025696413
:10064000202569682025696D20256973005072692D
:100650006E742074696D653A200044656C65746938
:100660006F6E206661696C65642C2046696C653A22
:10067000200046696C652064656C657465643A00A9
:10068000286E6F2066696C65290043757272656E0D
:10069000742066696C653A20005344207072696E5C
:1006A00074696E67206279746520004E6F74205300
:1006B00044207072696E74696E670A00456E64202A
:1006C00066696C65206C6973740A00426567696EBF
:1006D0002066696C65206C6973740A004E6F204D4A
:1006E0006F76652E00436C69636B20746F205265D2
:1006F00073756D652E2E2E00536C6565702E2E2E33
:100700000047322F47332062616420706172616D4F
:1007100065746572730A004572726F722077726930
:1007200074696E6720746F20454550524F4D210A01
:1007300000627573793A2070617573656420666F25
:100740007220696E7075740A00627573793A207050
:10075000617573656420666F7220757365720A0037
:10076000627573793A2070726F63657373696E672F
:100770000A0053544F505045442E20005072696E69
:100780007465722073746F70706564206475652081
:10079000746F206572726F72732E204669782074B0
:1007A0006865206572726F7220616E642075736572
:1007B000204D39393920746F2072657374617274F9
:1007C0002E202854656D706572617475726520699C
:1007D000732072657365742E2053657420697420CC
:1007E00061667465722072657374617274696E6794
:1007F000290A004E6F20436865636B73756D20771F
:10080000697468206C696E65206E756D6265722C06
:10081000204C617374204C696E653A2000636865F2
:10082000636B73756D206D69736D617463682C20E3
:100830004C617374204C696E653A20004C696E659A
:10084000204E756D626572206973206E6F74204C46
:10085000617374204C696E65204E756D6265722BF4
:10086000312C204C617374204C696E653A20004D28
:10087000313130004D313137004D33310053442098
:1008800072656164206572726F720A00446F6E65F2
:10089000207072696E74696E672066696C650A0003
:1008A0002121204B494C4C206361757365642062A3
:1008B0007920746F6F206D75636820696E61637451
:1008C0006976652074696D65202D20637572726587
:1008D0006E7420636F6D6D616E643A2000506C65BC
:1008E000617365205265736574005052494E5445DA
:1008F000522048414C5445440025533A202553008A
:100900004B494C4C45442E20005072696E74657200
:100910002068616C7465642E206B696C6C282920DA
:1009200063616C6C6564210A006563686F3A004519
:1009300072726F723A00204D393220580020496E91
:1009400076616C69642065787472756465722000E4
:100950000F150E1216170E1303021A1401000E0CB7
:10096000190DFF180C04000154656D7065726174F7
:100970007572650046616E205370656564004E6F48
:100980007A7A6C65004D61696E00507265686561C8
:100990007420504C41204265640050726568656166
:1009A0007420504C4120456E64005072656865614A
:1009B000742041425320456E640050726568656141
:1009C00074204142532042656400436F6F6C646F32
:1009D000776E005072656865617420414253005023
:1009E00072656865617420504C41004261627973A0
:1009F000746570205A00466C6F770046696C2E2033
:100A00004469612E004520696E206D6DC2B3004DB2
:100A10003330332055312045256920532569005056
:100A20004944204175746F74756E65202A005049E1
:100A3000442D44202A005049442D49202A00504981
:100A4000442D50202A0020082046616374002008AD
:100A5000204D6178002008204D696E004F666600C9
:100A60004F6E004175746F74656D7000FFFFFFFF7E
:100A7000FFFFFFFFFFFFFFFFFFFFFFFFFFFFFFFF86
:100A8000FFFFFFFFFFFFFFFFFFFFFFFFFFFFFFFF76
:100A9000FFFFFFFFFFFFF3FFFFFFFFFFFFFFFFFF72
:100AA000FFFFFFFFFFFFE7FFFFFFFFFFFFFFFFFF6E
:100AB000FFFFFFFFFFFFCFFFFFFFFFFFFFFFFFFF76
:100AC000FFFFFFFFFFFF8FFFFFFFFFFFFFFFFFFFA6
:100AD000FFFFFFFFFFFE1FFFFFFFFFFFFFFFFFFF07
:100AE000FFFFFFFFFFFC1FFFFFFFFFFFFFFFFFFFF9
:100AF000FFFFFFFFFFFF3FFFFFFFFFFFFFFFFFFFC6
:100B0000FFFFFFFFFFFE77FFFFFFFFFFFFFFFFFF7E
:100B100000000E00007E67FFFFFFFFFFFFFFFFFEEC
:100B200000000C00007CC7FFFFFFFFFFFFFFFFFF7F
:100B3000E000FF8003F9CFFFFFFFFFFFFFFFFFFF94
:100B4000F001FFC01FF99FFFFFFFFFFFFFFFFFFF47
:100B5000F801FFE03FF39FFFFFFFFFFFFFFFFFFFF5
:100B6000F801FFE0FFF33FFFFFFFFFFFFFFFFFFF85
:100B7000F801FFE1FFE63FFFFFFFFFFFFFFFFFFF81
:100B8000F801FFC3FFCE7FFFFFFFFFFFFFFFFFFF67
:100B9000F803FFC7FFCC7FFFFFFFFFFFFFFFFFFF53
:100BA000F803FF8FFF9C03FFFFFFFFFFFFFFFFFF27
:100BB000F803FF3FFF9800FC7FFFFFFFFFFFFFFFF1
:100BC000F803FE7FFF307E007FFFFFFFFFFFFFFF88
:100BD000F803FC7FFE30FF807FFFFFFFFFFFFFFF7A
:100BE000F803F87FFE61FFC07FFFFFFFFFFFFFFFFD
:100BF000F803E03FFCE3FFE07FFFFFFFFFFFFFFFA5
:100C0000F803C03FFCC3FFE07FFFFFFFFFFFFFFFD4
:100C1000F803801FF9C7FFF07FFFFFFFFFFFFFFF13
:100C2000F803000FF987FFF87FFFFFFFFFFFFFFFCB
:100C3000F800000FF307FFFC7FFFFFFFFFFFFFFF40
:100C4000F8000007E707FFFC7FFFFFFFFFFFFFFF44
:100C5000F801C003E607FFFE7FFFFFFFFFFFFFFF76
:100C6000F801E003CE07FFFE7FFFFFFFFFFFFFFF5E
:100C7000F803E001CC0FFFFFFFFFFFFFFFFFFFFFC7
:100C8000F803F000980FFFFFFFFFFFFFFFFFFFFFDC
:100C9000F803F000180FFFFFFFFFFFFFFFFFFFFF4C
:100CA000F803F800300FFFFFFFFFFFFFFFFFFFFF1C
:100CB000F803FC00700FE00000FFFFFFFFFFFFFFE5
:100CC000F803FC00600FE00000FFFFFFFFFFFFFFE5
:100CD000F803FE00C00FFE000FFFFFFFFFFFFFFF46
:100CE000F801FF00C00FFF001FFFFFFFFFFFFFFF26
:100CF000F801FF018007FF801FFFFFFFFFFFFFFFDD
:100D0000F001FF838007FF801FFFFFFFFFFFFFFE53
:100D100000001C030007FF801FFFFFFFFFFFFFFE17
:100D2000000018066007FF801FFFFFFFFFFFFFFFA7
:100D3000FFFFFFC67007FF803FFFFFFFFFFFFFFFC2
:100D4000FFFFFFCCF007FF803FFFFFFFFFFFFFFF2C
:100D5000FFFFFF9CF803FF003FFFFFFFFFFFFFFFC8
:100D6000FFFFFF99F803FF003FFFFFFFFFFFFFFFBB
:100D7000FFFFFF31FC01FF001FFFFFFFFFFFFFFF31
:100D8000FFFFFF33FE01FF001FFFFFFFFFFFFFFF1D
:100D9000FFFFFE67FF00FE001FFFFFFFFFFFFFFFDB
:100DA000FFFFFCE7FFC03C0E1FFFFFFFFFFFFFFF41
:100DB000FFFFFCCFFFF001FFBFFFFFFFFFFFFFFFC3
:100DC000FFFFF98FFFFF1FFFFFFFFFFFFFFFFFFF89
:100DD000FFFFFF9FFFFFFFFFFFFFFFFFFFFFFFFF83
:100DE000FFFFFF0FFFFFFFFFFFFFFFFFFFFFFFFF03
:100DF000FFFFFF0FFFFFFFFFFFFFFFFFFFFFFFFFF3
:100E0000FFFFFE1FFFFFFFFFFFFFFFFFFFFFFFFFD3
:100E1000FFFFFE7FFFFFFFFFFFFFFFFFFFFFFFFF63
:100E2000FFFFFCFFFFFFFFFFFFFFFFFFFFFFFFFFD5
:100E3000FFFFF9FFFFFFFFFFFFFFFFFFFFFFFFFFC8
:100E4000FFFFF3FFFFFFFFFFFFFFFFFFFFFFFFFFBE
:100E5000FFFFFFFFFFFFFFFFFFFFFFFFFFFFFFFFA2
:100E6000FFFFFFFFFFFFFFFFFFFFFFFF01FFFFFF90
:100E7000FFFFFFFFFFFFFFFFFFFF0FFFFFFFFFFF72
:100E8000FFFFFFFFFFFFFFFF1E000000000000004C
:100E900000000007FFFF3800000000000000000015
:100EA0000003FFFF700000000000000000000001D0
:100EB000FFFF600000000000000000000000FFFFD6
:100EC0006000000000000000000000007FFFC00084
:100ED000000000000000007800003FFFC00FC0FCD1
:100EE00000000000007818001FFFC03FE1FF000075
:100EF000000000783C000FFFC07FF3FF800000007F
:100F000000783C0007FFC0FFFFFFC0000000007832
:100F10003C0003FFC1F87F87E0000000007800007C
:100F200001FFC1F03F03E00000000078000000FF77
:100F3000C1E01E01E01F0003E0783C03F07FC1E048
:100F40001E01E07FC00FF8783C07FC3FC1E01E01A6
:100F5000E1FFE01FFC783C0FFE1FC1E01E01E3FF34
:100F6000F03FFE783C1FFE0FC1E01E01E3F3F83FA7
:100F70003E783C3F3F07C1E01E01E7E0FC7C1F7864
:100F80003C3E1F07C1E01E01E7C07C7C0F783C3C63
:100F90000F03C1E01E01E7807C780F783C3C0F0313
:100FA000C1E01E01E7803C7800783C3C0F03C1E0C3
:100FB0001E01E7803C7800783C3C0F03C1E01E0135
:100FC000E7803C7800783C3C0F03C1E01E01E7C09D
:100FD0003C7800783C3C0F03C1E01E01E3E03C7824
:100FE000007C3C3C0F03C1E01E01E3FF3FF8007FA3
:100FF000BC3C0F03C1E01E01E1FF3FF8003FBFFC16
:101000000F03C1E01E01E0FF3FF8001FBFFC0F030C
:10101000C1E01E01E07F3FF8000FBFFC0F0360003E
:101020000000000000000000000000076000000059
:10103000000000000000000000067000000000003A
:10104000000000000000000E38000000000000005A
:1010500000000000001C1E00000000000000000056
:10106000000000780FFFFFFFFFFFFFFFFFFFFFFF04
:10107000FFF001FFFFFFFFFFFFFFFFFFFFFFFF800C
:10108000687474703A2F2F6D61726C696E66772E7A
:101090006F726700322E302E31002020506C616E4E
:1010A0006E657242756666657242797465733A2040
:1010B000002046726565204D656D6F72793A20009B
:1010C000436F6D70696C65643A204A616E203136F9
:1010D00020323032300A00204C6173742055706425
:1010E000617465643A20323031392D31322D323419
:1010F000207C20417574686F723A20287468697387
:1011000069736B65697468622C20456E6465722D25
:1011100033290A00322E302E310A004D61726C697B
:101120006E0020536F667477617265205265736537
:10113000740A00205761746368646F672052657396
:1011400065740A002042726F776E206F75742052AA
:10115000657365740A002045787465726E616C2051
:1011600052657365740A00506F77657255700A0096
:101170006175746F25632E670047323858590065D2
:1011800072726F722077726974696E6720746F2053
:1011900066696C650A00446F6E6520736176696EDE
:1011A000672066696C652E0A004D323900456E6411
:1011B00073746F70730025532025632025632025E9
:1011C0006320256300205A3A0020593A00656E6476
:1011D00073746F7073206869743A2000416476619B
:1011E0006E6365642053657474696E677300436F42
:1011F0006E66696775726174696F6E004C6F6164C9
:101200002053657474696E677300526573746F72EE
:1012100065206661696C736166650053746F726501
:101220002053657474696E677300507265686561F8
:10123000742041425320436F6E66005072656865AA
:10124000617420504C4120436F6E6600313235008E
:101250004245443A4550434F53203130304B0052C1
:10126000756E617761792057617463683A204F4EDB
:10127000004D61782054656D7000323735004D693E
:101280006E2054656D700045313A204550434F53F0
:10129000203130304B005053550047656E65726900
:1012A000630050726F746F636F6C00312E300042B8
:1012B00061756400313135323030004D656C7A69CA
:1012C0002028437265616C697479290045787472CD
:1012D000756465727300456E6465722D330032303B
:1012E00031392D31322D323400546865726D697395
:1012F000746F727300426F61726420496E666F0092
:101300005072696E74657220496E666F0042616347
:101310006B0053746F70004D323100496E69742E4A
:10132000204D65646961004D32320052656C656123
:101330007365204D656469610041626F757420506A
:1013400072696E74657200526573756D65205072B6
:10135000696E74004D656469612052656C656173E6
:1013600065640054756E650053746F702050726927
:101370006E7400496E666F2053637265656E00205F
:1013800053697A653A200043616E6E6F74206F7006
:10139000656E207375626469722000534420636136
:1013A0007264206F6B0A006F70656E526F6F7420ED
:1013B0006661696C65640A00766F6C756D652E698F
:1013C0006E6974206661696C65640A005344206923
:1013D0006E6974206661696C0A004D3234004D32CA
:1013E000332025730046696C652073656C656374F2
:1013F00065640A0046696C65206F70656E65643AC5
:101400002000454E4420535542524F5554494E45B5
:101410000A002220706F73002220706172656E7462
:101420003A2200535542524F5554494E45204341AC
:101430004C4C207461726765743A22007472796949
:101440006E6720746F2063616C6C207375622D670A
:10145000636F64652066696C6573207769746820C2
:10146000746F6F206D616E79206C6576656C732E7C
:10147000204D4158206C6576656C2069733A310ABD
:101480000057726974696E6720746F2066696C65B5
:101490003A2000646F696E67004E6F77200002206B
:1014A000746F6F206C6F6E672065787472757369E6
:1014B0006F6E2070726576656E7465640A002063D5
:1014C0006F6C6420657874727573696F6E207072CA
:1014D0006576656E7465640A00220A00556E6B6E4F
:1014E0006F776E20636F6D6D616E643A20220045E8
:1014F0003100626564002C2073797374656D20730C
:10150000746F7070656421204865617465725F490D
:10151000443A200024F4D43050C38E20C2A2401795
:10152000828B7011127A910D816CD90AA861E10841
:10153000C7586607615143061E4B5D05C145A704A8
:101540001A411104093D9803713931034036DB0219
:1015500065339102D4305402802E1D02632CEE01BB
:10156000752AC501B028A001102781018F256401CB
:101570002B244B01E0223401AC211F018D200D01F1
:10158000801FFC00841EED00971DDF00B81CD200F8
:10159000E61BC600201BBC00641AB200B219A800EA
:1015A0000A19A0006A189900D117910040178B0002
:1015B000B516840031167E00B31579003A15730014
:1015C000C7146F0058146A00EE1366008813630096
:1015D00025135E00C7125B006C12570015125400F1
:1015E000C111510070114F0021114B00D61049005C
:1015F0008D1047004610440002104200C00F40000A
:10160000800F3E00420F3C00060F3B00CB0E38001F
:10161000930E37005C0E3500270E3400F30D3200B8
:10162000C10D3100900D3000600D2E00320D2D00E7
:10163000050D2C00D90C2B00AE0C2900850C2900BF
:101640005C0C2700350C27000E0C2600E80B24004C
:10165000C40B2400A00B23007D0B23005A0B210098
:10166000390B2100180B2000F80A1F00D90A1E00B0
:10167000BB0A1E009D0A1D00800A1D00630A1C0093
:10168000470A1B002C0A1B00110A1A00F7091A004E
:10169000DD091900C4091900AB09190092091700E6
:1016A0007B091800630917004C091600360916005B
:1016B000200916000A091500F5081500E0081400B5
:1016C000CC081400B8081400A408140090081300F3
:1016D0007D0812006B08130058081200460812001B
:1016E000340811002308110012081100010811002C
:1016F000F0071000E0071000D0071000C00710002E
:10170000B0070F00A107100091070E0083070F001C
:1017100074070F0065070E0057070E0049070E00FB
:101720003B070D002E070E0020070D0013070D00CC
:1017300006070D00F9060C00ED060D00E0060C0092
:10174000D4060C00C8060C00BC060C00B0060C0049
:10175000A4060B0099060C008D060B0082060B00F8
:1017600077060B006C060B0061060A0057060B009B
:101770004C060A0042060A0038060A002E060A0035
:1017800024060A001A060A001006090007060A00C5
:10179000FD050900F4050900EB050900E205090053
:1017A000D9050900D0050900C7050900BE050900D3
:1017B000B5050800AD050800A50509009C05080051
:1017C000940508008C050800840508007C050800C5
:1017D000740508006C050700650508005D05070035
:1017E000560508004E05070047050700400508009C
:1017F00038050700310507002A0507002305070003
:101800001C050600160507000F0507000805060061
:1018100002050700FB040600F5040700EE040600BD
:10182000E8040600E2040700DB040600D504060015
:10183000CF040600C9040600C3040600BD04060068
:10184000B7040600B1040500AC040600A6040600B7
:10185000A00405009B040600950405009004060002
:101860008A04050085040500800406007A0405004A
:1018700075040500700405006B040500660405008E
:10188000610405005C0405005704050052040500CE
:101890004D04050048040500430405003E0404000F
:1018A0003A04050035040500300404002C0405004A
:1018B00027040400230405001E0404001A04040085
:1018C00016040500110404000D04040009040500B9
:1018D0000404040000040400FC030400F8030400F2
:1018E000F4030400F0030400EC030400E803040024
:1018F000E4030400E0030400DC030400D803040054
:10190000D4030400D0030400CC030400C803030084
:10191000C503030024F404D9201BC40C5C0E9804F6
:10192000C4095F0265077101F405F900FB04B30007
:1019300048048700C10369005803550003034500AC
:10194000BE023A008402310053022A002902250017
:1019500004022000E4011C00C8011900AF011700B7
:10196000980114008401130071011000610110003E
:1019700051010E0043010D0036010B002B010B003D
:1019800020010B00150109000C01090003010800EA
:10199000FB000800F3000800EB000700E40006006D
:1019A000DE000600D8000600D2000600CC000500CC
:1019B000C7000500C2000500BD000400B900040016
:1019C000B5000400B1000400AD000400A90004004B
:1019D000A5000300A20003009F0004009B00030079
:1019E000980003009500020093000300900003009C
:1019F0008D0002008B0003008800020086000200B8
:101A000084000300810002007F0002007D000200CC
:101A10007B000200790002007700010076000200DE
:101A20007400020072000100710002006F000200E9
:101A30006D0001006C0002006A00010069000200F4
:101A400067000100660001006500010064000200FB
:101A50006200010061000100600001005F000200FF
:101A60005D0001005C0001005B0001005A00010004
:101A70005900010058000100570001005600010004
:101A80005500010054000100530000005300010004
:101A90005200010051000100500001004F00010000
:101AA0004E0000004E0001004D0001004C000100FE
:101AB0004B0000004B0001004A00010049000100FA
:101AC00048000000480001004700010046000000F7
:101AD00046000100450000004500010044000100EF
:101AE00043000000430001004200000042000100EA
:101AF0004100000041000100400001003F000000E3
:101B00003F0001003E0000003E0001003D000000DB
:101B10003D0001003C0000003C0000003C000100D2
:101B20003B0000003B0001003A0000003A000100C9
:101B300039000000390001003800000038000000C2
:101B400038000100370000003700010036000000B7
:101B500036000000360001003500000035000000AE
:101B600035000100340000003400000034000100A2
:101B70003300000033000000330001003200000099
:101B8000320000003200010031000000310000008E
:101B90003100010030000000300000003000010082
:101BA0002F0000002F0000002F0000002F00010078
:101BB0002E0000002E0000002E0001002D0000006D
:101BC0002D0000002D0000002D0001002C00000061
:101BD0002C0000002C0000002C0001002B00000055
:101BE0002B0000002B0000002B0001002A00000049
:101BF0002A0000002A0000002A000100290000003D
:101C0000290000002900000029000000290001002F
:101C10002800000028000000280000002800000024
:101C20002800010027000000270000002700000016
:101C30002700000027000100260000002600000009
:101C400026000000260000002600010025000000FC
:101C500025000000250000002500000025000000F0
:101C600025000100240000002400000024000000E2
:101C700024000000240001002300000023000000D5
:101C800023000000230000002300000023000000C8
:101C900023000100220000002200000022000000BA
:101CA00022000000220000002200010021000000AC
:101CB00021000000210000002100000021000000A0
:101CC0002100000021000100200000002000000091
:101CD0002000000020000000200000002000000084
:101CE00020000000200001001F0000001F00000075
:101CF0001F0000001F0000001F0000001F00000068
:101D00001F0001001E0000001E0000001E00000059
:101D10001E000000043700001E290000511B0000B7
:101D20005810000010090000CC04000078020000E8
:101D3000410100001FE02010201020101020102072
:101D40002010201030300840048003001FE03FF0D6
:101D50003FF03FF01FE01FE03FF03FF03FF00FC0CB
:101D6000078003003FFFF038007030FC3020FC108B
:101D70002078102030102C00D02E31D02F7BD02F87
:101D80007BD02E31D02C00D020301020781020FCB9
:101D90001030FC303800703FFFF03FFFF03800702B
:101DA0003186302387102787902F87D02F03D020AC
:101DB00030102078102078102030102F03D02F877B
:101DC000D02787902387103186303800703FFFF08E
:101DD0001FFFF81FFFF8041040020820020820042B
:101DE000104008208010410010410008208004109D
:101DF000400000001FFFF81FFFF8F80180000C48AA
:101E00000080001243C38CD00271249267CC41241D
:101E10009E40024924904012FBB3CEE00C25687529
:101E20003A2530326875002568756420253032689F
:101E3000753A2530326875002020202020202000AF
:101E40007C3C3E5E2B3D3F2F5B5D3B2C2A225C00A1
:101E50004361703A00656E7175657565696E6720DE
:101E60002200526573656E643A200020573A00459F
:101E70002025530042656420436F6F6C696E672EA6
:101E80002E2E004265642048656174696E672E2EAF
:101E90002E0023646566696E652044454641554CB5
:101EA000545F004B6420004B6920004B70200050B1
:101EB0004944204175746F74756E652066696E695A
:101EC00073686564212050757420746865206C61A6
:101ED0007374204B702C204B6920616E64204B641E
:101EE00020636F6E7374616E74732066726F6D2001
:101EF00062656C6F7720696E746F20436F6E6669E0
:101F00006775726174696F6E2E680A0050494420CB
:101F10004175746F74756E65206661696C656421C6
:101F20002074696D656F75740A000A20436C6173D3
:101F300073696320504944200A00204B643A200012
:101F4000204B693A2000204B703A20002054753A0B
:101F50002000204B753A2000206D61783A20002047
:101F60006D696E3A200020643A2000206269617336
:101F70003A2000504944204175746F74756E652095
:101F800073746172740A00504944204175746F740F
:101F9000756E65206661696C6564212054656D709D
:101FA0006572617475726520746F6F206869676807
:101FB0000A00504944204175746F74756E6520663F
:101FC00061696C6564212042616420657874727572
:101FD000646572206E756D6265720A005365747473
:101FE000696E67732053746F7265642028004865BA
:101FF0006174696E67204661696C6564004865615B
:1020000074696E67206661696C656400202D2049E3
:102010006E76616C6964206578747275646572208F
:102020006E756D62657220210A00544845524D411B
:102030004C2052554E4157415900546865726D61AC
:102040006C2052756E61776179004572723A204D4D
:10205000415854454D50004D415854454D50207401
:102060007269676765726564004572723A204D490E
:102070004E54454D50004D494E54454D50207472BC
:1020800069676765726564004D38342058205920AF
:102090005A204500202F002042403A0020403A00BC
:1020A00070012C0190012701B0012201C0011D0126
:1020B000F00118011002130130020E016002090143
:1020C00090020401C002FF000003FA004003F50083
:1020D0008003F000D003EB002004E6007004E10070
:1020E000E004DC004005D700C005D2004006CD006A
:1020F000D006C8008007C3003008BE00F008B90051
:10210000C009B400B00AAF00B00BAA00D00CA50003
:10211000000EA000500F9B00C010960050129100BE
:1021200000148C00C0158700B0178200B0197D0024
:10213000D01B7800001E730040206E0090226900C2
:10214000F024640040275F0090295A00E02B5500DE
:10215000102E500020304B0010324600E03341007A
:1021600090353C001037370070383200A0392D0010
:10217000B03A2800A03B2300603C1E00103D19002F
:10218000903D1400103E0F00703E0A00C03E050056
:10219000003F0000403FFBFF803FF6FFC03FF1FFE4
:1021A0005072696E742066726F6D204D656469614E
:1021B000004D6F76652025736D6D004D6F7665203F
:1021C000302E316D6D004D6F766520316D6D004D97
:1021D0006F76652031306D6D004D6F7665204178EA
:1021E000697300486F74656E6420746F6F20636F4D
:1021F0006C64004578747275646572004D6F766525
:10220000205A004D6F76652059004D6F7665205835
:102210000000002100240027002A000000220025E1
:102220000028002B000000200023002600290002C7
:10223000020202020202020404040404040404036D
:102240000303030303030301010101010101010170
:102250000204081020408001020408102040800180
:102260000204081020408080402010080402010071
:102270000000010200090A00000000040308070032
:10228000000000000000000000000000000000202E
:1022900062797465733B2063726320004E6F204542
:1022A0004550524F4D2E0A00454550524F4D206427
:1022B00061746173697A65206572726F722E0A00AB
:1022C0002073746F7265642073657474696E6773CC
:1022D0002072657472696576656420280020286321
:1022E000616C63756C6174656429210A0020213D6D
:1022F0002000454550524F4D20435243206D697395
:102300006D61746368202D202873746F7265642971
:102310002000496E6465783A2000204D61726C6936
:102320006E3D563734290A00454550524F4D2076B0
:10233000657273696F6E206D69736D617463682077
:1023400028454550524F4D3D0048617264636F64AB
:1023500065642044656661756C74205365747469A6
:102360006E6773204C6F616465640A002049002029
:10237000204D33303120500050494420736574742F
:10238000696E67733A0A0020460020480020204DFD
:102390003134352053004D6174657269616C206879
:1023A000656174757020706172616D6574657273BA
:1023B0003A0A0020204D323036205800486F6D65B3
:1023C000206F66667365743A0A00204A0020204D2B
:1023D000323035204200204A3C6A756E635F646586
:1023E000763E00416476616E6365643A20423C6DDE
:1023F000696E5F7365676D656E745F74696D655F47
:1024000075733E20533C6D696E5F666565647261ED
:1024100074653E20543C6D696E5F74726176656CC4
:102420005F66656564726174653E0020204D3230E0
:1024300034205000416363656C65726174696F6E2E
:102440002028756E6974732F7332293A20503C70BE
:1024500072696E745F616363656C3E20523C7265A5
:1024600074726163745F616363656C3E20543C7495
:10247000726176656C5F616363656C3E0A00202063
:102480004D3230312058004D6178696D756D2041B5
:102490006363656C65726174696F6E2028756E691F
:1024A00074732F7332293A0A0020204D32303320C2
:1024B00058004D6178696D756D206665656472615F
:1024C0007465732028756E6974732F73293A0A0036
:1024D00053746570732070657220756E69743A0A62
:1024E0000020204D3230302044300A0020204D3270
:1024F00030302044002044697361626C65640A00D6
:1025000046696C616D656E742073657474696E677D
:10251000733A0020204D3134392043203B20556E42
:1025200069747320696E2043656C736975730A0062
:1025300020286D6D29002020473231202020203BAB
:1025400020556E69747320696E206D6D00486F6D43
:10255000696E67204661696C6564000000FA43009B
:1025600000FA430000A0400000C8410000A0420063
:1025700000A0420000C8430000BA42F4010000F489
:1025800001000064000000881300003F0043616EFA
:1025900063656C004D6F74696F6E00537461727483
:1025A000205072696E740043616E6E6F7420656EA8
:1025B000746572207375626469723A2000022E2E6F
:1025C000000152656672657368004D3834004469D5
:1025D0007361626C65205374657070657273004737
:1025E0003238004175746F20486F6D65006F7065FB
:1025F0006E206661696C65642C2046696C653A20C2
:10260000006F70656E00545249474745524544007B
:102610007A5F6D696E00795F6D696E00785F6D69D4
:102620006E005265706F7274696E6720656E6473B8
:10263000746F70207374617475730A0020436F7532
:102640006E7420583A0020453A005761726E696EE8
:10265000673A20486F6D696E672042756D7020443F
:10266000697669736F72203C20310A00020204000F
:1026700000A0400000A040000000404A756E637456
:10268000696F6E20446576004573746570732F6DB5
:102690006D005A73746570732F6D6D005973746596
:1026A00070732F6D6D005873746570732F6D6D00AE
:1026B000496E6974004D34323800496E697469613D
:1026C0006C697A6520454550524F4D0046696C61F2
:1026D0006D656E740053746570732F6D6D004A657F
:1026E000726B00416363656C65726174696F6E0043
:1026F00056656C6F636974790053657420486F6D1B
:1027000065204F666673657473004572723A207572
:1027100074663820666F6E74206E6F7420696E69FF
:102720007469616C697A65642E00000C0D00FE0707
:10273000022603BC017FFE08FE08FE05080806000D
:102740000040F0C88888987810050808060000C086
:10275000F88888888888F80505050600012030F883
:1027600030200508080600002070F820202020E016
:102770000509090600FF2070A8A8B8888870200500
:102780000606060001E08CEA8C8A0A0509090600A3
:10279000FFF8A88888888888A8F8050A0A0600FE35
:1027A000205050505088A8A88870030303060003E7
:1027B00040A040FFFFFFFFFFFFFFFFFFFFFFFFFF06
:1027C000FFFFFFFFFFFFFFFFFF0000000605FF0107
:1027D00007070602008080808080008003030306D4
:1027E0000105A0A0A005060606000050F85050F80C
:1027F000500509090600FF2070A8A07028A87020C5
:10280000050707060000C8C810204098980507076C
:1028100006000040A0A040A890680103030602053E
:102820008080800309090601FF20404080808040AD
:1028300040200309090601FF80404020202040403D
:102840008005070706000020A8702070A820050555
:10285000050600012020F820200203030601FFC026
:102860004080050101060003F8020202060100C0D3
:10287000C00507070600000810102040408005072B
:1028800007060000708898A8C8887003070706012B
:102890000040C040404040E0050707060000708847
:1028A00008102040F8050707060000F80810300857
:1028B000887005070706000010305090F8101005CA
:1028C0000707060000F880F008088870050707066B
:1028D0000000304080F0888870050707060000F887
:1028E0000810102020200507070600007088887057
:1028F00088887005070706000070888878081060CF
:10290000020505060100C0C000C0C002060606019F
:10291000FFC0C000C04080030505060101204080C3
:102920004020050303060002F800F8030505060130
:1029300001804020408005070706000070881020B5
:102940002000200507070600007088B8A8B880702E
:10295000050707060000708888F88888880507073B
:10296000060000F04848704848F0050707060000D8
:1029700070888080808870050707060000F048484E
:10298000484848F0050707060000F88080F080807E
:10299000F8050707060000F88080F08080800507B2
:1029A0000706000070888080988870050707060079
:1029B00000888888F8888888030707060100E040B7
:1029C00040404040E0050707060000381010101096
:1029D00090600507070600008890A0C0A0908805B9
:1029E0000707060000808080808080F805070706C2
:1029F000000088D8A888888888050707060000880E
:102A000088C8A89888880507070600007088888805
:102A1000888870050707060000F08888F0808080AD
:102A200005070706000070888888A89068050707D2
:102A3000060000F08888F0A09088050707060000CF
:102A400070888070088870050707060000F820204D
:102A500020202020050707060000888888888888AD
:102A600070050707060000888888885050200507F1
:102A70000706000088888888A8A850050707060070
:102A8000008888502050888805070706000088883D
:102A90005020202020050707060000F808102040DD
:102AA00080F80309090601FFE08080808080808033
:102AB000E0050707060000804040201010080309C9
:102AC000090601FFE020202020202020E00503034C
:102AD0000600052050880501010600FEF8030303E7
:102AE000060105804020050505060000700878886D
:102AF000780507070600008080F0888888F00505C3
:102B00000506000070808088700507070600000831
:102B10000878888888780505050600007088F080A8
:102B200070050707060000304840E04040400507B8
:102B3000070600FE70888888780870050707060079
:102B4000008080F08888888803070706010040001D
:102B5000C0404040E00409090601FE10003010109A
:102B60001010906005070706000080808890E090B4
:102B700088030707060100C04040404040E00505CB
:102B800005060000D0A8A8A8A8050505060000B005
:102B9000C888888805050506000070888888700543
:102BA00007070600FEF0888888F080800507070682
:102BB00000FE78888888780808050505060000B0BA
:102BC000C880808005050506000078807008F00543
:102BD00007070600002020F820202018050505061C
:102BE00000008888889868050505060000888888A0
:102BF00050200505050600008888A8A85005050591
:102C000006000088502050880507070600FE8888C7
:102C10008850204080050505060000F8102040F887
:102C20000309090601FF2040404080404040200148
:102C300009090602FF8080808080808080800309EF
:102C4000090601FF804040402040404080050303CA
:102C500006000248A890FF5654726176204D696EB6
:102C600000566D696E00566D6178204500566D61A5
:102C700078205A00566D6178205900566D61782091
:102C80005800416D6178204500416D6178205A00FF
:102C9000416D6178205900416D6178205800412DC7
:102CA00054726176656C00412D5265747261637473
:102CB00000416363656C005072696E7420506175E9
:102CC000736564005061757365205072696E74009D
:102CD0004D6564696120496E736572746564004571
:102CE0006E6465722D332052656164792E005072D6
:102CF000696E74696E672E2E2E005072696E742094
:102D000041626F72746564004D3235008FE2D7DF27
:102D100011241FBECFEFD0E4DEBFCDBF12E0A0E094
:102D2000B1E0E6E1F6EE01E00BBF02C007900D92C4
:102D3000AC31B107D9F722E1ACE1B2E001C01D929C
:102D4000A23EB207E1F716E1C7E8D6E104C0219739
:102D5000FE010E9454EFC638D107C9F70E942CDA51
:102D60000C94FEF20C9400002F923F924F925F92CF
:102D70006F927F928F929F92AF92BF92CF92DF928B
:102D8000EF92FF920F931F93CF93DF93CDB7DEB7F0
:102D9000C055D1090FB6F894DEBF0FBECDBF20914C
:102DA000FE0221962FAF219711E01093FE02809131
:102DB000FD028D3409F473C2843511F40C942A2574
:102DC000873411F00C9445252090FB023090FC02D2
:102DD00034E02316310409F49BC154F437FC5BC280
:102DE0008091280152E0251631040CF005C12FC056
:102DF0008AE52816310409F4D9C164F4A5E12A163C
:102E0000310411F40C944725BCE12B16310409F46C
:102E1000BDC141C2EBE52E16310409F4CBC1FCE57E
:102E20002F16310409F037C221E6222E21E0322E7E
:102E300035E6E32E32E0F32E2AED32E039A328A363
:102E400041E7C42E42E0D42E00E010E0F3C1882315
:102E500011F40C9447250E94FA2D8AEE92E00E940C
:102E60008CC480919F0A83FD88C02091E602309136
:102E7000E7024091E8025091E9026091F6027091F8
:102E8000F7028091F8029091F9020E946FE888237E
:102E900009F473C08091D50581111EC020E030E097
:102EA000A9016091DA057091DB058091DC059091B4
:102EB000DD050E9466EF0E94D2F020913A01309128
:102EC0003B016217730744F40E9429308EEB94E1B2
:102ED0000E94033011E001C010E02091E602309121
:102EE000E7024091E8025091E9026091F602709188
:102EF000F7028091F8029091F9020E9465EF6B0150
:102F00007C0120E030E0A9010E94C6F187FF04C0E7
:102F1000F7FAF094F7F8F0942091360130913701E8
:102F20004091380150913901C701B6010E94D5E89E
:102F300020E030E048E453E40E94C6F118163CF467
:102F40000E9429308FE994E10E94033002C01123CE
:102F5000A1F08091F6029091F702A091F802B09151
:102F6000F9028093E6029093E702A093E802B093FF
:102F7000E90286EF92E00E94B76C2AE037ED43E267
:102F80005CE360912401709125018091260190916C
:102F900027010E94D5E86B017C01609122017091AC
:102FA0002301072E000C880B990B0E9476E89B01E9
:102FB000AC01C701B6010E94D5E869837A838B838F
:102FC0009C83C12CD12C76018E010F5F1F4F26EF01
:102FD00032E042EF52E06EEE72E08AEE92E00E9442
:102FE000476380E1EAEEF2E0AAEDB2E001900D92D3
:102FF0008A95E1F70C944725882311F40C94472512
:103000000E94FA2D82E50E94ED2D882309F44EC01E
:103010000E94712D6B017C0120E030E0A9010E942B
:103020006FE8882311F40C940E262091DA02309177
:10303000DB024091DC025091DD0228A339A34AA3B0
:103040005BA38091DE029091DF02A091E002B0913B
:10305000E1028CA39DA3AEA3BFA38090EA0290904F
:10306000EB02A090EC02B090ED024090EE02509086
:10307000EF026090F0027090F102A501940168A146
:1030800079A18AA19BA10E946FE881110C944F2520
:10309000A30192016CA17DA18EA19FA10E946FE866
:1030A000882311F40C940E260C944F2589E40E9479
:1030B000ED2D882329F00E94712D6B017C0103C046
:1030C000C12CD12C76018AE40E94ED2D882311F4C5
:1030D0000C9415260E94712D68A779A78AA79BA733
:1030E00020E030E0A901C701B6010E946FE881111C
:1030F0000C94222620E030E0A90168A579A58AA5D4
:103100009BA50E946FE881110C9422260C940E2638
:1031100080E50E94ED2D882329F00E942D2D6B0162
:103120007C0103C0C12CD12C760183E50E94ED2DDA
:10313000882361F00E94712D20E030E04AE754E4DA
:103140000E94D5E80E94D9F06B017C010E9446C123
:1031500080918102811105C060E088EF96E00E94B5
:10316000B6D50E944C46C60ED71EE81EF91E0E9418
:103170004C46DC01CB018C199D09AE09BF09B7FD96
:1031800002C00C9447250E94BE32F1CF809180028C
:103190008770873011F00C94A42960E08FE40E94BE
:1031A000C82E81110C9447250C94A4291092FA0280
:1031B0000C9447258FE08093FA020C9447250E94D7
:1031C000712D2B013C01133049F0F6012081318132
:1031D000428153810E9465EF2B013C01A8A1B9A156
:1031E0002D913D914D915C91C301B2010E9465EF1B
:1031F0004B015C012DEB37E346E855EB0E94C6F12D
:1032000087FD20C02DEB37E346E855E3C501B40147
:103210000E946FE81816B4F01F5FB4E0EB0EF11CCB
:10322000E8A1F9A13496F9A3E8A3F4E0CF0ED11CEC
:10323000143039F1D1018D911D010E94ED2D8823AB
:1032400059F3BDCF133051F44092E6025092E70299
:103250006092E8027092E90201E0DECFA5019401DC
:10326000F70160817181828193810E9466EFD701AD
:103270006D937D938D939C931397812F0E946CC4C3
:10328000CBCF002321F086EE92E00E94B76C0E9423
:10329000FBC60C9447250E940E640C944725809130
:1032A000FB029091FC028137910509F411C50CF0E5
:1032B000CBC08A32910509F41CC40CF06AC0883175
:1032C000910509F435C20CF049C08231910509F429
:1032D00086C56CF497FF02C00C94272582309105B7
:1032E0000CF47EC1419709F4F2C10C942725853175
:1032F000910509F400C22CF5449711F00C94272590
:103300008BEC96E00E94033089EA9FE00E948B7C60
:103310008BE1E9EAFFE0DE01119601900D928A95BA
:10332000E1F760E070E0CE0101960E94EF53CE011C
:1033300001960E947F7E8CEB96E00E9403300C94F5
:1033400047258631910509F4DAC1479711F00C94AD
:103350002725E0916302F0916402DEC18C31910572
:1033600009F46CC23CF48A31910509F406C20CF4EC
:10337000EBC111C28E31910509F46FC20CF466C223
:103380008F31910509F40BC3809709F4C5C20C94E1
:1033900027258C35910509F468C534F581359105EB
:1033A00009F4FBC48CF48C34910509F4C2C38D3448
:1033B000910509F4D1C38B34910511F00C942725A4
:1033C0000E94FF8E0C9447258335910509F400C5B2
:1033D0000CF4F7C48435910509F401C585359105D0
:1033E00009F42AC50C9427258C36910509F468C484
:1033F000ACF48936910509F4D4C334F488369105C8
:1034000009F4ADC30C9427258A36910509F4DFC36E
:103410008B36910509F4F7C30C9427258E36910558
:1034200009F4F9C30CF4BAC38F36910509F404C446
:103430008037910511F00C94272541E060E070E0A1
:1034400081E196E00E942D308C3D910511F40C94A1
:10345000A5220CF050C08139910509F45AC60CF52B
:103460008637910509F409C664F48337910509F498
:103470008BC50CF484C58537910509F4EEC50C9411
:1034800027258837910509F435C60CF430C68937ED
:10349000910509F437C68C38910509F43BC40C94A6
:1034A00027258B3C910509F4FFC6ACF48E3B9105B2
:1034B00009F44AC434F48B39910509F448C40C94D6
:1034C0002725883C910509F47FC6893C910509F4BC
:1034D000C8C60C9427258D3C910509F43BC70CF414
:1034E00005C78E3C910509F448C7833D910509F451
:1034F00066C70C9427258A3921E0920709F4E5C3B1
:103500008CF58C3241E0940711F40C94AD2394F4C3
:10351000823E910511F40C9408238232A1E09A07AF
:1035200011F40C9453238D3D910511F00C94272533
:103530000C94B2228E32B1E09B0711F40C9441241A
:1035400014F40C94C2238F32F1E09F0711F40C9411
:1035500085248039914011F00C9427250E9446C1A2
:103560000C944725873F31E0930711F40C94F9241C
:10357000ECF4843F51E0950711F40C94F3243CF4EF
:103580008C3A914011F40C9488240C942725853FA3
:10359000E1E09E0711F40C94F624863F914011F06F
:1035A0000C9427250E944DAC0C9447258C3022E0CA
:1035B000920711F40C9411253CF4883F914011F4CA
:1035C0000C9401250C942725803A53E0950709F4C3
:1035D000D8C1873E934011F40C9419250C942725EB
:1035E000A0906302B090640280E50E94ED2D8823D4
:1035F00059F00E942D2D6B017C0111E0672B682B87
:10360000692B31F410E004C010E0C12CD12C7601FC
:1036100083E50E94ED2D882311F40C94542B0E9415
:10362000712D20E030E04AE754E40E94D5E80E9482
:10363000D9F06B017C0111110BC0672B682B692B32
:1036400039F4A114B10421F0F5018081811102C087
:1036500010E001C011E00E9446C1112329F061E091
:10366000C5010E9430D605C060E085EE96E00E945C
:10367000B6D583E08093FE0281E080936202C1149C
:10368000D104E104F104B1F00E944C46C60ED71EED
:10369000E81EF91E0E944C46DC01CB018C199D09E5
:1036A000AE09BF09B7FF0DC08091620281110C9471
:1036B000592B07C080916202882319F00E94BE3204
:1036C000F9CF0E9455D6109262020C944725809142
:1036D0005E0284FF02C00C945D2B8091600287FF24
:1036E00002C00C945D2B80916102837011F00C94E8
:1036F0005D2B0C946F2B0E94D6520C9447250E9490
:10370000005180916611877F809366110C94472544
:10371000803209F41082319680818111F9CF60E006
:1037200080916302909164020E945A510C94472543
:103730000E949F2F882321F00E9476520E94FF8EC4
:103740000E9455D60C9447258091661182FF03C0D4
:103750008B7F8093661180915D02813089F782E0D2
:1037600080935D020E944C466093590270935A0206
:1037700080935B0290935C02E3CF8091661183FD9E
:1037800002C00C94472583E50E94ED2D81110C9415
:10379000792B0C94472583E40E94A42D882319F1EA
:1037A0008AE896E00E9403308091530F882391F0BD
:1037B000BE016F5F7F4F80E59FE00E94527B8E01CC
:1037C0000F5F1F4FD8018D918D01882339F00E9422
:1037D000FC2FF8CF80E896E00E9403308AE00E9438
:1037E000FC2F0C9447258091661182FF21C089E946
:1037F00096E00E9403306091621170916311809194
:103800006411909165114AE00E94F9308FE20E94A4
:10381000FC2F60915E1170915F1180916011909109
:1038200061114AE00E94F9300E9497320C944725BA
:103830008BEA96E00E9403300C9447258091630246
:10384000909164020E940F510C944725809166115B
:103850008E7F809366110C9447258091661183FDBD
:1038600002C00C9447250E94F7638091661183FD86
:1038700002C00C9447256091630270916402CE01EE
:103880004C960E941FBE8C01009711F40C944725A2
:103890006C8D7D8D19821C8222E0AC01CE010196D7
:1038A0000E94857E811102C0F12C14C0CE010196C8
:1038B0000E948DBD8823C1F361E0CE0101960E9474
:1038C000FA7A009789F325EEFC0120831C820E947E
:1038D0008276F82ECE0101960E947F7EB801FF20ED
:1038E00089F082E796E00E9412308AE00E94FC2F65
:1038F000109262111092631110926411109265116E
:103900000C9447258AE596E00E94123085EA92E2FF
:103910000E9403300C9447258091661182FD0E941D
:1039200046C18091661183FD02C00C94472560E07A
:1039300080E50E94C82E182F682F80916302909115
:1039400064020E945A5183E50E94ED2D882381F084
:103950000E943D2DAB01BC01409362115093631155
:10396000609364117093651180E59FE00E94757803
:103970000E94765211110C9447250E94FF8E0C94E0
:103980004725209163023091640290916611926004
:1039900090936611C9010E940F510C9447250E9413
:1039A000B08E7B018C0120E831E541E050E00E94BF
:1039B000C5EEC9016DE671E00E940DEF4B015C019F
:1039C000C801B70120E13EE040E050E00E94C5EEB2
:1039D000CA01B90128E130E040E050E00E94C5EEA4
:1039E000762E672EC62ED72E9CE3292E312C412C05
:1039F000512CC801B701A20191010E94C5EEF62E1B
:103A0000E72ECA01B901A20191010E94C5EECB01C6
:103A10008E010F5F1F4F8114910499F0EF92FF9276
:103A20007F936F936F927F92BF92AF929F928F928C
:103A300089E396E09F938F931F930F930E9407E86B
:103A400013C0A114B104B1F0EF92FF927F936F9372
:103A50006F927F92BF92AF928DE396E09F938F9388
:103A60001F930F930E9407E80FB6F894DEBF0FBEB6
:103A7000CDBF30C0CD2879F0EF92FF927F936F9346
:103A80006F927F9281E496E09F938F931F930F93A1
:103A90000E9407E8E9CF892B69F0EF92FF927F93AC
:103AA0006F9385E496E09F938F931F930F930E94EB
:103AB00007E8DACFEF92FF9289E496E09F938F9325
:103AC0001F930F930E9407E80F900F900F900F9095
:103AD0000F900F9060E0C8010E9430D60E942930FC
:103AE000B8018DE496E00E9412308AE00E94FC2F1B
:103AF000CEC783E50E94ED2D882309F4C8C70E9434
:103B00004D2DF82E6FEF7FEF80E50E94B52E8C01D2
:103B100097FDBDC7E82E60E089E40E94C82E8111A0
:103B20000C948A2B802F0E94E0D981118EC50C94B1
:103B30008A2B80915D02813009F0A9C782E08093D1
:103B40005D020E944C466093590270935A02809322
:103B50005B0290935C029BC70E94238F98C7809161
:103B60009F0A83FD94C70E94AD3187FD90C783E50E
:103B70000E94ED2D882379F00E94712D0E94D2F0D1
:103B80008B01CB010E94B59B0635110524F40E94E0
:103B9000238F0E9455D60E94406C79C70E9454859D
:103BA00076C70E94AD31182F87FD0AC084EF92E0DE
:103BB0000E940330812F0E9430998AE00E94FC2FDE
:103BC0002196BFAD2197B093FE020C94FA2C80E5AC
:103BD0000E941C6481115BC781E40E94A42D88238C
:103BE00021F06091C40570E002C06FEF70E083E5E2
:103BF0000E94B6898F3F910519F010F08FEF90E089
:103C00008093C40544C780E50E941C6481113FC7AE
:103C10001092C4053CC78EE40E94ED2D882309F460
:103C200036C70E943D2D60935502709356028093D3
:103C30005702909358022BC783E50E94A42D882336
:103C400029F083E50E941C6480939F0A0E9429301A
:103C500083E296E00E94033080919F0A882369F1F5
:103C600085EBE82E82E0F82E00E010E020E0809165
:103C70009F0A90E0A0E0B0E0002E04C0B695A795A2
:103C8000979587950A94D2F780FF0EC0DD24D394D0
:103C9000D20E222319F08CE20E94FC2FF7018591AD
:103CA00094910E9403302D2D0F5F1F4FE2E0EE0E26
:103CB000F11C05301105D9F691CD8FE196E08CCD40
:103CC0001092620210922001E2C60E94152FDFC6F8
:103CD00083E50E94ED2D882371F00E944D2D282F41
:103CE00030E02D3331051CF480931F01D0C68CE3E6
:103CF00080931F01CCC60E94293040911F0150E0E3
:103D000060E070E08AE096E00E9466318AE00E94FE
:103D1000FC2FBDC680919F0A83FDB9C683E50E9432
:103D2000ED2D882309F4B3C60E94712D0E94D2F0B4
:103D30006337710514F063E770E07093530260938A
:103D400052020E94C696A3C60E947883A0C683E54D
:103D50000E94ED2D882309F49AC60E944D2D182F3C
:103D600090E0CD970CF01CE3109349020E944C4662
:103D70006B017C01212F30E0A8EEB3E00E94F2EE4F
:103D8000C60ED71EE81EF91EC0924502D09246020A
:103D9000E0924702F09248027AC60E94C69B0E94B7
:103DA000238F0E943EC20E949C2F68EE73E080E049
:103DB00090E00E94DD2E60E08DEF95E00E94B6D588
:103DC00066C68091FA028F7D80618093FA025FC699
:103DD0008091FA028F7E80628093FA0258C683E552
:103DE0000E94ED2D882399F00E94712D20E030E093
:103DF0004AE754E40E94D5E80E94D9F060931B0181
:103E000070931C0180931D0190931E0140C6809108
:103E10005E0284FF02C00C949D2B8091600287FF9C
:103E200002C00C949D2B80916102837011F00C9460
:103E30009D2B0E943EC22BC683E50E94A42D8823A1
:103E400009F425C60E94712D20E030E04AE754E4D1
:103E50000E94D5E80E94D9F060934102709342021B
:103E6000809343029093440212C60E94AD3187FDB5
:103E70000EC690915E0294FD04C09091600297FF7F
:103E80000AC011E6C12E11E0D12E00EAE02E0AE0B0
:103E9000F02E10E009C090916102937091F7682FA5
:103EA00081E00E945C32F3C5D6018D916D010E94C4
:103EB000ED2D882309F459C0133009F04FC00E943A
:103EC000712D4B015C0120E030E040EA51E40E949A
:103ED0006FE887FF3AC0A50194016091C00A709114
:103EE000C10A8091C20A9091C30A0E9460F02B011E
:103EF0003C019B01AC016091D00A7091D10A809184
:103F0000D20A9091D30A0E94D5E86093D00A7093A8
:103F1000D10A8093D20A9093D30A6091B805709128
:103F2000B9058091BA059091BB050E9474E8A30180
:103F300092010E94D5E80E94D9F06093B805709371
:103F4000B9058093BA059093BB058092C00A909200
:103F5000C10AA092C20AB092C30A07C00E94712D82
:103F6000F701648B758B868B978B1F5FF4E0EF0EE8
:103F7000F11C143009F098CF0E94F56D88C50E949D
:103F800046C10E94FBC683C58AE395E00E940330C8
:103F900060E08AE295E00E94C98960E085E195E0F1
:103FA0000E94C98961E085EC96E20E94C98961E0BE
:103FB0008AE095E00E94C98961E08AEF94E00E945E
:103FC000C98960E081EF94E00E94C98961E087EED1
:103FD00094E00E94C98960E08DED94E00E94C98957
:103FE00060E085ED94E00E94C98960E087EC94E090
:103FF0000E94C98960E089EB94E00E94C98960E071
:104000008AEA94E00E94C98960E08CE994E00E9409
:10401000C98960E086E894E00E94C98960E085E78C
:1040200094E00E94C98960E086E694E00E94C98914
:1040300060E081E594E00E94C98961E08EE394E04C
:104040000E94C98960E081E394E00E94C98960E030
:104050008DE194E00E94C9891AC580916302909114
:104060006402009709F46CCBDC012C91222309F443
:1040700067CB60E00E9430D60AC5009163021091C0
:10408000640294E0F12C40E0915021F1F80180812C
:10409000282F2B7F213421F421812133D9F407C02B
:1040A0008035C1F4818180538A3048F013C0813457
:1040B00021F0853421F441E002C0FF24F3949801FB
:1040C0002E5F3F4F89012F5F3F4FF8018081803283
:1040D000C9F3DACF41110E942930FF2021F089E194
:1040E00094E00E940330C8010E949D32D0C40E9417
:1040F0000EC8CDC481E080937D0280937E020E9431
:1041000029C8C5C410927D0210927E020E9429C85F
:10411000BEC460E070E083E50E94B52E8C011127DB
:10412000023011053CF00E94253087EF93E00E9499
:104130000330ADC488E40E94ED2D8823A9F00E94CD
:104140003D2D6A3A71053CF06530F1E07F072CF0B7
:1041500064E071E002C06AEA70E0F801EE0FFF1F50
:10416000E35CFD4F7183608386E40E94ED2D88231C
:1041700081F00E943D2D77FD07C06F3F710529F04A
:1041800024F06FEF70E001C060E0F801E55CFD4FE6
:10419000608382E40E94ED2D882309F478C40E9494
:1041A0003D2D6530710534F0643771052CF063E7FF
:1041B00070E002C065E070E0000F111FF801E95CDB
:1041C000FD4F7183608363C40E94AD31182F87FD5A
:1041D0005EC484E40E94A42D882309F43FC00E9499
:1041E000712D6B017C0101E020E030E0A9010E940B
:1041F0006FE8811101C000E00093360220E030E05A
:10420000A901C701B6010E946FE8882339F10E9415
:10421000712D24E01202F0011124EE5CFD4F608349
:1042200071838283938320E030E0A90160913202A0
:104230007091330280913402909135020E946FE8B0
:1042400081110CC080E090E0A0EEBFE380933202C9
:1042500090933302A0933402B09335020E9472C04F
:1042600016C40E94AD3187FD12C4F1E6EF2EF1E0D5
:10427000FF2E00EA1AE0D7018D917D010E94A42D46
:10428000882359F00E94712D0E94D9F0F8016083B3
:104290007183828393830E94706C0C5F1F4FFAE0DE
:1042A000003B1F0741F7F3C30E94AD3187FDEFC309
:1042B00071E6E72E71E0F72E00EA1AE0E0EBCE2E71
:1042C000EAE0DE2ED7018D917D010E94A42D882386
:1042D00039F00E94712DF80164A375A386A397A3FA
:1042E0000C5F1F4FC016D10669F7D1C380915F02E2
:1042F00087FF02C00C94C22B809160028E7011F077
:104300000C94C22B4091D40A5091D50A6091D60AE0
:104310007091D70A87EE93E00E944B324091D80A01
:104320005091D90A6091DA0A7091DB0A84EE93E029
:104330000E944B324091DC0A5091DD0A6091DE0A06
:104340007091DF0A81EE93E00E944B328AE00E9476
:10435000FC2F9DC380915E0281FF02C00C94082C4B
:1043600080915F0281FF02C00C94082C8091600252
:104370008C7011F00C94082C8AC351E6C52E51E0C4
:10438000D52E66E2E62E62E0F62E10E0D6018D9183
:104390006D010E94A42D882351F00E94712DF70118
:1043A0006083718382839383812F0E946CC41F5F1B
:1043B000F4E0EF0EF11C133049F70C9447194090CC
:1043C000710250907202609073027090740220919A
:1043D0000301309104014091050150910601C30190
:1043E000B2010E9466EF68A379A38AA39BA3809081
:1043F000750290907602A0907702B090780220919A
:104400000701309108014091090150910A01C5014D
:10441000B4010E9466EF6CA37DA38EA39FA3C090FE
:104420007902D0907A02E0907B02F0907C02209199
:104430000B0130910C0140910D0150910E01C7010B
:10444000B6010E9466EF68A779A78AA79BA720916B
:104450000F01309110014091110150911201C301DF
:10446000B2010E9466EF2B013C01209113013091B3
:1044700014014091150150911601C501B4010E942B
:1044800066EF4B015C0120911701309118014091BA
:10449000190150911A01C701B6010E9466EF6B0124
:1044A0007C010E94293082EB93E00E94033083E577
:1044B0000E94A42D882321F00E94612D8093020187
:1044C00080910201882319F08EE692E102C086E312
:1044D00095E00E9403308AEA93E00E94033048A1ED
:1044E00059A16AA17BA184E894E20E944B324CA1BD
:1044F0005DA16EA17FA187E092E20E944B3248A5A8
:1045000059A56AA57BA580E092E20E944B328EE31A
:104510009EE10E94033082EA93E00E940330B301DF
:10452000A20184E894E20E944B32B501A40187E025
:1045300092E20E944B32B701A60180E092E20E9413
:104540004B328AE00E94FC2FA2C283E50E94ED2D2F
:10455000882309F49CC20E943D2D7093230160932F
:10456000220195C20E94AD31F82E87FD90C283E5ED
:104570000E94ED2D0F2D0F2C000C110B882369F1DB
:104580000E943D2DF801EE0FFF1FE050FF4F718399
:104590006083000F111F000F111F98012A5C3E4F0E
:1045A0007901072E000C880B990B0E9476E82AE00F
:1045B00037ED43E25CE30E94D5E8F801EE5DFD4F84
:1045C00020813181428153810E94D5E8D7016D93CA
:1045D0007D938D939C9313975AC20E94293085E452
:1045E0000E94FC2F80E38F0D0E94FC2FF801EE0F3C
:1045F000FF1FE050FF4F608171818AE993E00E94C4
:10460000A03185E20E94FC2F8AE00E94FC2F3FC26D
:1046100080E50E94A42D882309F439C260E070E08F
:1046200080E50E94B52EF82E6FEF7FEF83E50E94A4
:10463000B52E8C010196039708F029C2F7FC27C21A
:104640008F2D0E94E0D9882339F00E9425308AE21C
:1046500096E00E9403301BC20E9446C160E08F2D8D
:104660000E94F8A30F3FBFEF1B0731F00130110587
:1046700071F000E010E00DC08F2D0E94A0A331E08A
:1046800020E0892B09F030E0032F122F02C001E057
:1046900010E08F2D0E94A0A38017910709F4F7C1A5
:1046A0000E94BE32F6CF8AE50E94ED2D811106C030
:1046B00083E50E94ED2D882309F440C00E94712DEE
:1046C00020E030E040E050EC0E946FE887FF02C03D
:1046D0000C94672C0E94712D20E030E040E050E403
:1046E0000E94C6F1181614F40C94612C0E94712DCE
:1046F00020917F022695269520FF20C02091BC0A9C
:104700003091BD0A4091BE0A5091BF0A0E94D5E87F
:104710000E94D2F02091200230912102260F371FF3
:10472000309321022093200220911E0230911F021B
:10473000620F731F70931F0260931E0280916002CC
:1047400087FF02C00C946D2C80916102837011F080
:104750000C946D2C0E9429309AC164E071E083E5CD
:104760000E94B6898C0168EE73E080E50E94B689EC
:104770008938E3E19E0710F088E893E1B8010E94D0
:1047800089D585C185E40E941C64811173C080E5D0
:104790000E94A42D882351F00E94712D6093E105A1
:1047A0007093E2058093E3059093E40589E40E9409
:1047B000A42D882381F00E94712D2CEA35EC47E26C
:1047C0005EE30E94D5E86093E5057093E60580936B
:1047D000E7059093E80584E40E94A42D882381F0E6
:1047E0000E94712D2CEA35EC47E25EE30E9460F0F6
:1047F0006093E9057093EA058093EB059093EC05CF
:104800000E9429304091E1055091E2056091E30555
:104810007091E40586E993E00E944B322CEA35EC76
:1048200047E25EE36091E5057091E6058091E7055A
:104830009091E8050E9460F0AB01BC0182E993E031
:104840000E944B322CEA35EC47E25EE36091E905C9
:104850007091EA058091EB059091EC050E94D5E8F6
:10486000AB01BC018EE893E00E944B328AE00E94CB
:10487000FC2F0DC10E9425308CE793E00E9403308D
:1048800006C183E50E94A42D182F882371F00E9491
:10489000712D0E94D2F070933B0160933A0121E0A8
:1048A000672B09F020E02093D50580E50E94A42D18
:1048B000882359F020913A0130913B01232B11F0CC
:1048C0000E94612D8093D505E2C01111E0C00E94C5
:1048D000293089E693E00E9403308091D505882332
:1048E00019F08CE793E102C080E593E00E94033069
:1048F00060913A0170913B0188E593E00E94A031FC
:1049000084E593E00E940330C2C00E94767FBFC05E
:104910009091800290FD02C087E001C086E091FD89
:104920008D7F9E012F5F3F4F190192FD02C00C94B5
:10493000742C8B7F11F00C94A12C0DE912E04AED40
:1049400052E059A348A39BECC92E92E0D92E7901DD
:10495000F8016591759185919491A8A1B9A18D9067
:104960009D90AD90BD90B9A3A8A3A50194010E940C
:1049700065EF2B013C01F701608371838283938390
:1049800020E030E040EA51EC0E94C6F187FD0AC009
:1049900020E030E040EA51E4C301B2010E946FE838
:1049A00018162CF4F601849118160CF4CDC7D70113
:1049B0008D909D90AD90BD907D0120E030E040EA6B
:1049C00051ECC501B4010E94C6F187FDC9C720E0C2
:1049D00030E040EA51E4C501B4010E946FE81816C6
:1049E0000CF0D2C7BDC70E94FD8951C00E9415B509
:1049F0004EC061E083E50E94C82E81270E943DAD34
:104A000046C081E080931D020E945CAF10921D029F
:104A10008823E9F10E94293087EF92E00E94033059
:104A200036C08091661182FF32C080648093661127
:104A30002EC081E08093280110921C0260E083E583
:104A40000E94C82E811123C00E94688720C00E9446
:104A50000E641DC00091FB021091FC020023B9F00E
:104A60000E94293084E50E94FC2FB8017727072E89
:104A7000000C880B990B0E94843180E20E94FC2F6D
:104A80008CE793E00E94033002C00E940E640E94F3
:104A900058872196FFAD2197F093FE02ABC711E036
:104AA00022E02216310409F010E020E030E0A901F4
:104AB000C701B6010E946FE8881F8827881F181356
:104AC000A4C020E030E040E85FE328A739A74AA768
:104AD0005BA728A139A14AA15BA1C501B4010E942D
:104AE00065EF20E030E040E05FE30E94D5E868A396
:104AF00079A38AA39BA32CA13DA14EA15FA1C301D1
:104B0000B2010E9465EF20E030E040E05FE30E94E8
:104B1000D5E86CA37DA38EA39FA328A139A14AA1A8
:104B20005BA1CA01B9010E94D5E84B015C012CA12F
:104B30003DA14EA15FA1CA01B9010E94D5E89B0128
:104B4000AC01C501B4010E9466EF0E9414F24B0152
:104B50005C019B01AC01C701B6010E9465EF2B010E
:104B60003C01A5019401C701B6010E9466EF9B01BB
:104B7000AC01C301B2010E94D5E86B017C0120E0C9
:104B800030E0A9010E94C6F187FD07C0C701B60148
:104B90000E9414F22B013C0103C0412C512C320124
:104BA0006CA17DA18EA19FA19058A50194010E94A6
:104BB00060F028A539A54AA55BA50E94D5E8A30108
:104BC00092010E94D5E828A139A14AA15BA10E94C7
:104BD00066EF6B017C01A501940168A179A18AA10E
:104BE0009BA10E9460F028A539A54AA55BA50E945B
:104BF000D5E8A30192010E94D5E82CA13DA14EA1C8
:104C00005FA10E9466EF0C946C1880E090E0A0E831
:104C1000BFEB88A799A7AAA7BBA75BCF0E942530A7
:104C200081E097E00E94033032CF20E030E0A9011C
:104C3000C701B6010E946FE8882381F318A619A660
:104C40001AA61BA6A7019601505828A339A34AA368
:104C50005BA388A599A5AAA5BBA5B0588CA39DA3C5
:104C6000AEA3BFA3CA01B9010E94D5E84B015C0104
:104C70002CA13DA14EA15FA1CA01B9010E94D5E8B6
:104C80009B01AC01C501B4010E9466EF0E9414F2C1
:104C90006CAF7DAF8EAF9FAF2091DA023091DB0217
:104CA0004091DC025091DD0228AB39AB4AAB5BABE3
:104CB000A701960168A979A98AA99BA90E9466EF14
:104CC00025966CAF7DAF8EAF9FAF25978091DE02AA
:104CD0009091DF02A091E002B091E1028CA79DA724
:104CE000AEA7BFA728A539A54AA55BA5BC01CD01E4
:104CF0000E9466EF29966CAF7DAF8EAF9FAF29976C
:104D00002091EA023091EB024091EC025091ED02C9
:104D10002CAB3DAB4EAB5FAB25962CAD3DAD4EAD58
:104D20005FAD25976CA97DA98EA99FA90E9465EF0B
:104D30006B017C018091EE029091EF02A091F00254
:104D4000B091F10288AF99AFAAAFBBAF29962CAD55
:104D50003DAD4EAD5FAD2997BC01CD010E9465EF21
:104D60004B015C01A701960168A179A18AA19BA1D1
:104D70000E94D5E82B013C01A50194016CA17DA105
:104D80008EA19FA10E94D5E89B01AC01C301B20195
:104D90000E9466EF2B013C01A501940168A179A155
:104DA0008AA19BA10E94D5E84B015C01A701960155
:104DB0006CA17DA18EA19FA10E94D5E89B01AC01B1
:104DC000C501B4010E9465EFA30192010E94E5EFC5
:104DD0006B017C0120E030E0A9010E946FE887FFB1
:104DE0000AC02BED3FE049EC50E4C701B6010E9438
:104DF00066EF6B017C012BED3FE049EC50E4C7010D
:104E0000B6010E9460F020E030E040EC51E40E94E6
:104E1000D5E80E9444F00E94D9F08B01672B11F471
:104E200001E010E032E02316310451F42BED3FE0B5
:104E300049EC50E4C701B6010E9465EF6B017C01AB
:104E400020E030E0A901C701B6010E946FE881119E
:104E500022C02CA93DA94EA95FA968A979A98AA950
:104E60009BA90E946FE8811116C028AD39AD4AADEB
:104E70005BAD6CA57DA58EA59FA50E946FE88111F5
:104E80000AC008E110E0EBEDCE2EEFE0DE2EE9ECFB
:104E9000EE2EE0E4FE2E8091E2029091E302A091DA
:104EA000E402B091E5028CA79DA7AEA7BFA79C0125
:104EB000AD016091F2027091F3028091F402909141
:104EC000F5020E9465EF4B015C01A70196016CADF4
:104ED0007DAD8EAD9FAD0E94D5E82B013C0120E059
:104EE00030E0A901C501B4010E946FE88823C9F030
:104EF000A3019201C301B2010E94D5E82B013C013C
:104F0000A5019401C501B4010E94D5E89B01AC0143
:104F1000C301B2010E9466EF0E9414F22B013C0112
:104F20000DC020E030E0A901C301B2010E94C6F12A
:104F300087FF04C077FA709477F870942FE632E117
:104F400043E85AE3C301B2010E946FE887FDF1C153
:104F50002091E6023091E7024091E8025091E90287
:104F60002CAB3DAB4EAB5FABC301B2010E9408F16D
:104F70000E94D9F01B016017710708F41801B101F4
:104F800080E090E00E9474E82B013C019B01AC01A1
:104F9000C701B6010E9460F068AB79AB8AAB9BABEE
:104FA000A3019201C501B4010E9460F02D966CAF7F
:104FB0007DAF8EAF9FAF2D972CA93DA94EA95FA9BC
:104FC0006091F6027091F7028091F8029091F902D7
:104FD0000E9465EFA30192010E9460F061966CAFA0
:104FE0007DAF8EAF9FAF619728A939A94AA95BA968
:104FF000CA01B9010E94D5E820E030E040E05FE35B
:105000000E94D5E89B01AC0160E070E080E89FE37E
:105010000E9465EF68AF79AF8AAF9BAF8CA59DA565
:10502000AEA5BFA589879A87AB87BC872CA93DA968
:105030004EA95FA92D873E874F87588B2AE037ED11
:1050400043E25CE360912401709125018091260187
:10505000909127010E94D5E86B017C0160912201AB
:1050600070912301072E000C880B990B0E9476E8A3
:105070009B01AC01C701B6010E94D5E86C8F7D8F02
:105080008E8F9F8F0E944C469B01AC0128533F4F4F
:105090004F4F5F4F2CAF3DAF4EAF5FAF48A059A011
:1050A0006AA07BA041E050E05DA74CA759E15CAB52
:1050B0008CA59DA58215930508F00FC10E94479D00
:1050C0000E944C46DC01CB012CAD3DAD4EAD5FAD39
:1050D000821B930BA40BB50BB7FD0EC00E944C4670
:1050E0009B01AC0128533F4F4F4F5F4F2CAF3DAF5B
:1050F0004EAF5FAF0E94BE323CA931503CAB332370
:10510000E9F12CA13DA14EA15FA168AD79AD8AADB9
:105110009BAD0E94D5E86B017C019201A30168A9B7
:1051200079A98AA99BA90E94D5E8A70196010E94A6
:1051300066EF7B018C019201A30168AD79AD8AAD68
:105140009BAD0E94D5E84B015C012CA13DA14EA175
:105150005FA168A979A98AA99BA90E94D5E89B01AA
:10516000AC01C501B4010E9465EF2B013C01C701F0
:10517000D8018CA39DA3AEA3BFA34FC04CA55DA532
:10518000BA0180E090E00E9474E828A939A94AA9F0
:105190005BA90E94D5E84B015C010E945BF06B01AA
:1051A0007C01C501B4010E9406F24B015C01A7011C
:1051B000960168A179A18AA19BA10E94D5E82B0143
:1051C0003C0128A539A54AA55BA5C501B4010E94EB
:1051D000D5E8A30192010E9466EF2B013C01A501D5
:1051E000940168A179A18AA19BA10E94D5E84B01F5
:1051F0005C0128A539A54AA55BA5C701B6010E9497
:10520000D5E89B01AC01C501B4010E9465EF6CA318
:105210007DA38EA39FA359E15CAB9201A3012596C8
:105220006CAD7DAD8EAD9FAD25970E9466EF698315
:105230007A838B839C832CA13DA14EA15FA12996EB
:105240006CAD7DAD8EAD9FAD29970E9466EF6D83ED
:105250007E838F8398872D962CAD3DAD4EAD5FAD8F
:105260002D9769857A858B859C850E9466EF698775
:105270007A878B879C8761962CAD3DAD4EAD5FAD37
:1052800061976D857E858F8598890E9466EF6D8711
:105290007E878F87988BCE0101960E948CC4C12C8B
:1052A000D12C70E8E72E7FE3F72E8E01045E1F4FAE
:1052B0009E01235F3F4FAE01475F5F4FBE016B5FB3
:1052C0007F4FCE0101960E944763882331F08CA561
:1052D0009DA501969DA78CA7EBCE80E1EAEEF2E0BA
:1052E000DE01119601900D928A95E1F7CE010196AB
:1052F0000E948CC4C12CD12C60E8E62E6FE3F62E00
:105300008E01045E1F4F9E01235F3F4FAE01475F3A
:105310005F4FBE016B5F7F4FCE0101960E944763D6
:1053200080E1FE013196AAEDB2E001900D928A95DE
:10533000E1F70E944C466093D6027093D7028093A7
:10534000D8029093D902A3CB0E9446C18091240138
:1053500090912501A0912601B0912701809301032E
:1053600090930203A0930303B0930403809122015E
:1053700090912301909300038093FF0284E690E0D4
:10538000909323018093220181E080937D020E940B
:1053900029C888E50E94A42DB82E89E50E94A42D75
:1053A000182F8AE50E94A42DB1127BC1B81611F006
:1053B0003B2C78C133243394BB24B39491E098A759
:1053C00080E1EAEDF2E0AAEEB2E001900D928A955A
:1053D000E1F782E50E94ED2D882369F00E94712D8E
:1053E0006B017C0120E030E0A9010E946FE8882376
:1053F00009F451C006C0C12CD12C50EAE52E50E46E
:10540000F52EB11003C0332009F421C180917F0231
:1054100082FD09C06091E2027091E3028091E40292
:105420009091E50203C060E070E0CB01A701960116
:105430000E9466EF2B013C016093F2027093F3022D
:105440008093F4029093F5022091E2023091E302FE
:105450004091E4025091E5020E94C6F11816DCF476
:1054600019821A821B821C822091DE023091DF0297
:105470004091E0025091E1026091DA027091DB020A
:105480008091DC029091DD02DE0111966D018301B5
:1054900072010E9429C5BB2009F4D4C0332009F44D
:1054A000CEC01092DA021092DB021092DC0210924F
:1054B000DD021092DE021092DF021092E0021092E2
:1054C000E1020E94E8C5EBECF2E0B491BCA7E9EA86
:1054D000F2E0C590D590E590F490EDEAF2E0859089
:1054E0009590A590B490A5019401C701B6010E94C2
:1054F000C6F118162CF4A7019601C501B40104C029
:10550000A5019401C701B6010E9460F02B013C0186
:10551000E3ECF2E0259135914591549128A339A30C
:105520004AA35BA3EFEBF2E085919591A591B4912D
:105530008CA39DA3AEA3BFA39C01AD0168A179A1DB
:105540008AA19BA10E94C6F1181634F42CA09DA13B
:1055500098AB0EA11FA105C028A0A9A1A8AB0AA1C4
:105560001BA1A3019201C301B2010E94D5E820E072
:1055700030E040E85FE30E9466EF0E9414F2222DC3
:1055800038A9A8010E94D5E869837A838B839C831C
:10559000ECECF2E014914090E2025090E302609053
:1055A000E4027090E50220E030E040EC5FE3C501EA
:1055B000B4010E94D5E84B015C01612F110F770BFC
:1055C000880B990B0E9476E89B01AC01C501B401E0
:1055D0000E94D5E84B015C0120E030E040EC5FE345
:1055E000C701B6010E94D5E86B017C01BCA56B2FF9
:1055F000BB0F770B880B990B0E9476E89B01AC01DF
:10560000C701B6010E94D5E8FE0131966F01830102
:105610007201A50194010E9429C50E943FAC10921D
:10562000DA021092DB021092DC021092DD0210927C
:10563000DE021092DF021092E0021092E10280E09E
:105640000E942AC6332019F081E00E942AC6F8A5DC
:10565000FF2319F082E00E942AC60E94E8C58091CB
:105660007E0280937D028091010390910203A091BC
:105670000303B09104038093240190932501A09328
:105680002601B09327018091FF029091000390932F
:1056900023018093220183E0809321010E94FBC6B5
:1056A000F6C9312E88A78CCE11110C94281B0C94AE
:1056B000211B0E94BE320C944A1B88E50E94A42D37
:1056C00081115E9889E50E94A42D81115E988AE57A
:1056D0000E94A42D882309F4DAC91598D8C960E07E
:1056E0008CED96E00E94B6D55E985E9815985E980F
:1056F000CEC90E943D2DAB01BC0140936211509375
:105700006311609364117093651180E59FE00E94BE
:105710007578BDC961E0802F0E94F8A36F2D802F9E
:105720000E94C9A36F2D70E0802F0E94A04594E0D5
:10573000E912ADC9F092C405AAC90E9446C188E524
:105740000E94A42D882331F05E9A80917F028E7F83
:1057500080937F0289E50E94A42D882331F05E9A10
:1057600080917F028D7F80937F028AE50E94A42D25
:10577000882309F48CC9159A80917F028B7F8093CE
:105780007F0285C983E50E94ED2D882391F00E9458
:10579000712D6093D40A7093D50A8093D60A9093A2
:1057A000D70A6093DC0A7093DD0A8093DE0A909337
:1057B000DF0A80E50E94ED2D882351F00E94712DB3
:1057C0006093D40A7093D50A8093D60A9093D70A2F
:1057D00082E50E94ED2D882351F00E94712D609387
:1057E000D80A7093D90A8093DA0A9093DB0A84E589
:1057F0000E94ED2D882309F44AC90E94712D6093FF
:10580000DC0A7093DD0A8093DE0A9093DF0A3FC9B9
:1058100082E40E94A42D882351F00E942D2D6093D4
:10582000B00A7093B10A8093B20A9093B30A83E5E9
:105830000E94A42D882351F00E94712D6093E00AEC
:105840007093E10A8093E20A9093E30A84E50E9450
:10585000A42D882351F00E94712D6093E40A709367
:10586000E50A8093E60A9093E70A8AE40E94A42D51
:10587000882309F40CC90E94712D6B017C012AE078
:1058800037ED43E25CE30E94C6F187FD13C02AE9CD
:1058900039E949E95EE3C701B6010E946FE81816CD
:1058A0004CF0C092A805D092A905E092AA05F0920A
:1058B000AB05EDC80E94253082EC93E00E940330D6
:1058C000E6C860E070E080E090E40C94782360E04B
:1058D00070E080E090EC0C94782382E50E94A42D87
:1058E00081110C94AA23D3C82DEF31E081FF03C0AE
:1058F0004FEF51E002C043E152E080FF03C081E07E
:1059000092E002C083E192E03F932F935F934F9325
:105910009F938F9382E093E09F938F933F922F9278
:105920000E9407E80E942930C1010E949D3260E078
:10593000C1010E9430D60FB6F894DEBF0FBECDBFB6
:10594000A6C823E132E0D2CFB7FAB094B7F8B0944A
:10595000D7018D929D92AD92BC9213970C94D7244F
:105960000E94253082E393E00E94033061E084E2EC
:1059700093E00E94B6D50E943CA968E270E088ECF2
:1059800090E00E9489D583C80C5F1F4FBFEFCB1AF0
:10599000DB0AE2E0093A1E0711F00C94A82486E223
:1059A000E82E82E0F82E10E0F10181919191A19111
:1059B000B1911F01F70181939193A193B1937F015D
:1059C000812F0E946CC41F5F133071F70E94FBC6C9
:1059D00060E084E193E00E94B6D563E972E084E67A
:1059E00090E00E9489D56AEB72E084E690E00E9424
:1059F00089D54DC8C05BDF4F0FB6F894DEBF0FBE30
:105A0000CDBFDF91CF911F910F91FF90EF90DF906D
:105A1000CF90BF90AF909F908F907F906F905F904E
:105A20004F903F902F900895282F8091FA022330B5
:105A300021F485FD0EC084FD0EC090E0A0E0B0E032
:105A400004C0B695A795979587952A95D2F781704A
:105A5000089581E0089580E00895809189039091F0
:105A60008A03009731F04AE050E060E070E00C9467
:105A700097E660E070E0CB010895809189039091F2
:105A80008A03009731F04AE050E060E070E00C9447
:105A900069E560E070E0CB0108950E943D2D97FD1F
:105AA0000CC00E943D2D6F3F71058105910509F0E5
:105AB00034F40E943D2D862F089580E008958FEFE5
:105AC00008958091890390918A03892B39F00E946F
:105AD0004D2D91E0811103C090E001C091E0892F2C
