:100000000C9492150C94BC150C94BC150C94BC1556
:100010000C94BC150C94BC150C94BC150C94BC151C
:100020000C94BC150C94BC150C94BC150C94BC150C
:100030000C94BC150C94363F0C94BC150C94BC1558
:100040000C94BC150C94B2AF0C94C0360C94BC1537
:100050000C9442350C9438350C94BC150C94BC159A
:100060000C94BC150C94BC150C94BC150C94BC15CC
:100070000C94BC150C94BC150C94BC150C94BC15BC
:100080000C94BC150C94BC150C94BC152F3634364E
:1000900039364336713671364D3655365D366736EC
:1000A000378A3A8A2D8A318A518A518A3E8A428A0F
:1000B000488A4C8A79B938B86FB8B5B96FB86FB893
:1000C0006FB86FB86FB86FB86FB86FB86FB86FB8F8
:1000D0006FB86FB86FB86FB86FB86FB86FB86FB8E8
:1000E0006FB86FB86FB86FB86FB86FB86FB86FB8D8
:1000F000AFB96FB86FB86FB86FB86FB86FB86FB887
:100100006FB888B96FB86FB86FB86FB86FB86FB89D
:100110006FB86FB86FB86FB8CCB96CB8084AD73B36
:100120003BCE016E84BCBFFDC12F3D6C74319ABDC6
:1001300056833DDA3D00C77F11BED9E4BB4C3E91EA
:100140006BAAAABE000000803F05A84CCDB2D44ED9
:10015000B93836A9020C50B9918688083CA6AAAADB
:100160002ABE000000803F004E414E494E4954597E
:10017000494E46CDCCCC3D0AD7233C17B7D1387772
:10018000CC2B329595E6241FB14F0A000020410088
:1001900000C84200401C4620BCBE4CCA1B0E5AAED2
:1001A000C59D7400407A10F35A00A0724E180900E1
:1001B00010A5D4E80000E87648170000E40B5402CC
:1001C0000000CA9A3B000000E1F505000080969807
:1001D00000000040420F000000A086010000001057
:1001E0002700000000E80300000000640000000099
:1001F000000A00000000000100000000002C76D87A
:1002000088DC674F0823DFC1DFAE59E1B1B796E55F
:10021000E3E453C63AE651997696E8E6C28426EBC3
:10022000898C9B62ED407C6FFCEFBC9C9F40F2BAD6
:10023000A56FA5F490055A2AF75C936B6CF9676D6E
:10024000C11BFCE0E40D47FEF520E6B500D0ED90C3
:100250002E0300943577050080841E080000204E90
:100260000A000000C80C333333330F986E12831129
:1002700041EF8D2114893BE65516CFFEE6DB18D100
:10028000844B381BF77C1D901DA4BBE424203284D2
:10029000725E228100C9F124ECA1E53D27434F4D58
:1002A0004D554E49434154494F4E004452595255C1
:1002B0004E004552524F525300494E464F0045435F
:1002C000484F0047322F47332062616420706172CB
:1002D000616D65746572730A00536C6565702E2ECE
:1002E0002E004D65736820706F696E742063616EB7
:1002F0006E6F74206265207265736F6C7665640A38
:1003000000436C69636B20746F20526573756D6573
:100310002E2E2E004E6F204D6F76652E00456E649A
:100320002066696C65206C6973740A0042656769B0
:100330006E2066696C65206C6973740A00286E6FA4
:100340002066696C65290043757272656E7420665B
:10035000696C653A20005344207072696E74696E4E
:1003600067206279746520004E6F742053442070BA
:1003700072696E74696E670A0044656C6574696FB2
:100380006E206661696C65642C2046696C653A2054
:100390000046696C652064656C657465643A002587
:1003A000697920256964202569682025696D2025E3
:1003B0006973005072696E742074696D653A20002B
:1003C0006F66660044454255473A004D3131322050
:1003D00053687574646F776E004D3131332053006C
:1003E000456E6465722D33204F46462E00204D39F0
:1003F000322058004348414D4245525F54454D50CC
:1004000045524154555245004D4F54494F4E5F4D52
:100410004F44455300544845524D414C5F50524F54
:1004200054454354494F4E004155544F5245504F47
:1004300052545F53445F5354415455530050524FEC
:100440004D50545F535550504F525400454D4552F6
:1004500047454E43595F5041525345520043415323
:10046000455F4C494748545F4252494748544E45BE
:10047000535300544F47474C455F4C4947485453EA
:1004800000534F4654574152455F504F5745520015
:100490004255494C445F50455243454E54004C45EB
:1004A00056454C494E475F44415441005A5F5052B3
:1004B0004F4245004155544F4C4556454C00505213
:1004C000494E545F4A4F420050524F475245535392
:1004D000004155544F5245504F52545F54454D5072
:1004E00000564F4C554D45545249430042494E41E8
:1004F00052595F46494C455F5452414E534645520E
:100500000053455249414C5F584F4E5F584F464645
:10051000004649524D574152455F4E414D453A4D77
:1005200061726C696E20322E302E3120284769743A
:100530004875622920534F555243455F434F444508
:100540005F55524C3A68747470733A2F2F67697410
:100550006875622E636F6D2F4D61726C696E4669AE
:10056000726D776172652F4D61726C696E205052A9
:100570004F544F434F4C5F56455253494F4E3A31BB
:100580002E30204D414348494E455F545950453A1D
:10059000456E6465722D332045585452554445527A
:1005A0005F434F554E543A3120555549443A63659F
:1005B0006465326132662D343161322D343734381E
:1005C0002D396231322D6335356336326633363735
:1005D00066660A002F2F20004D31343520533C69C8
:1005E0006E6465783E206F7574206F662072616E50
:1005F00067652028302D31290A0020540020520040
:10060000416363656C65726174696F6E3A20500076
:100610003F4A206F7574206F662072616E67652097
:1006200028302E303120746F20302E33290A0020DC
:10063000204D61783A200020204D696E3A20005309
:100640006F667420656E6473746F70733A20002057
:10065000466C6F773A200050726F746563746564FE
:100660002050696E0A004D424C2041646A757374D3
:10067000205A00496E76616C6964206578747275E1
:100680006465720A0020643A0020693A0020703ADA
:10069000006469730043290A0061626C6564202864
:1006A0006D696E2074656D702000436F6C64206509
:1006B000787472756465732061726520004D343200
:1006C0003120696E636F727265637420706172614C
:1006D0006D657465722075736167650A00486F6D9A
:1006E0006520257325732573204669727374004F46
:1006F000666673657473204170706C69656400454B
:1007000072723A20546F6F206661722100546F6FCD
:10071000206661722066726F6D2072656665726513
:100720006E636520706F696E740A00454550524FC4
:100730004D204F4B0A00BE02B902B202AB029D022D
:100740004572726F722077726974696E6720746F78
:1007500020454550524F4D210A00627573793A2069
:1007600070617573656420666F7220696E70757450
:100770000A00627573793A2070617573656420664A
:100780006F7220757365720A00627573793A207012
:10079000726F63657373696E670A0053544F5050EC
:1007A00045442E20005072696E7465722073746F18
:1007B000707065642064756520746F206572726F57
:1007C00072732E2046697820746865206572726F96
:1007D0007220616E6420757365204D39393920743B
:1007E0006F20726573746172742E202854656D7069
:1007F00065726174757265206973207265736574C2
:100800002E205365742069742061667465722072AD
:10081000657374617274696E67290A004E6F2043B4
:100820006865636B73756D2077697468206C696E99
:1008300065206E756D6265722C204C617374204C5E
:10084000696E653A2000636865636B73756D206D32
:1008500069736D617463682C204C617374204C69FA
:100860006E653A20004C696E65204E756D6265724A
:10087000206973206E6F74204C617374204C696E14
:1008800065204E756D6265722B312C204C6173743E
:10089000204C696E653A20004D313130004D3131C8
:1008A00037004D3331005344207265616420657216
:1008B000726F720A00446F6E65207072696E74699F
:1008C0006E672066696C650A002121204B494C4CFB
:1008D0002063617573656420627920746F6F206D89
:1008E00075636820696E6163746976652074696DEB
:1008F00065202D2063757272656E7420636F6D6D57
:10090000616E643A2000506C6561736520526573B6
:100910006574005052494E5445522048414C54454C
:10092000440025533A202553004B494C4C45442E56
:1009300020005072696E7465722068616C74656421
:100940002E206B696C6C28292063616C6C656421B6
:100950000A000F150E1216170E1303021A140100C7
:100960000E0C190DFF180C040001FFFFFFFFFFFF25
:10097000FFFFFFFFFFFFFFFFFFFFFFFFFFFFFFFF87
:10098000FFFFFFFFFFFFFFFFFFFFFFFFFFFFFFFF77
:10099000FFFFFFFFF3FFFFFFFFFFFFFFFFFFFFFF73
:1009A000FFFFFFFFE7FFFFFFFFFFFFFFFFFFFFFF6F
:1009B000FFFFFFFFCFFFFFFFFFFFFFFFFFFFFFFF77
:1009C000FFFFFFFF8FFFFFFFFFFFFFFFFFFFFFFFA7
:1009D000FFFFFFFE1FFFFFFFFFFFFFFFFFFFFFFF08
:1009E000FFFFFFFC1FFFFFFFFFFFFFFFFFFFFFFFFA
:1009F000FFFFFFFF3FFFFFFFFFFFFFFFFFFFFFFFC7
:100A0000FFFFFFFE77FFFFFFFFFFFFFFFFFF00007D
:100A10000E00007E67FFFFFFFFFFFFFFFFFE0000ED
:100A20000C00007CC7FFFFFFFFFFFFFFFFFFE000A0
:100A3000FF8003F9CFFFFFFFFFFFFFFFFFFFF00184
:100A4000FFC01FF99FFFFFFFFFFFFFFFFFFFF80140
:100A5000FFE03FF39FFFFFFFFFFFFFFFFFFFF801F6
:100A6000FFE0FFF33FFFFFFFFFFFFFFFFFFFF80186
:100A7000FFE1FFE63FFFFFFFFFFFFFFFFFFFF80182
:100A8000FFC3FFCE7FFFFFFFFFFFFFFFFFFFF80366
:100A9000FFC7FFCC7FFFFFFFFFFFFFFFFFFFF80354
:100AA000FF8FFF9C03FFFFFFFFFFFFFFFFFFF80328
:100AB000FF3FFF9800FC7FFFFFFFFFFFFFFFF803F2
:100AC000FE7FFF307E007FFFFFFFFFFFFFFFF80389
:100AD000FC7FFE30FF807FFFFFFFFFFFFFFFF8037B
:100AE000F87FFE61FFC07FFFFFFFFFFFFFFFF803FE
:100AF000E03FFCE3FFE07FFFFFFFFFFFFFFFF803A6
:100B0000C03FFCC3FFE07FFFFFFFFFFFFFFFF803D5
:100B1000801FF9C7FFF07FFFFFFFFFFFFFFFF80314
:100B2000000FF987FFF87FFFFFFFFFFFFFFFF800CF
:100B3000000FF307FFFC7FFFFFFFFFFFFFFFF80041
:100B40000007E707FFFC7FFFFFFFFFFFFFFFF80144
:100B5000C003E607FFFE7FFFFFFFFFFFFFFFF80177
:100B6000E003CE07FFFE7FFFFFFFFFFFFFFFF8035D
:100B7000E001CC0FFFFFFFFFFFFFFFFFFFFFF803C8
:100B8000F000980FFFFFFFFFFFFFFFFFFFFFF803DD
:100B9000F000180FFFFFFFFFFFFFFFFFFFFFF8034D
:100BA000F800300FFFFFFFFFFFFFFFFFFFFFF8031D
:100BB000FC00700FE00000FFFFFFFFFFFFFFF803E6
:100BC000FC00600FE00000FFFFFFFFFFFFFFF803E6
:100BD000FE00C00FFE000FFFFFFFFFFFFFFFF80149
:100BE000FF00C00FFF001FFFFFFFFFFFFFFFF80127
:100BF000FF018007FF801FFFFFFFFFFFFFFFF001E6
:100C0000FF838007FF801FFFFFFFFFFFFFFE000045
:100C10001C030007FF801FFFFFFFFFFFFFFE000018
:100C200018066007FF801FFFFFFFFFFFFFFFFFFFAA
:100C3000FFC67007FF803FFFFFFFFFFFFFFFFFFFC3
:100C4000FFCCF007FF803FFFFFFFFFFFFFFFFFFF2D
:100C5000FF9CF803FF003FFFFFFFFFFFFFFFFFFFC9
:100C6000FF99F803FF003FFFFFFFFFFFFFFFFFFFBC
:100C7000FF31FC01FF001FFFFFFFFFFFFFFFFFFF32
:100C8000FF33FE01FF001FFFFFFFFFFFFFFFFFFF1E
:100C9000FE67FF00FE001FFFFFFFFFFFFFFFFFFFDC
:100CA000FCE7FFC03C0E1FFFFFFFFFFFFFFFFFFF42
:100CB000FCCFFFF001FFBFFFFFFFFFFFFFFFFFFFC4
:100CC000F98FFFFF1FFFFFFFFFFFFFFFFFFFFFFF8A
:100CD000FF9FFFFFFFFFFFFFFFFFFFFFFFFFFFFF84
:100CE000FF0FFFFFFFFFFFFFFFFFFFFFFFFFFFFF04
:100CF000FF0FFFFFFFFFFFFFFFFFFFFFFFFFFFFFF4
:100D0000FE1FFFFFFFFFFFFFFFFFFFFFFFFFFFFFD4
:100D1000FE7FFFFFFFFFFFFFFFFFFFFFFFFFFFFF64
:100D2000FCFFFFFFFFFFFFFFFFFFFFFFFFFFFFFFD6
:100D3000F9FFFFFFFFFFFFFFFFFFFFFFFFFFFFFFC9
:100D4000F3FFFFFFFFFFFFFFFFFFFFFFFFFFFFFFBF
:100D5000FFFFFFFFFFFFFFFFFFFFFFFFFFFFFFFFA3
:100D6000FFFFFFFFFFFFFFFFFFFF2020506C616EC2
:100D70006E657242756666657242797465733A2073
:100D8000002046726565204D656D6F72793A2000CE
:100D9000436F6D70696C65643A204A616E2031362C
:100DA00020323032300A00204C6173742055706458
:100DB000617465643A20323031392D31322D32344C
:100DC000207C20417574686F723A20284B617370E3
:100DD000657247332C20456E6465722D33290A00F5
:100DE000322E302E310A004D61726C696E00205334
:100DF0006F6674776172652052657365740A0020AE
:100E00005761746368646F672052657365740A0084
:100E10002042726F776E206F75742052657365740F
:100E20000A002045787465726E616C2052657365A6
:100E3000740A00506F77657255700A006175746F9F
:100E400025632E67004732385859006572726F72F9
:100E50002077726974696E6720746F2066696C65AB
:100E60000A00446F6E6520736176696E672066695B
:100E70006C652E0A004D323900456E6473746F70D4
:100E800073002553202563202563202563202563D7
:100E900000205A3A0020593A00656E6473746F70EE
:100EA00073206869743A200046696C2E2044696199
:100EB0002E004520696E206D6DC2B3004D33303376
:100EC000205531204525692053256900504944208B
:100ED0004175746F74756E65202A005049442D4425
:100EE000202A005049442D49202A005049442D50C1
:100EF000202A0020082046616374002008204D61EC
:100F000078002008204D696E004175746F74656D1E
:100F1000700024F4D43050C38E20C2A24017828BBC
:100F20007011127A910D816CD90AA861E108C75835
:100F30006607615143061E4B5D05C145A7041A4172
:100F40001104093D9803713931034036DB026533E2
:100F50009102D4305402802E1D02632CEE01752ABA
:100F6000C501B028A001102781018F2564012B2421
:100F70004B01E0223401AC211F018D200D01801FA7
:100F8000FC00841EED00971DDF00B81CD200E61B9C
:100F9000C600201BBC00641AB200B219A8000A19CE
:100FA000A0006A189900D117910040178B00B51660
:100FB000840031167E00B31579003A157300C7140A
:100FC0006F0058146A00EE1366008813630025133F
:100FD0005E00C7125B006C12570015125400C1115D
:100FE000510070114F0021114B00D61049008D1097
:100FF00047004610440002104200C00F4000800F1E
:101000003E00420F3C00060F3B00CB0E3800930E13
:1010100037005C0E3500270E3400F30D3200C10D91
:101020003100900D3000600D2E00320D2D00050DA9
:101030002C00D90C2B00AE0C2900850C29005C0C6F
:101040002700350C27000E0C2600E80B2400C40BEB
:101050002400A00B23007D0B23005A0B2100390B29
:101060002100180B2000F80A1F00D90A1E00BB0A35
:101070001E009D0A1D00800A1D00630A1C00470A0D
:101080001B002C0A1B00110A1A00F7091A00DD09BF
:101090001900C4091900AB091900920917007B094E
:1010A0001800630917004C091600360916002009BC
:1010B00016000A091500F5081500E0081400CC0810
:1010C0001400B8081400A4081400900813007D0848
:1010D00012006B081300580812004608120034086A
:1010E0001100230811001208110001081100F00777
:1010F0001000E0071000D0071000C0071000B00774
:101100000F00A107100091070E0083070F0074075E
:101110000F0065070E0057070E0049070E003B073A
:101120000D002E070E0020070D0013070D00060707
:101130000D00F9060C00ED060D00E0060C00D406CB
:101140000C00C8060C00BC060C00B0060C00A4067F
:101150000B0099060C008D060B0082060B0077062B
:101160000B006C060B0061060A0057060B004C06CC
:101170000A0042060A0038060A002E060A00240663
:101180000A001A060A001006090007060A00FD05F3
:101190000900F4050900EB050900E2050900D9057D
:1011A0000900D0050900C7050900BE050900B505FD
:1011B0000800AD050800A50509009C050800940578
:1011C00008008C050800840508007C0508007405EB
:1011D00008006C050700650508005D050700560559
:1011E00008004E05070047050700400508003805C0
:1011F0000700310507002A050700230507001C0525
:101200000600160507000F05070008050600020581
:101210000700FB040600F5040700EE040600E804DE
:101220000600E2040700DB040600D5040600CF0434
:101230000600C9040600C3040600BD040600B70486
:101240000600B1040500AC040600A6040600A004D4
:1012500005009B04060095040500900406008A041E
:10126000050085040500800406007A040500750465
:101270000500700405006B040500660405006104A8
:1012800005005C04050057040500520405004D04E8
:10129000050048040500430405003E0404003A0428
:1012A000050035040500300404002C040500270463
:1012B0000400230405001E0404001A04040016049C
:1012C0000500110404000D040400090405000404D1
:1012D000040000040400FC030400F8030400F40309
:1012E0000400F0030400EC030400E8030400E4033A
:1012F0000400E0030400DC030400D8030400D4036A
:101300000400D0030400CC030400C8030300C50399
:10131000030024F404D9201BC40C5C0E9804C409F7
:101320005F0265077101F405F900FB04B30048048E
:101330008700C10369005803550003034500BE023E
:101340003A008402310053022A00290225000402D7
:101350002000E4011C00C8011900AF01170098012A
:10136000140084011300710110006101100051018B
:101370000E0043010D0036010B002B010B00200174
:101380000B00150109000C01090003010800FB0016
:101390000800F3000800EB000700E4000600DE0090
:1013A0000600D8000600D2000600CC000500C700E9
:1013B0000500C2000500BD000400B9000400B5002E
:1013C0000400B1000400AD000400A9000400A50061
:1013D0000300A20003009F0004009B00030098008C
:1013E00003009500020093000300900003008D00AD
:1013F00002008B00030088000200860002008400C7
:101400000300810002007F0002007D0002007B00DB
:1014100002007900020077000100760002007400EB
:10142000020072000100710002006F0002006D00F6
:1014300001006C0002006A00010069000200670000
:101440000100660001006500010064000200620006
:10145000010061000100600001005F0002005D000A
:1014600001005C0001005B0001005A00010059000E
:10147000010058000100570001005600010055000E
:10148000010054000100530000005300010052000D
:10149000010051000100500001004F0001004E000A
:1014A00000004E0001004D0001004C0001004B0007
:1014B00000004B0001004A00010049000100480003
:1014C00000004800010047000100460000004600FF
:1014D00001004500000045000100440001004300F8
:1014E00000004300010042000000420001004100F2
:1014F000000041000100400001003F0000003F00EB
:1015000001003E0000003E0001003D0000003D00E3
:1015100001003C0000003C0000003C0001003B00DA
:1015200000003B0001003A0000003A0001003900D1
:1015300000003900010038000000380000003800C9
:1015400001003700000037000100360000003600BF
:1015500000003600010035000000350000003500B5
:1015600001003400000034000000340001003300AA
:1015700000003300000033000100320000003200A0
:101580000000320001003100000031000000310095
:1015900001003000000030000000300001002F008A
:1015A00000002F0000002F0000002F0001002E007F
:1015B00000002E0000002E0001002D0000002D0074
:1015C00000002D0000002D0001002C0000002C0068
:1015D00000002C0000002C0001002B0000002B005C
:1015E00000002B0000002B0001002A0000002A0050
:1015F00000002A0000002A00010029000000290044
:101600000000290000002900000029000100280036
:10161000000028000000280000002800000028002A
:10162000010027000000270000002700000027001D
:101630000000270001002600000026000000260010
:101640000000260000002600010025000000250003
:1016500000002500000025000000250000002500F6
:1016600001002400000024000000240000002400E9
:1016700000002400010023000000230000002300DC
:1016800000002300000023000000230000002300CE
:1016900001002200000022000000220000002200C1
:1016A00000002200000022000100210000002100B3
:1016B00000002100000021000000210000002100A6
:1016C0000000210001002000000020000000200098
:1016D000000020000000200000002000000020008A
:1016E0000000200001001F0000001F0000001F007C
:1016F00000001F0000001F0000001F0000001F006E
:1017000001001E0000001E0000001E0000001E0060
:101710000000043700001E290000511B0000581073
:10172000000010090000CC04000078020000410114
:1017300000004F6666004F6E00416476616E63651F
:10174000642053657474696E67730047323920539F
:101750003100436C69636B20746F20426567696E6A
:1017600000486F6D696E672058595A0053746F7244
:10177000652053657474696E6773004C6F616420F3
:1017800053657474696E67730046616465204865CB
:1017900069676874004C6576656C20426564005228
:1017A0006573746F7265206661696C73616665004C
:1017B000507265686561742041425320436F6E66C4
:1017C000005072656865617420504C4120436F6E13
:1017D0006600313235004245443A4550434F53206C
:1017E0003130304B0052756E6177617920576174EA
:1017F00063683A204F4E004D61782054656D70004B
:10180000323735004D696E2054656D700045313AB0
:10181000204550434F53203130304B00505355003A
:1018200047656E657269630050726F746F636F6CA9
:1018300000312E3000426175640031313532303074
:10184000004D656C7A692028437265616C69747912
:1018500029004D657368204C6576656C696E67007C
:1018600045787472756465727300687474703A2F89
:101870002F6D61726C696E66772E6F726700456EB0
:101880006465722D3300323031392D31322D3234CE
:1018900000322E302E310020746F6F206C6F6E6717
:1018A00020657874727573696F6E207072657665E5
:1018B0006E7465640A0020636F6C642065787472CE
:1018C0007573696F6E2070726576656E7465640AF3
:1018D000007C3C3E5E2B3D3F2F5B5D3B2C2A225C17
:1018E000001FE020102010201010201020201020B9
:1018F0001030300840048003001FE03FF03FF03F0D
:10190000F01FE01FE03FF03FF03FF00FC007800303
:10191000003FFFF038007030FC3020FC10207810C1
:101920002030102C00D02E31D02F7BD02F7BD02E0A
:1019300031D02C00D020301020781020FC1030FC4A
:10194000303800703FFFF03FFFF0380070318630D4
:101950002387102787902F87D02F03D02030102087
:1019600078102078102030102F03D02F87D02787B1
:10197000902387103186303800703FFFF01FFFF84A
:101980001FFFF8041040020820020820041040083D
:101990002080104100104100082080041040000009
:1019A000001FFFF81FFFF8F80180000C48008000BE
:1019B0001243C38CD00271249267CC41249E400212
:1019C0004924904012FBB3CEE00C2568753A2530CF
:1019D00032687500256875642025303268753A25AF
:1019E00030326875002020202020202000205369FC
:1019F0007A653A200043616E6E6F74206F70656E79
:101A000020737562646972200053442063617264BC
:101A1000206F6B0A006F70656E526F6F7420666185
:101A2000696C65640A00766F6C756D652E696E6908
:101A300074206661696C65640A00534420696E69AC
:101A400074206661696C0A004D3234004D323320D7
:101A500025730046696C652073656C656374656405
:101A60000A0046696C65206F70656E65643A2000F7
:101A7000454E4420535542524F5554494E450A0055
:101A80002220706F73002220706172656E743A229A
:101A900000535542524F5554494E452043414C4CFA
:101AA000207461726765743A2200747279696E6796
:101AB00020746F2063616C6C207375622D67636F97
:101AC00064652066696C6573207769746820746F3B
:101AD0006F206D616E79206C6576656C732E204D7C
:101AE0004158206C6576656C2069733A310A00575D
:101AF000726974696E6720746F2066696C653A203C
:101B000000646F696E67004E6F7720006F70656EBE
:101B100000545249474745524544007A5F6D696E0B
:101B200000795F6D696E00785F6D696E0052657057
:101B30006F7274696E6720656E6473746F70207362
:101B400074617475730A0020436F756E7420583A7F
:101B50000020453A005761726E696E673A20486FFF
:101B60006D696E672042756D702044697669736F88
:101B700072203C20310A000000000000000000003C
:101B800000000000006B4300006B4300007A43003C
:101B900000A0410000A041000080400202040000BB
:101BA000A0400000A04000000040FFFFFF65636808
:101BB0006F3A004572726F723A000A4D6561737533
:101BC00072656420706F696E74733A0A00337833FB
:101BD000206D6573682E205A206F66667365743AAF
:101BE00020004F46460A00466164652048656967E3
:101BF000687420004661696C656420746F20656EAE
:101C000061626C6520426564204C6576656C696E26
:101C1000670A004D65736820426564204C657665EF
:101C20006C20646174613A0A00496E76616C696483
:101C3000206D6573682E0A00206E6F7420656E74C7
:101C4000657265642E0A00206F6620004D424C20AC
:101C500047323920706F696E7420004A206F7574A6
:101C6000206F662072616E67652028302D00492044
:101C70006F7574206F662072616E67652028302D45
:101C8000004D6573682070726F62696E6720646FC3
:101C90006E652E0A005374617274206D657368203E
:101CA00070726F62696E67207769746820224732AC
:101CB00039205331222066697273742E0A0047322C
:101CC000380A47323920533200686173206E6F2022
:101CD000646174612E0A004D65736820426564205A
:101CE0004C6576656C696E67200053206F757420B3
:101CF0006F662072616E67652028302D35292E0AA7
:101D00000020496E76616C69642065787472756430
:101D1000657220004D6F7665205A005072696E74AE
:101D20002066726F6D204D65646961004D6F766548
:101D30002025736D6D004D6F766520302E316D6DF1
:101D4000004D6F766520316D6D004D6F76652031E9
:101D5000306D6D004D6F7665204178697300486F76
:101D600074656E6420746F6F20636F6C64004578D7
:101D7000747275646572004D6F76652059004D6F01
:101D80007665205800220A00556E6B6E6F776E20C4
:101D9000636F6D6D616E643A2022000000210024A3
:101DA0000027002A0000002200250028002B000048
:101DB0000020002300260029000202020202020283
:101DC00002040404040404040403030303030303DC
:101DD0000301010101010101010102040810204079
:101DE00080010204081020408001020408102040F5
:101DF0008080402010080402010000000102000958
:101E00000A000000000403080700000000000000B2
:101E10000000000000000000004361703A00656EA1
:101E20007175657565696E672022006F6B0052657C
:101E300073656E643A200020573A00452025530010
:101E400042656420436F6F6C696E672E2E2E0042D0
:101E500065642048656174696E672E2E2E002364C8
:101E60006566696E652044454641554C545F004B9C
:101E70006420004B6920004B7020005049442041F1
:101E800075746F74756E652066696E6973686564D4
:101E9000212050757420746865206C617374204B28
:101EA000702C204B6920616E64204B6420636F6E40
:101EB0007374616E74732066726F6D2062656C6FEF
:101EC0007720696E746F20436F6E66696775726103
:101ED00074696F6E2E680A00504944204175746F12
:101EE00074756E65206661696C6564212074696D26
:101EF000656F75740A000A20436C6173736963200F
:101F0000504944200A00204B643A2000204B693A93
:101F10002000204B703A20002054753A2000204BBE
:101F2000753A2000206D61783A2000206D696E3A84
:101F3000200020643A200020626961733A2000503A
:101F40004944204175746F74756E652073746172B5
:101F5000740A00504944204175746F74756E652091
:101F60006661696C6564212054656D706572617489
:101F700075726520746F6F20686967680A00504940
:101F800044204175746F74756E65206661696C6577
:101F900064212042616420657874727564657220E2
:101FA0006E756D6265720A00436F6E666967757261
:101FB0006174696F6E003F0043616E63656C00542D
:101FC0006865726D6973746F727300426F617264D9
:101FD00020496E666F005072696E74657220496E9A
:101FE000666F004261636B0053746F70004D323155
:101FF00000496E69742E204D65646961004D32326E
:102000000052656C65617365204D656469610041CE
:10201000626F7574205072696E74657200526573D8
:10202000756D65205072696E74004D65646961203C
:1020300052656C65617365640054756E6500537418
:102040006F70205072696E7400496E666F20536322
:102050007265656E005374617274205072696E749B
:102060000043616E6E6F7420656E746572207375C7
:10207000626469723A2000022E2E00015265667277
:10208000657368005072696E742050617573656481
:10209000005061757365205072696E7400456E64FE
:1020A00065722D332052656164792E005072696E1D
:1020B00074696E672E2E2E005072696E7420416214
:1020C0006F72746564004D32350053657474696EC7
:1020D00067732053746F7265642028004531006275
:1020E0006564002C2073797374656D2073746F7050
:1020F00070656421204865617465725F49443A20C7
:102100000048656174696E67204661696C656400AA
:1021100048656174696E67206661696C656400205A
:102120002D20496E76616C696420657874727564DF
:102130006572206E756D62657220210A00544845F3
:10214000524D414C2052554E4157415900546865FB
:10215000726D616C2052756E6177617900457272A3
:102160003A204D415854454D50004D415854454D2D
:102170005020747269676765726564004572723ACF
:10218000204D494E54454D50004D494E54454D50FB
:1021900020747269676765726564004D3834205831
:1021A0002059205A204500202F002042403A00208C
:1021B000403A0070012C0190012701B0012201C0BA
:1021C000011D01F00118011002130130020E01601F
:1021D00002090190020401C002FF000003FA00405E
:1021E00003F5008003F000D003EB002004E600704C
:1021F00004E100E004DC004005D700C005D2004047
:1022000006CD00D006C8008007C3003008BE00F02D
:1022100008B900C009B400B00AAF00B00BAA00D0E2
:102220000CA500000EA000500F9B00C0109600509F
:1022300012910000148C00C0158700B0178200B006
:10224000197D00D01B7800001E730040206E0090A6
:10225000226900F024640040275F0090295A00E0C2
:102260002B5500102E500020304B0010324600E05D
:1022700033410090353C001037370070383200A0F1
:10228000392D00B03A2800A03B2300603C1E00100E
:102290003D1900903D1400103E0F00703E0A00C032
:1022A0003E0500003F0000403FFBFF803FF6FFC0BF
:1022B0003FF1FF54656D706572617475726500461B
:1022C000616E205370656564004E6F7A7A6C6500AC
:1022D000426564205A004D61696E00507265686500
:1022E0006174204142532042656400507265686504
:1022F00061742041425320456E6400436F6F6C64EB
:102300006F776E00507265686561742041425300BA
:102310005072656865617420504C41004261627979
:1023200073746570205A00466C6F77006F70656E2D
:10233000206661696C65642C2046696C653A2000F2
:102340004572723A207574663820666F6E74206E1E
:102350006F7420696E697469616C697A65642E00B6
:10236000000C0D00FE07022603BC017FFE08FE08DC
:10237000FE05080806000040F0C888889878100517
:102380000808060000C0F88888888888F8050505D0
:102390000600012030F830200508080600002070F3
:1023A000F820202020E00509090600FF2070A8A8D9
:1023B000B888887020050606060001E08CEA8C8A41
:1023C0000A0509090600FFF8A88888888888A8F8FF
:1023D000050A0A0600FE205050505088A8A88870B0
:1023E00003030306000340A040FFFFFFFFFFFFFFC2
:1023F000FFFFFFFFFFFFFFFFFFFFFFFFFFFFFF00EC
:1024000000000605FF01070706020080808080802B
:102410000080030303060105A0A0A0050606060030
:102420000050F85050F8500509090600FF2070A828
:10243000A07028A87020050707060000C8C8102053
:1024400040989805070706000040A0A040A89068A3
:102450000103030602058080800309090601FF20AD
:1024600040408080804040200309090601FF8040F1
:102470004020202040408005070706000020A8706B
:102480002070A8200505050600012020F820200264
:1024900003030601FFC04080050101060003F802A6
:1024A0000202060100C0C005070706000008101060
:1024B00020404080050707060000708898A8C8885B
:1024C0007003070706010040C040404040E0050798
:1024D00007060000708808102040F805070706006E
:1024E00000F8081030088870050707060000103053
:1024F0005090F81010050707060000F880F0080853
:102500008870050707060000304080F08888700555
:102510000707060000F8081010202020050707060E
:1025200000007088887088887005070706000070B2
:10253000888878081060020505060100C0C000C048
:10254000C00206060601FFC0C000C04080030505AA
:102550000601012040804020050303060002F80028
:10256000F8030505060101804020408005070706A5
:10257000000070881020200020050707060000706A
:1025800088B8A8B88070050707060000708888F82A
:10259000888888050707060000F04848704848F01A
:1025A000050707060000708880808088700507078F
:1025B000060000F04848484848F0050707060000B4
:1025C000F88080F08080F8050707060000F880801A
:1025D000F08080800507070600007088808098885A
:1025E00070050707060000888888F8888888030730
:1025F00007060100E04040404040E00507070600B4
:102600000038101010109060050707060000889031
:10261000A0C0A09088050707060000808080808009
:1026200080F805070706000088D8A88888888805EC
:1026300007070600008888C8A89888880507070645
:10264000000070888888888870050707060000F0F9
:102650008888F080808005070706000070888888D9
:10266000A89068050707060000F08888F0A0908809
:102670000507070600007088807008887005070746
:10268000060000F820202020202005070706000073
:1026900088888888888870050707060000888888E9
:1026A0008850502005070706000088888888A8A859
:1026B00050050707060000888850205088880507C5
:1026C0000706000088885020202020050707060004
:1026D00000F80810204080F80309090601FFE08097
:1026E000808080808080E0050707060000804040F1
:1026F000201010080309090601FFE02020202020F7
:102700002020E0050303060005205088050101068E
:1027100000FEF803030306010580402005050506B9
:10272000000070087888780507070600008080F0B0
:10273000888888F00505050600007080808870058F
:1027400007070600000808788888887805050506C8
:1027500000007088F08070050707060000304840D0
:10276000E04040400507070600FE7088888878082A
:10277000700507070600008080F0888888880307B6
:10278000070601004000C0404040E004090906017E
:10279000FE100030101010109060050707060000B2
:1027A00080808890E09088030707060100C04040C1
:1027B000404040E0050505060000D0A8A8A8A805EF
:1027C0000505060000B0C8888888050505060000D4
:1027D00070888888700507070600FEF0888888F0F2
:1027E00080800507070600FE788888887808080535
:1027F0000505060000B0C8808080050505060000BC
:1028000078807008F00507070600002020F82020D7
:1028100020180505050600008888889868050505C4
:102820000600008888885020050505060000888875
:10283000A8A8500505050600008850205088050707
:10284000070600FE888888502040800505050600A0
:1028500000F8102040F80309090601FF204040401D
:1028600080404040200109090602FF80808080806E
:10287000808080800309090601FF8040404020409D
:1028800040408005030306000248A890FF4A756E89
:102890006374696F6E204465760045737465707368
:1028A0002F6D6D005A73746570732F6D6D005973C1
:1028B000746570732F6D6D005873746570732F6D30
:1028C0006D00496E6974004D34323800496E697488
:1028D00069616C697A6520454550524F4D004669E3
:1028E0006C616D656E740053746570732F6D6D004F
:1028F0004A65726B00416363656C65726174696FF0
:102900006E0056656C6F6369747900536574204876
:102910006F6D65204F666673657473004C657665F0
:102920006C696E6720446F6E6521004E6578742077
:10293000506F696E74002569202F2025750056544C
:10294000726176204D696E00566D696E00566D613C
:1029500078204500566D6178205A00566D617820C8
:102960005900566D6178205800416D61782045000E
:10297000416D6178205A00416D6178205900416DA8
:102980006178205800412D54726176656C00412DAC
:102990005265747261637400416363656C00206208
:1029A000797465733B2063726320004E6F20454548
:1029B00050524F4D2E0A00454550524F4D206461F4
:1029C000746173697A65206572726F722E0A0020D5
:1029D00073746F7265642073657474696E677320B5
:1029E00072657472696576656420280020286361C9
:1029F0006C63756C6174656429210A0020213D2097
:102A000000454550524F4D20435243206D69736D30
:102A100061746368202D202873746F7265642920A7
:102A200000496E6465783A2000204D61726C696ED1
:102A30003D563734290A00454550524F4D207665A2
:102A40007273696F6E206D69736D6174636820289D
:102A5000454550524F4D3D0048617264636F646557
:102A6000642044656661756C742053657474696E86
:102A70006773204C6F616465640A00486F6D696E0E
:102A800067204661696C6564000000FA430000FA43
:102A9000430000A0400000C8410000A0420000A088
:102AA000420000C8430000BA42F4010000F40100F3
:102AB0000064000000881300004D6F74696F6E00A1
:102AC000426564204C6576656C696E67004D3834EC
:102AD0000044697361626C6520537465707065723F
:102AE0007300473238004175746F20486F6D650080
:102AF0005072656865617420504C4120456E6400D9
:102B00005072656865617420504C412042656400D4
:102B10004D6564696120496E736572746564000077
:102B2000B1EB73E811241FBECFEFD0E4DEBFCDBF01
:102B300012E0A0E0B1E0E6EAF8EF01E00BBF02C06E
:102B400007900D92A232B107D9F723E1A2E2B2E0D9
:102B500001C01D92A233B207E1F715E1C1E9D5E149
:102B600004C02197FE010E9497F8C039D107C9F728
:102B70000E94FEE20C9446FC0C9400002F923F92BF
:102B80004F925F926F927F928F929F92AF92BF927D
:102B9000CF92DF92EF92FF920F931F93CF93DF9329
:102BA000CDB7DEB7C155D1090FB6F894DEBF0FBE61
:102BB000CDBF62968FAF629720912C0221962FAFE6
:102BC000219781E080932C028091BE0B8D3409F413
:102BD0007CC2843511F40C946925873411F00C946F
:102BE00084252090BC0B3090BD0B35E123163104B9
:102BF00011F40C9486258CF454E0251631043CF431
:102C000082E028163104E4F537FE2EC05AC294E063
:102C10002916310409F4C0C054C2AAE22A163104AC
:102C200009F48AC174F4ECE12E16310409F4F2C0FF
:102C3000FDE12F16310409F044C20E94E8850C948E
:102C400086252BE52216310409F4F3C03CE5231652
:102C5000310409F4F3C04AE52416310409F031C205
:102C600010922B020C94862580915301882311F435
:102C70000C9486250E94CE820E94F57C0C948625B9
:102C800080915301882311F40C9486250E94CE82F2
:102C900082E50E94C182882309F44CC00E944582CB
:102CA0006B017C0120E030E0A9010E94A4F188239F
:102CB00011F40C944E268091B3049091B404A09129
:102CC000B504B091B60488A399A3AAA3BBA320918D
:102CD000B7043091B8044091B9045091BA042CA3C0
:102CE0003DA34EA35FA38090C50A9090C60AA09012
:102CF000C70AB090C80A4090C90A5090CA0A6090AA
:102D0000CB0A7090CC0AA5019401BC01CD010E94B0
:102D1000A4F181110C949325A30192016CA17DA1D2
:102D20008EA19FA10E94A4F1882311F40C944E2639
:102D30000C94932589E40E94C182882329F00E9483
:102D400045826B017C0103C0C12CD12C76018AE441
:102D50000E94C182882311F40C9455260E9445825A
:102D600068A779A78AA79BA720E030E0A901C7013F
:102D7000B6010E94A4F181110C94622620E030E09B
:102D8000A90168A579A58AA59BA50E94A4F1811136
:102D90000C9462260C944E2680E50E94C182882302
:102DA00029F00E94FD816B017C0103C0C12CD12C54
:102DB000760183E50E94C182882361F00E944582EA
:102DC00020E030E04AE754E40E940AF20E941CFA34
:102DD0006B017C010E94204780914E0C811105C03F
:102DE00060E089ED92E00E949DAD0E94B436C60E6F
:102DF000D71EE81EF91E0E94B436DC01CB018C19E7
:102E00009D09AE09BF09B7FD02C00C9486250E943A
:102E10005830F1CF8091C40A8770873011F00C943C
:102E2000E2298FE40E94468B81110C9486250C9434
:102E3000E2298FE080932B020C94862576E6272EDC
:102E400071E0372EE8EBEE2EEAE0FE2E23EB34E0C5
:102E500039A328A3FCEACF2EFAE0DF2E00E010E031
:102E6000D1018D911D010E94C182882309F44BC0BC
:102E70000E9445822B013C01133049F0F60120816C
:102E80003181428153810E94A8F82B013C01A8A105
:102E9000B9A12D913D914D915C91C301B2010E9468
:102EA000A8F84B015C012DEB37E346E855EB0E9497
:102EB00009FB87FD0AC02DEB37E346E855E3C50162
:102EC000B4010E94A4F11816F4F4133051F44092A6
:102ED000BF045092C0046092C1047092C20401E029
:102EE00012C0A5019401F7016081718182819381F3
:102EF0000E94A9F8D7016D937D938D939C931397AE
:102F0000812F0E94387C1F5FB4E0EB0EF11CE8A11A
:102F1000F9A13496F9A3E8A3F4E0CF0ED11C143044
:102F200009F09ECF002321F08FEB94E00E94304700
:102F30000E94AB800C94862580915301882311F464
:102F40000C94862589E40E94C182F82E882321F002
:102F50000E944182182F01C010E08AE40E94C182C1
:102F6000082F882319F00E94418201C080E0FF20D1
:102F700011F0133020F4002341F0833030F082EE62
:102F800092E00E94FD840C94862590E1E3EBF4E04E
:102F9000A5ECBAE001900D929A95E1F7FF2091F02F
:102FA00024E01202F0011124EF57FF4E40815181BD
:102FB000628173814093C50A5093C60A6093C70A21
:102FC0007093C80A002391F034E08302F0011124C9
:102FD000EB58FF4E80819181A281B3818093C90A11
:102FE0009093CA0AA093CB0AB093CC0A86E40E94BD
:102FF000C182882311F40C941D2D0E9445826B011F
:103000007C0120E030E0A9010E9409FB181614F0B1
:103010000C941D2D20E030E040E752E4C701B601DA
:103020000E94A3F94B015C01C0904501D09046017C
:10303000E0904701F090480120E030E0A9010E94B3
:10304000A4F1882341F08092450190924601A0921C
:103050004701B0924801009143011091440184E678
:1030600090E09093440180934301809022019090DE
:103070002301A0902401B090250180E090E0A0E819
:10308000BFE38093220190932301A0932401B09386
:1030900025010E94F57CC0924501D0924601E09244
:1030A0004701F0924801109344010093430180923C
:1030B000220190922301A0922401B09225010C9448
:1030C00086250E94388B0C9486258091BC0B9091AC
:1030D000BD0B8237910509F421C70CF0E3C08B3496
:1030E000910509F4CCC40CF079C08831910509F43C
:1030F000CBC20CF049C08231910509F40CC66CF4C6
:1031000097FF02C00C946625823091050CF407C22B
:10311000419709F47FC20C9466258531910509F425
:1031200096C22CF5449711F00C9466258CE293E03E
:103130000E94FD8481ED9FE00E94B7618BE1E1ED8B
:10314000FFE0DE01119601900D928A95E1F760E0B3
:1031500070E0CE0101960E94B275CE0101960E94E8
:1031600062638DE193E00E94FD840C948625863194
:10317000910509F470C2479711F00C946625E0910F
:10318000BA0BF091BB0B74C28D31910509F402C3E7
:10319000B4F48A31910509F49CC20CF481C28B31DC
:1031A000910509F4A4C24C9711F00C946625809106
:1031B000BA0B9091BB0B0E944B740C9486258F31F7
:1031C000910509F48FC30CF4ECC28032910509F427
:1031D00047C38A9709F431C40C9466258836910553
:1031E00009F46AC4ACF58235910509F486C504F585
:1031F0008D34910509F45CC40CF445C48135910506
:1032000011F00C9466250E9455B00E94ECA70E9414
:103210009B480E94782E68EE73E080E090E00E9468
:10322000D98460E080EE93E00E949DAD0C948625E9
:103230008435910509F46FC50CF466C58535910593
:1032400009F496C58C35910509F4ABC50C94662537
:103250008D36910509F454C4ACF48A36910509F40D
:1032600069C40CF451C48B36910509F480C48C36C2
:10327000910511F00C9466251092A40C10920F0188
:103280000C9486258F36910509F48AC40CF477C412
:103290008037910509F4C8C48137910509F4CBC47E
:1032A0000C9466258D3D910511F40C9417220CF0B9
:1032B000BFC08B39910509F4FAC40CF08BC0873775
:1032C000910509F47CC60CF075C08537910509F4A9
:1032D0002AC60CF038C68337910511F00C94662588
:1032E00081E195E00E94FD8460E081E095E00E942C
:1032F0007D9B60E08CEE94E00E947D9B61E087ED19
:1033000098E20E947D9B61E081EE94E00E947D9BAB
:1033100061E081ED94E00E947D9B60E088EC94E0A8
:103320000E947D9B61E08EEB94E00E947D9B60E0BB
:1033300084EB94E00E947D9B60E08CEA94E00E9424
:103340007D9B61E08EE994E00E947D9B60E080E9D6
:1033500094E00E947D9B60E081E894E00E947D9B68
:1033600060E083E794E00E947D9B60E08DE594E05F
:103370000E947D9B60E08CE494E00E947D9B60E075
:103380008DE394E00E947D9B60E088E294E00E94DF
:103390007D9B61E085E194E00E947D9B60E088E098
:1033A00094E00E947D9B60E084EF93E00E947D9B0F
:1033B0000C9486258937910509F40CC60CF402C6D5
:1033C0008C38910509F459C48139910509F409C66D
:1033D0000C9466258C3C910509F4EDC6C4F4883C38
:1033E000910509F459C64CF48E3B910511F00C94EB
:1033F00066250E942C950C948625893C910509F43C
:1034000098C68B3C910509F4B7C60C9466258E3C92
:10341000910509F417C70CF402C7833D910509F41F
:1034200033C78C3D910511F40C940A220C94662547
:10343000843A41E0940711F40C94FF2394F58D3203
:10344000A1E09A0711F40C9436239CF48232E1E057
:103450009E0711F40C94B8228C32F1E09F0711F40E
:103460000C942123823E910511F00C9466250C9456
:103470006D228F3221E0920711F40C94F92314F499
:103480000C94B523803941E0940711F40C94FC238B
:103490008A39914011F00C9466250E94CD2D0C9430
:1034A0008625863FA1E09A0711F40C943E25ECF4A2
:1034B0008C3AE1E09E0711F40C94D3243CF4853A55
:1034C000914011F40C9402240C946625843F31E061
:1034D000930711F40C943B25853F914011F00C9417
:1034E00066250E9429DC0C9486258C3052E09507D5
:1034F00011F40C9451253CF4883F914011F40C9444
:1035000041250C946625803AE3E09E0709F4DCC16E
:10351000873E934011F40C9459250C946625A09095
:10352000BA0BB090BB0B80E50E94C182882359F092
:103530000E94FD816B017C0111E0672B682B692BD8
:1035400031F410E004C010E0C12CD12C760183E5E9
:103550000E94C182882311F40C94822B0E94458220
:1035600020E030E04AE754E40E940AF20E941CFA8C
:103570006B017C0111110BC0672B682B692B39F48F
:10358000A114B10421F0D5018C91811102C010E089
:1035900001C011E00E942047112329F061E0C5011C
:1035A0000E9417AE05C060E081E093E00E949DADEF
:1035B00010912C0283E080932C0281E08093A40C74
:1035C000C114D104E104F104B1F00E94B436C60E76
:1035D000D71EE81EF91E0E94B436DC01CB018C19FF
:1035E0009D09AE09BF09B7FF0DC08091A40C8111E0
:1035F0000C94872B07C08091A40C882319F00E949B
:103600005830F9CF0E943CAE1092A40C10932C02BB
:103610000C9486258091B60B84FF02C00C948B2BF2
:103620008091B80B87FF02C00C948B2B8091B90B53
:10363000837011F00C948B2B60E084E193E00E9486
:103640009DAD5E985E9815985E980C9486250E94B4
:10365000AD720C9486250E943E728091A611877FE0
:103660008093A6110C948625803209F4108231963D
:1036700080818111F9CF60E08091BA0B9091BB0BF2
:103680000E9496740C9486250E947B2E882321F03C
:103690000E944D720E94C8A70E943CAE0C948625E1
:1036A0008091A61182FF03C08B7F8093A611809129
:1036B000B30C813089F782E08093B30C0E94B4365A
:1036C0006093AF0C7093B00C8093B10C9093B20CDC
:1036D000E3CF8091A61183FD02C00C94862583E57B
:1036E0000E94C18281110C949D2B0C94862583E449
:1036F0000E947882882319F187E493E00E94FD8478
:1037000080917B0F882391F0BE016F5F7F4F88E728
:103710009FE00E9468638E010F5F1F4FF801819147
:103720008F01882339F00E942C2FF8CF8DE393E08E
:103730000E94FD848AE00E942C2F0C9486258091A3
:10374000A61182FF21C086E593E00E94FD8460916E
:10375000A2117091A3118091A4119091A5114AE03A
:103760000E94332F8FE20E942C2F60919E11709146
:103770009F118091A0119091A1114AE00E94332FD6
:103780000E9431300C94862588E693E00E94FD84E7
:103790000C9486258091A6118E7F8093A6110C949F
:1037A00086258091A61183FD02C00C9486250E9477
:1037B0004A5F8091A61183FD02C00C94862560911A
:1037C000BA0B7091BB0BCE014C960E94CFC58C01F9
:1037D000009711F40C9486256C8D7D8D19821C82C6
:1037E00022E0AC01CE0101960E942667811102C041
:1037F000F12C14C0CE0101960E943DC58823C1F36F
:1038000061E0CE0101960E940A63009789F325EEDC
:10381000DC012C931C820E942762F82ECE010196B7
:103820000E946263B801FF2089F081E993E00E9461
:103830000D888AE00E942C2F1092A2111092A311E1
:103840001092A4111092A5110C94862589E793E09B
:103850000E940D888EEF9CE10E94FD840C948625C9
:103860008091A61182FD0E9420478091A61183FDC0
:1038700002C00C94862580E50E94468B182F682F85
:103880008091BA0B9091BB0B0E94967483E50E94C5
:10389000C182882381F00E940D82AB01BC0140935C
:1038A000A2115093A3116093A4117093A51188E7FE
:1038B0009FE00E94C85F0E944D7211110C948625F2
:1038C0000E94C8A70C9486252091BA0B3091BB0B9F
:1038D0009091A61192609093A611C9010E944B7419
:1038E0000C9486250E9479A77B018C0120E831E5A4
:1038F00041E050E00E94FAF7C9016DE671E00E94D4
:1039000050F84B015C01C801B70120E13EE040E006
:1039100050E00E94FAF7CA01B90128E130E040E026
:1039200050E00E94FAF7762E672EC62ED72E6CE353
:10393000262E312C412C512CC801B701A201910136
:103940000E94FAF7F62EE72ECA01B901A2019101F1
:103950000E94FAF7CB018E010F5F1F4F8114910473
:1039600099F0EF92FF927F936F936F927F92BF9245
:10397000AF929F928F928FE993E09F938F931F93C3
:103980000F930E943CF113C0A114B104B1F0EF9267
:10399000FF927F936F936F927F92BF92AF9283EA71
:1039A00093E09F938F931F930F930E943CF10FB668
:1039B000F894DEBF0FBECDBF30C0CD2879F0EF92B6
:1039C000FF927F936F936F927F9287EA93E09F932A
:1039D0008F931F930F930E943CF1E9CF892B69F0DD
:1039E000EF92FF927F936F938BEA93E09F938F9375
:1039F0001F930F930E943CF1DACFEF92FF928FEA70
:103A000093E09F938F931F930F930E943CF10F902D
:103A10000F900F900F900F900F9060E0C8010E94E0
:103A200017AE0E942488B80183EB93E00E940D88B2
:103A30008AE00E942C2F0C94862583E50E94C18287
:103A4000882311F40C9486250E941D82F82E6FEFB6
:103A50007FEF80E50E9489838C0197FF02C00C9460
:103A60008625E82E89E40E94468B81110C94AE2BAA
:103A7000802F0E94D9E281114DC50C94AE2B0E947B
:103A8000C8A70C9486258091B30C813011F00C945A
:103A9000862582E08093B30C0E94B4366093AF0C0D
:103AA0007093B00C8093B10C9093B20C0C9486255B
:103AB0000E94ECA70C9486258091BA0983FF02C06E
:103AC0000C9486250E94288887FF02C00C948625C6
:103AD00083E50E94C182882379F00E9445820E947A
:103AE00015FA8B01CB010E9444B00635110524F470
:103AF0000E94ECA70E943CAE0E9485460C9486254D
:103B00000E9408970C9486250E942888182F87FD0C
:103B10000AC08BE29EE10E94FD84812F0E943BAF90
:103B20008AE00E942C2F21969FAD219790932C0222
:103B30000C94272D80E50E94538B81110C948625CF
:103B400081E40E947882882321F06091DF0470E094
:103B500002C06FEF70E083E50E946A9B8F3F910582
:103B600019F010F08FEF90E08093DF04CFC780E56D
:103B70000E94538B8111CAC71092DF04C7C78EE41D
:103B80000E94C182882309F4C1C70E940D826093FC
:103B9000430C7093440C8093450C9093460CB6C72D
:103BA00083E50E947882882329F083E50E94538B65
:103BB0008093BA090E94248884EC93E00E94FD84DB
:103BC0008091BA09882369F156E3E52E57E0F52E76
:103BD00000E010E020E08091BA0990E0A0E0B0E0C1
:103BE000002E04C0B695A795979587950A94D2F7AD
:103BF00080FF0EC0DD24D394D20E222319F08CE274
:103C00000E942C2FF701859194910E94FD842D2D07
:103C10000F5F1F4FA2E0EA0EF11C05301105D9F627
:103C200089CD80EC93E084CD41E060E070E08BECE6
:103C300093E00E94552D83E50E94C182882371F094
:103C40000E941D82282F30E02D3331051CF4809313
:103C500000015CC78CE38093000158C70E94248850
:103C60004091000150E060E070E089ED93E00E9437
:103C7000AC858AE00E942C2F49C78091BA0983FD48
:103C800045C783E50E94C182882309F43FC70E948B
:103C900045820E9415FA6337710514F063E770E0FE
:103CA0007093F40C6093F30C0E94A2AE2FC783E5CF
:103CB0000E94C182882309F429C70E941D82182FFF
:103CC00090E0CD970CF01CE3109326020E94B436CE
:103CD0006B017C01212F30E0A8EEB3E00E9427F8B1
:103CE000C60ED71EE81EF91EC0922202D0922302F1
:103CF000E0922402F092250209C780912B028F7D69
:103D0000806180932B0202C780912B028F7E80629C
:103D100080932B02FBC683E50E94C182882399F021
:103D20000E94458220E030E04AE754E40E940AF213
:103D30000E941CFA609301017093020180930301B9
:103D400090930401E3C68091B60B84FF02C00C94EB
:103D5000C12B8091B80B87FF02C00C94C12B8091BE
:103D6000B90B837011F00C94C12B0E949B48CEC6F6
:103D700083E50E947882882309F4C8C60E944582A0
:103D800020E030E04AE754E40E940AF20E941CFA64
:103D900060932702709328028093290290932A024D
:103DA000B5C60E94288887FDB1C68091B60B84FDF8
:103DB00004C08091B80B87FF0AC036E6C32E31E0FD
:103DC000D32E4BEBE42E49E0F42E10E03AC0809164
:103DD000B90B837091F70E9424884091CF095091CC
:103DE000D0096091D1097091D2098DEE93E00E94C3
:103DF000CA854091D3095091D4096091D509709139
:103E0000D6098BE79DE10E94CA854091D709509160
:103E1000D8096091D9097091DA0983ED92E20E9484
:103E2000CA854091DB095091DC096091DD097091F0
:103E3000DE0984EA91E20E94CA858AE00E942C2F62
:103E400065C6F60181916F010E94C182882309F441
:103E50005BC0133009F04FC00E9445824B015C01EA
:103E600020E030E040EA51E40E94A4F187FF3AC02C
:103E7000A50194016091DB097091DC098091DD0955
:103E80009091DE090E94A3F92B013C019B01AC013A
:103E90006091EB097091EC098091ED099091EE0928
:103EA0000E940AF26093EB097093EC098093ED098C
:103EB0009093EE096091D3047091D4048091D5045D
:103EC0009091D6040E94A9F1A30192010E940AF2E6
:103ED0000E941CFA6093D3047093D4048093D50499
:103EE0009093D6048092DB099092DC09A092DD09C0
:103EF000B092DE0909C00E944582D70154966D93A5
:103F00007D938D939C9357971F5FB4E0EB0EF11C4C
:103F1000143009F096CF0E94FC46F8C50E94204755
:103F20000E94AB80F3C58091BA0B9091BB0B0097B8
:103F300009F4B2CBFC012081222309F4ADCB60E06F
:103F40000E9417AEE3C50091BA0B1091BB0B94E031
:103F5000F12C40E0915031F1D8018C91282F2B7F2A
:103F6000213429F411962C912133E1F408C08035D5
:103F7000C9F4F801818180538A3048F013C081343C
:103F800021F0853421F441E002C0FF24F39498012C
:103F90002E5F3F4F89012F5F3F4FD8018C918032B8
:103FA000C9F3D8CF41110E942488FF2021F084ED6D
:103FB00095E00E94FD84C8010E943730A7C50E9489
:103FC000BE81A4C581E08093BB028093BA020E94A7
:103FD000D9819CC51092BB021092BA020E94D9816D
:103FE00095C560E070E083E50E9489838C0111270C
:103FF000023011053CF00E94208888ED95E00E9477
:10400000FD8484C588E40E94C1828823A9F00E94AF
:1040100041828A3A91053CF08530B1E09B072CF053
:1040200084E091E002C08AEA90E0F801EE0FFF1F01
:10403000EB5FFC4E9183808386E40E94C1828823DB
:1040400081F00E94418297FD07C08F3F910529F0C2
:1040500024F08FEF90E001C080E0F801E150FD4EC8
:10406000808382E40E94C182882309F44FC50E94A4
:1040700041828530910534F0843791052CF083E737
:1040800090E002C085E090E0F801EE0FFF1FEF5FC7
:10409000FC4E918380833AC50E942888182F87FDA3
:1040A00035C584E40E947882882309F43FC00E94C9
:1040B00045826B017C0101E020E030E0A9010E9413
:1040C000A4F1811101C000E00093090B20E030E071
:1040D000A901C701B6010E94A4F1882339F10E9409
:1040E000458224E01202F0011124E25FF44F608364
:1040F00071838283938320E030E0A90160910E0BED
:1041000070910F0B8091100B9091110B0E94A4F1F4
:1041100081110CC080E090E0A0EEBFE380930E0B15
:1041200090930F0BA093100BB093110B0E94B977D3
:10413000EDC40E94288887FDE9C4A6E6EA2EA1E026
:10414000FA2E0BEB19E0D7018D917D010E94788248
:10415000882359F00E9445820E941CFAF80160836E
:104160007183828393830E94B5460C5F1F4FF9E0F1
:104170000B3C1F0741F7CAC40E94288887FDC6C4AC
:10418000F6E6EF2EF1E0FF2E0BEB19E0D7018D9153
:104190007D010E947882882339F00E944582F801CF
:1041A00064A375A386A397A30C5F1F4FF9E00B3C94
:1041B0001F0761F7ABC48091B70B87FF02C00C9457
:1041C000E62B8091B80B8E7011F00C94E62B409189
:1041D000EF095091F0096091F1097091F20980E0C6
:1041E00096E00E94CA854091F3095091F4096091CC
:1041F000F5097091F6098DEF95E00E94CA8540910E
:10420000F7095091F8096091F9097091FA098AEF5C
:1042100095E00E94CA858AE00E942C2F77C4809185
:10422000B60B81FF02C00C942C2C8091B70B81FF40
:1042300002C00C942C2C8091B80B8C7011F00C9453
:104240002C2C64C476E6C72E71E0D72EEEEBEE2E52
:10425000E2E0FE2E10E0D6018D916D010E94788281
:10426000882351F00E944582F70160837183828325
:104270009383812F0E94387C1F5FF4E0EF0EF11CC6
:10428000133049F70C9498174090AC0A5090AD0A3F
:104290006090AE0A7090AF0A20912A0130912B01F4
:1042A00040912C0150912D01C301B2010E94A9F847
:1042B00068A379A38AA39BA38090B00A9090B10AC7
:1042C000A090B20AB090B30A20912E0130912F0134
:1042D0004091300150913101C501B4010E94A9F80B
:1042E0006CA37DA38EA39FA3C090B40AD090B50AFF
:1042F000E090B60AF090B70A209132013091330174
:104300004091340150913501C701B6010E94A9F8CE
:1043100068A779A78AA79BA720913601309137011A
:104320004091380150913901C301B2010E94A9F8AE
:104330002B013C0120913A0130913B0140913C011D
:1043400050913D01C501B4010E94A9F84B015C01E7
:1043500020913E0130913F01409140015091410137
:10436000C701B6010E94A9F86B017C010E94248854
:104370008FE396E00E94FD8483E50E947882882383
:1043800021F00E9431828093420180914201882372
:1043900019F084EF97E102C08DE095E00E94FD8462
:1043A00087E396E00E94FD8448A159A16AA17BA100
:1043B00081EF93E00E94CA854CA15DA16EA17FA10F
:1043C0008BE79DE10E94CA8548A559A56AA57BA5F2
:1043D00083ED92E20E94CA858BEE99E10E94FD84F2
:1043E0008FE296E00E94FD84B301A20181EF93E089
:1043F0000E94CA85B501A4018BE79DE10E94CA8590
:10440000B701A60183ED92E20E94CA858AE00E946C
:104410002C2F7CC383E50E94C182882309F476C3D4
:104420000E94418290934401809343016FC30E9494
:104430002888F82E87FD6AC383E50E94C1820F2D6C
:104440000F2C000C110B882369F10E944182F801A6
:10445000EE0FFF1FE35BFE4F91838083000F111F60
:10446000000F111F98012E5D3E4F7901BC01990F7D
:10447000880B990B0E94ABF12AE037ED43E25CE335
:104480000E940AF2F801E65FF44F208131814281F7
:1044900053810E940AF2D7016D937D938D939C9373
:1044A000139734C30E94248885E40E942C2F80E354
:1044B0008F0D0E942C2FF801EE0FFF1FE35BFE4FC4
:1044C000608171818FE496E00E94DB8585E20E9425
:1044D0002C2F8AE00E942C2F19C380E50E9478823D
:1044E000882309F413C360E070E080E50E948983AB
:1044F000F82E6FEF7FEF83E50E9489838C01019690
:10450000039708F003C3F7FC01C38F2D0E94D9E283
:10451000882339F00E94208887E596E00E94FD8478
:10452000F5C20E94204760E08F2D0E94A28E0F3FAF
:10453000BFEF1B0731F00130110571F000E010E012
:104540000DC08F2D0E944A8E31E020E0892B09F0AA
:1045500030E0032F122F02C001E010E08F2D0E94E7
:104560004A8E8017910709F4D1C20E945830F6CFC5
:104570008AE50E94C182811106C083E50E94C18242
:10458000882309F440C00E94458220E030E040E0EA
:1045900050EC0E94A4F187FF02C00C948B2C0E9467
:1045A000458220E030E040E050E40E9409FB18160C
:1045B00014F40C94852C0E9445822091BD0226950E
:1045C000269520FF20C02091D7093091D80940912D
:1045D000D9095091DA090E940AF20E9415FA209135
:1045E000620D3091630D260F371F3093630D2093BA
:1045F000620D2091E90C3091EA0C620F731F7093E9
:10460000EA0C6093E90C8091B80B87FF02C00C9410
:10461000912C8091B90B837011F00C94912C0E9415
:1046200024884091E10A5091E20A6091E30A709176
:10463000E40A86E696E00E94CA858AE00E942C2F52
:1046400065C264E071E083E50E946A9B8C0168EEBC
:1046500073E080E50E946A9B8938E3E19E0710F0D1
:1046600088E893E1B8010E9470AD50C285E40E94D1
:10467000538B811173C080E50E947882882351F0AA
:104680000E9445826093FC047093FD048093FE04B5
:104690009093FF0489E40E947882882381F00E942D
:1046A00045822CEA35EC47E25EE30E940AF2609311
:1046B000000570930105809302059093030584E43F
:1046C0000E947882882381F00E9445822CEA35EC92
:1046D00047E25EE30E94A3F9609304057093050529
:1046E00080930605909307050E9424884091FC045E
:1046F0005091FD046091FE047091FF048DE896E0F6
:104700000E94CA852CEA35EC47E25EE36091000521
:104710007091010580910205909103050E94A3F913
:10472000AB01BC0189E896E00E94CA852CEA35EC11
:1047300047E25EE3609104057091050580910605EE
:10474000909107050E940AF2AB01BC0185E896E052
:104750000E94CA858AE00E942C2FD8C10E9420881E
:1047600083E796E00E94FD84D1C183E50E947882B0
:10477000182F882371F00E9445820E9415FA7093C9
:1047800027016093260121E0672B09F020E02093A8
:10479000F00480E50E947882882359F02091260158
:1047A00030912701232B11F00E9431828093F00475
:1047B000ADC11111ABC10E9424888AEA96E00E9423
:1047C000FD848091F004882319F082E590E202C014
:1047D00081E996E00E94FD84609126017091270195
:1047E00089E996E00E94DB8585E996E00E94FD84D8
:1047F0008DC10E942B918AC10E94204787C10E94CF
:10480000518884C188E50E947882D82E89E40E946C
:104810007882C82E882321F00E944182A82E28C0C9
:10482000DD2011F10E9445822091AC0A3091AD0A41
:104830004091AE0A5091AF0A0E94A8F820E030E003
:1048400040E251E40E94A8F820E030E047E552E45D
:104850000E94A9F828EC38E648E15CE30E940AF2DD
:104860000E9415FA633018F0AA24AA9401C0A62E5B
:1048700089E50E947882F82E8AE40E947882182FB7
:10488000882321F00E944182B82E28C0FF2011F118
:104890000E9445822091B00A3091B10A4091B20A3B
:1048A0005091B30A0E94A8F820E030E040E251E4C1
:1048B0000E94A8F820E030E047E552E40E94A9F801
:1048C00028EC38E648E15CE30E940AF20E9415FAFF
:1048D000633018F0BB24BA9401C0B62E8AE50E945A
:1048E0007882E82E811105C081E50E947882082F28
:1048F00001C000E0C11001C010E0212F30E0D11054
:1049000001C0F12C2F0D311D2130310521F4E110B2
:1049100009C0011107C00E9420888DEB96E00E941B
:10492000FD84F4C0A7FC02C0B7FE07C00E94208827
:1049300082EE92E00E94FD84E9C00E944582EA2C4A
:10494000AA0CFF08AB2DBB0CBB0B002391F0F701A9
:10495000EE0FFF1FEE0DFF1DEA0FFB1FEE0FFF1FF7
:10496000EE0FFF1FEB51F54F2081318142815381C2
:1049700003C020E030E0A901F701EE0FFF1FEE0DAC
:10498000FF1DEA0FFB1FEE0FFF1FEE0FFF1F8F0132
:104990000B51154F0E94A9F8D8016D937D938D930B
:1049A0009C931397B3C09091C40A90FD02C087E016
:1049B00001C086E091FD8D7FFE0131961F0192FFBF
:1049C000B7C78B7F11F00C94C52C07E71BE123EBD5
:1049D00034E039A328A39AEAC92E9BE1D92E7F019E
:1049E000F8016591759185919491A8A1B9A18D90D7
:1049F0009D90AD90BD90B9A3A8A3A50194010E947C
:104A0000A8F82B013C01F7016083718382839383B3
:104A100020E030E040EA51EC0E9409FB87FD0AC02B
:104A200020E030E040EA51E4C301B2010E94A4F169
:104A300018162CF4F601849118160CF4A9C7D701A6
:104A40008D909D90AD90BD907D0120E030E040EADA
:104A500051ECC501B4010E9409FB87FDA4C720E009
:104A600030E040EA51E4C501B4010E94A4F11816F7
:104A70000CF0ADC798C70E94C4A248C00E94DFD501
:104A800045C081E08093FE120E94DCD61092FE1297
:104A90008823E1F10E9424888BE297E00E94FD8444
:104AA00035C08091A61182FF31C080648093A61129
:104AB0002DC081E0809353011092A30C83E50E94E6
:104AC000468B811123C00E941C9920C00E94388B04
:104AD0001DC00091BC0B1091BD0B0023B9F00E94CA
:104AE000248884E50E942C2FB8017727072E000C1C
:104AF000880B990B0E94A02F80E20E942C2F83E745
:104B000096E00E94FD8402C00E94388B6296FFAD41
:104B10006297F11102C00E940C9921962FAD219746
:104B200020932C0294C711E032E02316310409F0DF
:104B300010E020E030E0A901C701B6010E94A4F115
:104B4000881F8827881F1813A4C080E090E0A0E881
:104B5000BFE388A799A7AAA7BBA728A139A14AA103
:104B60005BA1C501B4010E94A8F820E030E040E05C
:104B70005FE30E940AF268A379A38AA39BA32CA1F6
:104B80003DA14EA15FA1C301B2010E94A8F820E09F
:104B900030E040E05FE30E940AF26CA37DA38EA3A5
:104BA0009FA328A139A14AA15BA1CA01B9010E9412
:104BB0000AF24B015C012CA13DA14EA15FA1CA01EB
:104BC000B9010E940AF29B01AC01C501B4010E9427
:104BD000A9F80E9457FB4B015C019B01AC01C70186
:104BE000B6010E94A8F82B013C01A5019401C70160
:104BF000B6010E94A9F89B01AC01C301B2010E9459
:104C00000AF26B017C0120E030E0A9010E9409FB5F
:104C100087FD07C0C701B6010E9457FB2B013C016D
:104C200003C0412C512C32016CA17DA18EA19FA10A
:104C30009058A50194010E94A3F928A539A54AA579
:104C40005BA50E940AF2A30192010E940AF228A128
:104C500039A14AA15BA10E94A9F86B017C01A501C1
:104C6000940168A179A18AA19BA10E94A3F928A51A
:104C700039A54AA55BA50E940AF2A30192010E94F0
:104C80000AF22CA13DA14EA15FA10E94A9F80C94AB
:104C9000B01680E090E0A0E8BFEB5BCF0E942088D8
:104CA00083EC92E00E94FD8431CF20E030E0A90146
:104CB000C701B6010E94A4F1882381F318A619A6A2
:104CC0001AA61BA6A7019601505828A339A34AA3E8
:104CD0005BA388A599A5AAA5BBA5B0588CA39DA345
:104CE000AEA3BFA3CA01B9010E940AF24B015C0145
:104CF0002CA13DA14EA15FA1CA01B9010E940AF2F7
:104D00009B01AC01C501B4010E94A9F80E9457FBA8
:104D10006CAF7DAF8EAF9FAF2091B3043091B404E0
:104D20004091B5045091B60428AB39AB4AAB5BABAC
:104D3000A701960168A979A98AA99BA90E94A9F847
:104D400025966CAF7DAF8EAF9FAF25978091B7044E
:104D50009091B804A091B904B091BA048CA79DA712
:104D6000AEA7BFA728A539A54AA55BA5BC01CD0163
:104D70000E94A9F829966CAF7DAF8EAF9FAF29979F
:104D80002091C50A3091C60A4091C70A5091C80ABD
:104D90002CAB3DAB4EAB5FAB25962CAD3DAD4EADD8
:104DA0005FAD25976CA97DA98EA99FA90E94A8F83F
:104DB0006B017C018091C90A9091CA0AA091CB0A2B
:104DC000B091CC0A88AF99AFAAAFBBAF29962CADF2
:104DD0003DAD4EAD5FAD2997BC01CD010E94A8F855
:104DE0004B015C01A701960168A179A18AA19BA151
:104DF0000E940AF22B013C01A50194016CA17DA146
:104E00008EA19FA10E940AF29B01AC01C301B201D5
:104E10000E94A9F82B013C01A501940168A179A188
:104E20008AA19BA10E940AF24B015C01A701960195
:104E30006CA17DA18EA19FA10E940AF29B01AC01F1
:104E4000C501B4010E94A8F8A30192010E9428F9AB
:104E50006B017C0120E030E0A9010E94A4F187FFF2
:104E60000AC02BED3FE049EC50E4C701B6010E94B7
:104E7000A9F86B017C012BED3FE049EC50E4C70140
:104E8000B6010E94A3F920E030E040EC51E40E941A
:104E90000AF20E9487F90E941CFA8B01672B11F419
:104EA00001E010E092E02916310451F42BED3FE0CF
:104EB00049EC50E4C701B6010E94A8F86B017C01DF
:104EC00020E030E0A901C701B6010E94A4F18111E0
:104ED00022C02CA93DA94EA95FA968A979A98AA9D0
:104EE0009BA90E94A4F1811116C028AD39AD4AAD2D
:104EF0005BAD6CA57DA58EA59FA50E94A4F1811137
:104F00000AC008E110E08BEDC82E8FE0D82E89ECA6
:104F1000E82E80E4F82E2091BB043091BC0440912F
:104F2000BD045091BE042CA73DA74EA75FA760917A
:104F3000CD0A7091CE0A8091CF0A9091D00A0E943A
:104F4000A8F84B015C01A70196016CAD7DAD8EAD5B
:104F50009FAD0E940AF22B013C0120E030E0A90144
:104F6000C501B4010E94A4F18823C9F0A3019201F4
:104F7000C301B2010E940AF22B013C01A501940178
:104F8000C501B4010E940AF29B01AC01C301B20148
:104F90000E94A9F80E9457FB2B013C010DC020E0A4
:104FA00030E0A901C301B2010E9409FB87FF04C0E0
:104FB00077FA709477F870942FE632E143E85AE379
:104FC000C301B2010E94A4F187FDF1C18091BF0429
:104FD0009091C004A091C104B091C2048CAB9DAB70
:104FE000AEABBFABC301B2010E944BFA0E941CFAE8
:104FF0001B016017710708F41801B10180E090E00F
:105000000E94A9F12B013C019B01AC01C701B60133
:105010000E94A3F968AB79AB8AAB9BABA301920169
:10502000C501B4010E94A3F92D966CAF7DAF8EAF80
:105030009FAF2D972CA93DA94EA95FA96091D10AD8
:105040007091D20A8091D30A9091D40A0E94A8F854
:10505000A30192010E94A3F961966CAF7DAF8EAF60
:105060009FAF619728A939A94AA95BA9CA01B901CB
:105070000E940AF220E030E040E05FE30E940AF282
:105080009B01AC0160E070E080E89FE30E94A8F81B
:1050900068AF79AF8AAF9BAF2CA53DA54EA55FA5A4
:1050A00029873A874B875C878CA99DA9AEA9BFA9A0
:1050B0008D879E87AF87B88B2AE037ED43E25CE3AC
:1050C000609145017091460180914701909148019E
:1050D0000E940AF26B017C016091430170914401CE
:1050E000072E000C880B990B0E94ABF19B01AC01C1
:1050F000C701B6010E940AF26C8F7D8F8E8F9F8F41
:105100000E94B4369B01AC0128533F4F4F4F5F4F75
:105110002CAF3DAF4EAF5FAF48A059A06AA07BA0B7
:1051200041E050E05DA74CA759E15CAB8CA59DA583
:105130008215930508F00FC10E9474B40E94B43622
:10514000DC01CB012CAD3DAD4EAD5FAD821B930BB1
:10515000A40BB50BB7FD0EC00E94B4369B01AC0189
:1051600028533F4F4F4F5F4F2CAF3DAF4EAF5FAF18
:105170000E9458303CA931503CAB3323E9F12CA1BB
:105180003DA14EA15FA168AD79AD8AAD9BAD0E94F6
:105190000AF26B017C019201A30168A979A98AA98D
:1051A0009BA90E940AF2A70196010E94A9F87B011F
:1051B0008C019201A30168AD79AD8AAD9BAD0E94CF
:1051C0000AF24B015C012CA13DA14EA15FA168A98F
:1051D00079A98AA99BA90E940AF29B01AC01C50189
:1051E000B4010E94A8F82B013C01C701D8018CA38F
:1051F0009DA3AEA3BFA34FC04CA55DA5BA0180E09F
:1052000090E00E94A9F128A939A94AA95BA90E94A6
:105210000AF24B015C010E949EF96B017C01C50101
:10522000B4010E9449FB4B015C01A701960168A1F2
:1052300079A18AA19BA10E940AF22B013C0128A519
:1052400039A54AA55BA5C501B4010E940AF2A301D4
:1052500092010E94A9F82B013C01A501940168A1CB
:1052600079A18AA19BA10E940AF24B015C0128A5A9
:1052700039A54AA55BA5C701B6010E940AF29B01A8
:10528000AC01C501B4010E94A8F86CA37DA38EA354
:105290009FA359E15CAB9201A30125966CAD7DAD56
:1052A0008EAD9FAD25970E94A9F869837A838B8381
:1052B0009C832CA13DA14EA15FA129966CAD7DAD33
:1052C0008EAD9FAD29970E94A9F86D837E838F8351
:1052D00098872D962CAD3DAD4EAD5FAD2D97698570
:1052E0007A858B859C850E94A9F869877A878B8748
:1052F0009C8761962CAD3DAD4EAD5FAD61976D85E0
:105300007E858F8598890E94A9F86D877E878F8713
:10531000988BCE0101960E94587CC12CD12C10E8AC
:10532000E12E1FE3F12E8E01045E1F4F9E01235FCD
:105330003F4FAE01475F5F4FBE016B5F7F4FCE01B6
:1053400001960E94505E882331F08CA59DA50196A0
:105350009DA78CA7EBCE80E1E5ECFAE0DE0111968B
:1053600001900D928A95E1F7CE0101960E94587C3A
:10537000C12CD12CB0E8EB2EBFE3FB2E8E01045ED6
:105380001F4F9E01235F3F4FAE01475F5F4FBE013E
:105390006B5F7F4FCE0101960E94505E80E1FE015F
:1053A0003196A3EBB4E001900D928A95E1F70E944B
:1053B000B4366093470C7093480C8093490C9093DB
:1053C0004A0CA4CB0E94204780E00E94A8838091D1
:1053D000450190914601A0914701B0914801809309
:1053E0002F0290933002A0933102B0933202809149
:1053F00043019091440190932E0280932D0284E604
:1054000090E0909344018093430181E08093BB023C
:105410000E94D98188E50E947882182F89E50E9430
:105420007882082F8AE50E947882101368C11817C5
:1054300011F0312E65C13324339411E091E098A727
:1054400080E1E3EBF4E0A5ECBAE001900D928A95DF
:10545000E1F782E50E94C182882369F00E944582BB
:105460006B017C0120E030E0A9010E94A4F18823B7
:1054700009F43FC006C0C12CD12CA0EAEA2EA0E45A
:10548000FA2E111103C0332009F40FC18091BD021F
:1054900082FD09C06091BB047091BC048091BD0481
:1054A0009091BE0403C060E070E0CB01A7019601BB
:1054B0000E94A9F86093CD0A7093CE0A8093CF0A18
:1054C0009093D00A2091BB043091BC044091BD045C
:1054D0005091BE040E9409FB18165CF419821A82CE
:1054E0001B821C82BE016F5F7F4F8DEC9AE00E9491
:1054F0005A8B112309F4D4C0332009F4CEC0109282
:10550000B3041092B4041092B5041092B604109231
:10551000B7041092B8041092B9041092BA040E9411
:10552000A980EAEAFBE1A491ACA7E3E8FBE1C5901E
:10553000D590E590F490E7E8FBE185909590A590F3
:10554000B490A5019401C701B6010E9409FB181689
:105550002CF4A7019601C501B40104C0A501940172
:10556000C701B6010E94A3F92B013C01E3E9FBE16D
:10557000259135914591549128A339A34AA35BA362
:10558000EFE8FBE185919591A591B4918CA39DA342
:10559000AEA3BFA39C01AD0168A179A18AA19BA183
:1055A0000E9409FB181634F42CA09DA198AB0EA103
:1055B0001FA105C028A0A9A1A8AB0AA11BA1A301F6
:1055C0009201C301B2010E940AF220E030E040E8FB
:1055D0005FE30E94A9F80E9457FB222D38A9A80179
:1055E0000E940AF269837A838B839C83EBEAFBE156
:1055F00014914090BB045090BC046090BD04709026
:10560000BE0420E030E040EC5FE3C501B4010E943D
:105610000AF24B015C01612F110F770B880B990B7C
:105620000E94ABF19B01AC01C501B4010E940AF2DA
:105630004B015C0120E030E040EC5FE3C701B601C4
:105640000E940AF26B017C01BCA56B2FBB0F770B8C
:10565000880B990B0E94ABF19B01AC01C701B6010D
:105660000E940AF2FE0131966F0183017201A501C9
:1056700094010E94EA7F0E94D1D51092B304109247
:10568000B4041092B5041092B6041092B7041092AC
:10569000B8041092B9041092BA0480E00E9448E95C
:1056A000332019F081E00E9448E9F8A5FF2319F0A2
:1056B00082E00E9448E90E94A9808091BA0280930A
:1056C000BB0280912F0290913002A0913102B091E3
:1056D00032028093450190934601A0934701B09315
:1056E000480180912D0290912E0290934401809365
:1056F000430183E0809351010E94AB8007CA302EA2
:1057000088A79ECE11110C94C71A0C94C01A0E943F
:1057100058300C94EB1A88E50E94788281115E98CB
:1057200089E50E94788281115E988AE50E947882DC
:10573000882309F4EBC91598E9C90E940D82AB01D1
:10574000BC014093A2115093A3116093A4117093D4
:10575000A51188E79FE00E94C85FD8C961E0802F4B
:105760000E94A28E6F2D802F0E94738E6F2D70E08D
:10577000802F0E94083694E0E912C8C9F092DF0435
:10578000C5C90E94204788E50E947882882331F0AD
:105790005E9A8091BD028E7F8093BD0289E50E9452
:1057A0007882882331F05E9A8091BD028D7F80934C
:1057B000BD028AE50E947882882309F4A7C9159A58
:1057C0008091BD028B7F8093BD02A0C983E50E94BA
:1057D000C182882391F00E9445826093EF09709303
:1057E000F0098093F1099093F2096093F70970939F
:1057F000F8098093F9099093FA0980E50E94C18223
:10580000882351F00E9445826093EF097093F0095C
:105810008093F1099093F20982E50E94C182882366
:1058200051F00E9445826093F3097093F4098093CC
:10583000F5099093F60984E50E94C182882309F452
:1058400065C90E9445826093F7097093F8098093B7
:10585000F9099093FA095AC982E40E947882882350
:1058600051F00E94FD816093CB097093CC09809325
:10587000CD099093CE0983E50E947882882351F068
:105880000E9445826093FB097093FC098093FD0997
:105890009093FE0984E50E947882882351F00E944B
:1058A00045826093FF097093000A8093010A9093E8
:1058B000020A8AE40E947882882309F427C90E9498
:1058C00045826B017C012AE037ED43E25CE30E94F4
:1058D00009FB87FD13C02AE939E949E95EE3C701FD
:1058E000B6010E94A4F118164CF0C092C304D092E5
:1058F000C404E092C504F092C60408C90E9420883E
:1059000080E196E00E94FD8401C960E070E080E0E3
:1059100090E40C94DD2260E070E080E090EC0C9468
:10592000DD2282E50E94788281110C940F23EEC85B
:1059300022E032E081FF03C044E052E002C048E1CF
:1059400052E080FF03C086E092E002C088E192E06E
:105950003F932F935F934F939F938F938DED96E09B
:105960009F938F933F922F920E943CF10E94248834
:10597000C1010E94373060E0C1010E9417AE0FB62E
:10598000F894DEBF0FBECDBFC1C828E132E0D2CF50
:10599000B7FAB094B7F8B094D7018D929D92AD92BA
:1059A000BC9213974CC80E9420888DE097E00E941B
:1059B000FD8461E08FEF96E00E949DAD0E9443BAA6
:1059C00068E270E088EC90E00E9470AD9FC80C5FC8
:1059D0001F4FBFEFCB1ADB0AEBE103381E0711F0B4
:1059E0000C94F0248EEBE82E82E0F82E10E0F1010A
:1059F00081919191A191B1911F01F70181939193AF
:105A0000A193B1937F01812F0E94387C1F5F1330D7
:105A100071F70E94AB8060E08FEE96E00E949DAD32
:105A200063E972E084E690E00E9470AD6AEB72E098
:105A300084E690E00E9470AD69C8C0904501D090A6
:105A40004601E0904701F09048010C942B18CF5A82
:105A5000DF4F0FB6F894DEBF0FBECDBFDF91CF9101
:105A60001F910F91FF90EF90DF90CF90BF90AF907C
:105A70009F908F907F906F905F904F903F902F906E
:105A800008955E9A8091BD028E7F8093BD025E9ADA
:105A90008091BD028D7F8093BD02159A8091BD02D9
:105AA0008B7F8093BD025E9A0895EC018B01F42EEA
:105AB0000E9455B00E94208882E399E00E94FD84F4
:105AC0000115110511F405E01FE1209711F4C9E259
:105AD000D9E00E94EC6E1F930F93DF93CF9382E285
