:100000000C947E150C94A8150C94A8150C94A815A6
:100010000C94A8150C94A8150C94A8150C94A8156C
:100020000C94A8150C94C3450C94A8150C94A81511
:100030000C94A8150C945C5D0C94A8150C94A81550
:100040000C94A8150C943F8A0C9479450C94A8152F
:100050000C949E360C9494360C94A8150C94A81508
:100060000C94A8150C94A8150C94A8150C94A8151C
:100070000C94A8150C94A8150C94A8150C94A8150C
:100080000C94A8150C94A8150C94A815E844ED44FC
:10009000F244FC442A452A4506450E4516452045AE
:1000A0005C8F5F8F528F568F768F768F638F678FBF
:1000B0006D8F718F68A727A65EA6A4A75EA65EA611
:1000C0005EA65EA65EA65EA65EA65EA65EA65EA610
:1000D0005EA65EA65EA65EA65EA65EA65EA65EA600
:1000E0005EA65EA65EA65EA65EA65EA65EA65EA6F0
:1000F0009EA75EA65EA65EA65EA65EA65EA65EA69F
:100100005EA677A75EA65EA65EA65EA65EA65EA6B5
:100110005EA65EA65EA65EA6BBA75BA6084AD73B08
:100120003BCE016E84BCBFFDC12F3D6C74319ABDC6
:1001300056833DDA3D00C77F11BED9E4BB4C3E91EA
:100140006BAAAABE000000803F05A84CCDB2D44ED9
:10015000B93836A9020C50B9918688083CA6AAAADB
:100160002ABE000000803F004E414E494E4954597E
:10017000494E46CDCCCC3D0AD7233C17B7D1387772
:10018000CC2B329595E6241FB14F0A000020410088
:1001900000C84200401C4620BCBE4CCA1B0E5AAED2
:1001A000C59D7400407A10F35A00A0724E180900E1
:1001B00010A5D4E80000E87648170000E40B5402CC
:1001C0000000CA9A3B000000E1F505000080969807
:1001D00000000040420F000000A086010000001057
:1001E0002700000000E80300000000640000000099
:1001F000000A00000000000100000000002C76D87A
:1002000088DC674F0823DFC1DFAE59E1B1B796E55F
:10021000E3E453C63AE651997696E8E6C28426EBC3
:10022000898C9B62ED407C6FFCEFBC9C9F40F2BAD6
:10023000A56FA5F490055A2AF75C936B6CF9676D6E
:10024000C11BFCE0E40D47FEF520E6B500D0ED90C3
:100250002E0300943577050080841E080000204E90
:100260000A000000C80C333333330F986E12831129
:1002700041EF8D2114893BE65516CFFEE6DB18D100
:10028000844B381BF77C1D901DA4BBE424203284D2
:10029000725E228100C9F124ECA1E53D2700000037
:1002A00000000000000000000000006B4300006B35
:1002B0004300007A43EF02EA02E302DC02CE0200CE
:1002C00000A0410000A04100008040FFFFFF434F1D
:1002D0004D4D554E49434154494F4E004452595299
:1002E000554E004552524F525300494E464F00451D
:1002F00043484F006F6B00454550524F4D204F4BC8
:100300000A00486F6D6520257325732573204669A3
:10031000727374004F666673657473204170706CFD
:10032000696564004572723A20546F6F206661728D
:100330002100546F6F206661722066726F6D2072AB
:1003400065666572656E636520706F696E740A001C
:100350006469730043290A0061626C656420286D3A
:10036000696E2074656D702000436F6C6420657841
:10037000747275646573206172652000496E7661E0
:100380006C69642065787472756465720A00206413
:100390003A0020693A0020703A0020466C6F773AA4
:1003A000200020204D61783A200020204D696E3ACF
:1003B0002000536F667420656E6473746F70733AB7
:1003C00020003F4A206F7574206F662072616E674F
:1003D000652028302E303120746F20302E33290ACA
:1003E00000205400205200416363656C65726174A3
:1003F000696F6E3A2050004D31343520533C696EA0
:100400006465783E206F7574206F662072616E6738
:10041000652028302D31290A002F2F200043484124
:100420004D4245525F54454D5045524154555245F9
:10043000004D4F54494F4E5F4D4F44455300544873
:1004400045524D414C5F50524F54454354494F4ED5
:10045000004155544F5245504F52545F53445F53DF
:1004600054415455530050524F4D50545F535550C2
:10047000504F525400454D455247454E43595F50E9
:10048000415253455200434153455F4C49474854FC
:100490005F4252494748544E45535300544F4747D3
:1004A0004C455F4C494748545300534F46545741BD
:1004B00052455F504F574552004255494C445F509A
:1004C000455243454E54004C4556454C494E475FB6
:1004D00044415441005A5F50524F424500415554E7
:1004E0004F4C4556454C005052494E545F4A4F427E
:1004F0000050524F4752455353004155544F5245B7
:10050000504F52545F54454D5000564F4C554D4539
:10051000545249430042494E4152595F46494C4565
:100520005F5452414E534645520053455249414C47
:100530005F584F4E5F584F4646004649524D57410F
:1005400052455F4E414D453A4D61726C696E2032A5
:100550002E302E3120284769744875622920534F68
:10056000555243455F434F44455F55524C3A68747A
:100570007470733A2F2F6769746875622E636F6D9C
:100580002F4D61726C696E4669726D776172652F6D
:100590004D61726C696E2050524F544F434F4C5F07
:1005A00056455253494F4E3A312E30204D41434823
:1005B000494E455F545950453A456E6465722D3336
:1005C0002045585452554445525F434F554E543A76
:1005D0003120555549443A63656465326132662D70
:1005E000343161322D343734382D396231322D6354
:1005F00035356336326633363766660A00456E64D3
:1006000065722D33204F46462E004D313133205335
:10061000004D3131322053687574646F776E006F0E
:1006200066660044454255473A0050726F746563F0
:100630007465642050696E0A002569792025696413
:10064000202569682025696D20256973005072692D
:100650006E742074696D653A200044656C65746938
:100660006F6E206661696C65642C2046696C653A22
:10067000200046696C652064656C657465643A00A9
:10068000286E6F2066696C65290043757272656E0D
:10069000742066696C653A20005344207072696E5C
:1006A00074696E67206279746520004E6F74205300
:1006B00044207072696E74696E670A00456E64202A
:1006C00066696C65206C6973740A00426567696EBF
:1006D0002066696C65206C6973740A004E6F204D4A
:1006E0006F76652E00436C69636B20746F205265D2
:1006F00073756D652E2E2E00536C6565702E2E2E33
:100700000047322F47332062616420706172616D4F
:1007100065746572730A004572726F722077726930
:1007200074696E6720746F20454550524F4D210A01
:1007300000627573793A2070617573656420666F25
:100740007220696E7075740A00627573793A207050
:10075000617573656420666F7220757365720A0037
:10076000627573793A2070726F63657373696E672F
:100770000A0053544F505045442E20005072696E69
:100780007465722073746F70706564206475652081
:10079000746F206572726F72732E204669782074B0
:1007A0006865206572726F7220616E642075736572
:1007B000204D39393920746F2072657374617274F9
:1007C0002E202854656D706572617475726520699C
:1007D000732072657365742E2053657420697420CC
:1007E00061667465722072657374617274696E6794
:1007F000290A004E6F20436865636B73756D20771F
:10080000697468206C696E65206E756D6265722C06
:10081000204C617374204C696E653A2000636865F2
:10082000636B73756D206D69736D617463682C20E3
:100830004C617374204C696E653A20004C696E659A
:10084000204E756D626572206973206E6F74204C46
:10085000617374204C696E65204E756D6265722BF4
:10086000312C204C617374204C696E653A20004D28
:10087000313130004D313137004D33310053442098
:1008800072656164206572726F720A00446F6E65F2
:10089000207072696E74696E672066696C650A0003
:1008A0002121204B494C4C206361757365642062A3
:1008B0007920746F6F206D75636820696E61637451
:1008C0006976652074696D65202D20637572726587
:1008D0006E7420636F6D6D616E643A2000506C65BC
:1008E000617365205265736574005052494E5445DA
:1008F000522048414C5445440025533A202553008A
:100900004B494C4C45442E20005072696E74657200
:100910002068616C7465642E206B696C6C282920DA
:1009200063616C6C6564210A006563686F3A004519
:1009300072726F723A00204D393220580020496E91
:1009400076616C69642065787472756465722000E4
:100950000F150E1216170E1303021A1401000E0CB7
:10096000190DFF180C04000154656D7065726174F7
:100970007572650046616E205370656564004E6F48
:100980007A7A6C65004D61696E00507265686561C8
:100990007420504C41204265640050726568656166
:1009A0007420504C4120456E64005072656865614A
:1009B000742041425320456E640050726568656141
:1009C00074204142532042656400436F6F6C646F32
:1009D000776E005072656865617420414253005023
:1009E00072656865617420504C41004261627973A0
:1009F000746570205A00466C6F770046696C2E2033
:100A00004469612E004520696E206D6DC2B3004DB2
:100A10003330332055312045256920532569005056
:100A20004944204175746F74756E65202A005049E1
:100A3000442D44202A005049442D49202A00504981
:100A4000442D50202A0020082046616374002008AD
:100A5000204D6178002008204D696E004F666600C9
:100A60004F6E004175746F74656D700002202050E8
:100A70006C616E6E65724275666665724279746508
:100A8000733A20002046726565204D656D6F72795E
:100A90003A2000436F6D70696C65643A2046656268
:100AA00020313120323032300A00204C6173742002
:100AB000557064617465643A20323031392D3132B9
:100AC0002D3234207C20417574686F723A2028746E
:100AD00068697369736B65697468622C20456E641C
:100AE00065722D33290A00322E302E310A004D61F5
:100AF000726C696E0020536F667477617265205264
:100B0000657365740A00205761746368646F6720B9
:100B100052657365740A002042726F776E206F759C
:100B2000742052657365740A002045787465726E8E
:100B3000616C2052657365740A00506F7765725559
:100B4000700A006175746F25632E6700473238584C
:100B500059006572726F722077726974696E6720CE
:100B6000746F2066696C650A00446F6E652073615E
:100B700076696E672066696C652E0A004D32390011
:100B8000456E6473746F70730025532025632025B0
:100B90006320256320256300205A3A0020593A003B
:100BA000656E6473746F7073206869743A200041D5
:100BB0006476616E6365642053657474696E6773EF
:100BC00000436F6E66696775726174696F6E004C81
:100BD0006F61642053657474696E67730052657346
:100BE000746F7265206661696C7361666500537429
:100BF0006F72652053657474696E67730050726517
:100C0000686561742041425320436F6E66005072E4
:100C1000656865617420504C4120436F6E660031F9
:100C20003235004245443A4550434F53203130302D
:100C30004B0052756E617761792057617463683A31
:100C4000204F4E004D61782054656D70003237356D
:100C5000004D696E2054656D700045313A20455055
:100C6000434F53203130304B005053550047656E91
:100C7000657269630050726F746F636F6C00312E20
:100C800030004261756400313135323030004D65DD
:100C90006C7A692028437265616C69747929004512
:100CA000787472756465727300687474703A2F2F6B
:100CB0006D61726C696E66772E6F726700456E6447
:100CC00065722D3300323031392D31322D323400FE
:100CD000322E302E3100546865726D6973746F72F4
:100CE0007300426F61726420496E666F00507269D2
:100CF0006E74657220496E666F004261636B0053CB
:100D0000746F70004D323100496E69742E204D654C
:100D1000646961004D32320052656C656173652013
:100D20004D656469610041626F7574205072696E2F
:100D300074657200526573756D65205072696E74CA
:100D4000004D656469612052656C6561736564007E
:100D500054756E650053746F70205072696E740024
:100D6000496E666F2053637265656E0020746F6F05
:100D7000206C6F6E6720657874727573696F6E2072
:100D800070726576656E7465640A0020636F6C64CA
:100D900020657874727573696F6E20707265766500
:100DA0006E7465640A00220A00556E6B6E6F776E72
:100DB00020636F6D6D616E643A20220045310062E0
:100DC0006564002C2073797374656D2073746F7083
:100DD00070656421204865617465725F49443A20FA
:100DE0000024F4D43050C38E20C2A24017828B70EE
:100DF00011127A910D816CD90AA861E108C7586671
:100E000007615143061E4B5D05C145A7041A4111F8
:100E100004093D9803713931034036DB0265339193
:100E200002D4305402802E1D02632CEE01752AC5B7
:100E300001B028A001102781018F2564012B244BCC
:100E400001E0223401AC211F018D200D01801FFC27
:100E500000841EED00971DDF00B81CD200E61BC603
:100E600000201BBC00641AB200B219A8000A19A025
:100E7000006A189900D117910040178B00B51684AD
:100E80000031167E00B31579003A157300C7146F50
:100E90000058146A00EE1366008813630025135E81
:100EA00000C7125B006C12570015125400C111519B
:100EB0000070114F0021114B00D61049008D1047D2
:100EC000004610440002104200C00F4000800F3E58
:100ED00000420F3C00060F3B00CB0E3800930E374C
:100EE000005C0E3500270E3400F30D3200C10D31C9
:100EF00000900D3000600D2E00320D2D00050D2CE0
:100F000000D90C2B00AE0C2900850C29005C0C27A5
:100F100000350C27000E0C2600E80B2400C40B241F
:100F200000A00B23007D0B23005A0B2100390B215D
:100F300000180B2000F80A1F00D90A1E00BB0A1E69
:100F4000009D0A1D00800A1D00630A1C00470A1B41
:100F5000002C0A1B00110A1A00F7091A00DD0919F2
:100F600000C4091900AB091900920917007B091880
:100F700000630917004C09160036091600200916EF
:100F8000000A091500F5081500E0081400CC081443
:100F900000B8081400A4081400900813007D08127B
:100FA000006B08130058081200460812003408119C
:100FB00000230811001208110001081100F00710A9
:100FC00000E0071000D0071000C0071000B0070FA6
:100FD00000A107100091070E0083070F0074070F90
:100FE0000065070E0057070E0049070E003B070D6E
:100FF000002E070E0020070D0013070D0006070D39
:1010000000F9060C00ED060D00E0060C00D4060CFD
:1010100000C8060C00BC060C00B0060C00A4060BB1
:101020000099060C008D060B0082060B0077060B5C
:10103000006C060B0061060A0057060B004C060AFE
:101040000042060A0038060A002E060A0024060A94
:10105000001A060A001006090007060A00FD050925
:1010600000F4050900EB050900E2050900D90509AE
:1010700000D0050900C7050900BE050900B505082F
:1010800000AD050800A50509009C050800940508A9
:10109000008C050800840508007C0508007405081C
:1010A000006C050700650508005D0507005605088A
:1010B000004E0507004705070040050800380507F2
:1010C00000310507002A050700230507001C050657
:1010D00000160507000F05070008050600020507B2
:1010E00000FB040600F5040700EE040600E8040611
:1010F00000E2040700DB040600D5040600CF040666
:1011000000C9040600C3040600BD040600B70406B7
:1011100000B1040500AC040600A6040600A0040506
:10112000009B04060095040500900406008A04054F
:101130000085040500800406007A04050075040596
:1011400000700405006B04050066040500610405D9
:10115000005C04050057040500520405004D040519
:101160000048040500430405003E0404003A040559
:101170000035040500300404002C04050027040495
:1011800000230405001E0404001A040400160405CC
:1011900000110404000D0404000904050004040403
:1011A0000000040400FC030400F8030400F403043A
:1011B00000F0030400EC030400E8030400E403046B
:1011C00000E0030400DC030400D8030400D403049B
:1011D00000D0030400CC030400C8030300C50303CC
:1011E0000024F404D9201BC40C5C0E9804C4095FCD
:1011F0000265077101F405F900FB04B30048048798
:1012000000C10369005803550003034500BE023ABC
:10121000008402310053022A002902250004022022
:1012200000E4011C00C8011900AF01170098011467
:101230000084011300710110006101100051010EC2
:101240000043010D0036010B002B010B0020010BA8
:1012500000150109000C01090003010800FB00084A
:1012600000F3000800EB000700E4000600DE0006C3
:1012700000D8000600D2000600CC000500C700051B
:1012800000C2000500BD000400B9000400B5000460
:1012900000B1000400AD000400A9000400A5000393
:1012A00000A20003009F0004009B000300980003BD
:1012B000009500020093000300900003008D0002DF
:1012C000008B0003008800020086000200840003F7
:1012D00000810002007F0002007D0002007B00020E
:1012E000007900020077000100760002007400021D
:1012F0000072000100710002006F0002006D000129
:10130000006C0002006A0001006900020067000131
:101310000066000100650001006400020062000137
:101320000061000100600001005F0002005D00013B
:10133000005C0001005B0001005A0001005900013F
:10134000005800010057000100560001005500013F
:10135000005400010053000000530001005200013E
:101360000051000100500001004F0001004E00003C
:10137000004E0001004D0001004C0001004B000038
:10138000004B0001004A0001004900010048000034
:10139000004800010047000100460000004600012F
:1013A000004500000045000100440001004300002A
:1013B0000043000100420000004200010041000023
:1013C0000041000100400001003F0000003F00011B
:1013D000003E0000003E0001003D0000003D000115
:1013E000003C0000003C0000003C0001003B00000D
:1013F000003B0001003A0000003A00010039000003
:1014000000390001003800000038000000380001F9
:1014100000370000003700010036000000360000F1
:1014200000360001003500000035000000350001E5
:1014300000340000003400000034000100330000DC
:1014400000330000003300010032000000320000D1
:1014500000320001003100000031000000310001C5
:10146000003000000030000000300001002F0000BC
:10147000002F0000002F0000002F0001002E0000B0
:10148000002E0000002E0001002D0000002D0000A5
:10149000002D0000002D0001002C0000002C000099
:1014A000002C0000002C0001002B0000002B00008D
:1014B000002B0000002B0001002A0000002A000081
:1014C000002A0000002A0001002900000029000075
:1014D0000029000000290000002900010028000068
:1014E000002800000028000000280000002800015B
:1014F0000027000000270000002700000027000050
:101500000027000100260000002600000026000041
:101510000026000000260001002500000025000034
:101520000025000000250000002500000025000126
:10153000002400000024000000240000002400001B
:10154000002400010023000000230000002300000D
:1015500000230000002300000023000000230001FE
:1015600000220000002200000022000000220000F3
:1015700000220000002200010021000000210000E4
:1015800000210000002100000021000000210000D7
:1015900000210001002000000020000000200000C9
:1015A00000200000002000000020000000200000BB
:1015B00000200001001F0000001F0000001F0000AD
:1015C000001F0000001F0000001F0000001F00019E
:1015D000001E0000001E0000001E0000001E000093
:1015E00000043700001E290000511B0000581000A5
:1015F0000010090000CC0400007802000041010046
:10160000001FE0201020102010102010202010209B
:101610001030300840048003001FE03FF03FF03FEF
:10162000F01FE01FE03FF03FF03FF00FC0078003E6
:10163000003FFFF038007030FC3020FC10207810A4
:101640002030102C00D02E31D02F7BD02F7BD02EED
:1016500031D02C00D020301020781020FC1030FC2D
:10166000303800703FFFF03FFFF0380070318630B7
:101670002387102787902F87D02F03D0203010206A
:1016800078102078102030102F03D02F87D0278794
:10169000902387103186303800703FFFF01FFFF82D
:1016A0001FFFF80410400208200208200410400820
:1016B00020801041001041000820800410400000EC
:1016C000001FFFF81FFFF8F80180000C48008000A1
:1016D0001243C38CD00271249267CC41249E4002F5
:1016E0004924904012FBB3CEE00C2568753A2530B2
:1016F00032687500256875642025303268753A2592
:1017000030326875002020202020202000436170A6
:101710003A00656E7175657565696E6720220052C5
:101720006573656E643A200020573A0045202553C2
:101730000042656420436F6F6C696E672E2E2E0029
:101740004265642048656174696E672E2E2E002301
:10175000646566696E652044454641554C545F009A
:101760004B6420004B6920004B70200050494420FE
:101770004175746F74756E652066696E697368650E
:1017800064212050757420746865206C6173742026
:101790004B702C204B6920616E64204B6420636F7A
:1017A0006E7374616E74732066726F6D2062656C07
:1017B0006F7720696E746F20436F6E66696775720C
:1017C0006174696F6E2E680A005049442041757437
:1017D0006F74756E65206661696C6564212074693B
:1017E0006D656F75740A000A20436C6173736963D9
:1017F00020504944200A00204B643A2000204B69C5
:101800003A2000204B703A20002054753A200020E6
:101810004B753A2000206D61783A2000206D696E8A
:101820003A200020643A200020626961733A200067
:10183000504944204175746F74756E6520737461EE
:1018400072740A00504944204175746F74756E6556
:10185000206661696C6564212054656D70657261F4
:101860007475726520746F6F20686967680A00502C
:101870004944204175746F74756E65206661696CAA
:1018800065642120426164206578747275646572B4
:10189000206E756D6265720A0053657474696E67B7
:1018A000732053746F726564202800486561746901
:1018B0006E67204661696C65640048656174696E95
:1018C00067206661696C656400202D20496E766131
:1018D0006C6964206578747275646572206E756DCC
:1018E00062657220210A00544845524D414C2052F5
:1018F000554E4157415900546865726D616C2052D4
:10190000756E61776179004572723A204D41585485
:10191000454D50004D415854454D502074726967F3
:101920006765726564004572723A204D494E5445B0
:101930004D50004D494E54454D50207472696767B3
:1019400065726564004D383420582059205A20456E
:1019500000202F002042403A0020403A0070012C25
:101960000190012701B0012201C0011D01F0011801
:10197000011002130130020E0160020901900204FD
:1019800001C002FF000003FA004003F5008003F0ED
:1019900000D003EB002004E6007004E100E004DC6A
:1019A000004005D700C005D2004006CD00D006C8D3
:1019B000008007C3003008BE00F008B900C009B4B9
:1019C00000B00AAF00B00BAA00D00CA500000EA01A
:1019D00000500F9B00C01096005012910000148C14
:1019E00000C0158700B0178200B0197D00D01B78A9
:1019F00000001E730040206E0090226900F02464F5
:101A00000040275F0090295A00E02B5500102E500F
:101A10000020304B0010324600E033410090353C4E
:101A2000001037370070383200A0392D00B03A2846
:101A300000A03B2300603C1E00103D1900903D14A7
:101A400000103E0F00703E0A00C03E0500003F003F
:101A500000403FFBFF803FF6FFC03FF1FF5072693F
:101A60006E742066726F6D204D65646961004D6F04
:101A700076652025736D6D004D6F766520302E31B3
:101A80006D6D004D6F766520316D6D004D6F766523
:101A90002031306D6D004D6F76652041786973009F
:101AA000486F74656E6420746F6F20636F6C6400A0
:101AB0004578747275646572004D6F7665205A00C2
:101AC0004D6F76652059004D6F76652058000000F7
:101AD0002100240027002A00000022002500280001
:101AE0002B00000020002300260029000202020231
:101AF00002020202040404040404040403030303B2
:101B000003030303010101010101010101020408B2
:101B100010204080010204081020408001020408C7
:101B200010204080804020100804020100000001C5
:101B30000200090A0000000004030807000000007A
:101B40000000000000000000000000007C3C3E5E41
:101B50002B3D3F2F5B5D3B2C2A225C002053697A92
:101B6000653A200043616E6E6F74206F70656E2061
:101B7000737562646972200053442063617264204B
:101B80006F6B0A006F70656E526F6F7420666169CB
:101B90006C65640A00766F6C756D652E696E69748C
:101BA000206661696C65640A00534420696E69743B
:101BB000206661696C0A004D3234004D32332025B5
:101BC000730046696C652073656C65637465640AAF
:101BD0000046696C65206F70656E65643A2000454B
:101BE0004E4420535542524F5554494E450A002207
:101BF00020706F73002220706172656E743A22004B
:101C0000535542524F5554494E452043414C4C2068
:101C10007461726765743A2200747279696E672024
:101C2000746F2063616C6C207375622D67636F64E1
:101C3000652066696C6573207769746820746F6FBE
:101C4000206D616E79206C6576656C732E204D4138
:101C500058206C6576656C2069733A310A005772BA
:101C60006974696E6720746F2066696C653A20003C
:101C7000646F696E67004E6F77200020627974652B
:101C8000733B2063726320004E6F20454550524FD6
:101C90004D2E0A00454550524F4D206461746173CA
:101CA000697A65206572726F722E0A002073746FF4
:101CB0007265642073657474696E677320726574ED
:101CC000726965766564202800202863616C6375FD
:101CD0006C6174656429210A0020213D200045457E
:101CE00050524F4D20435243206D69736D617463B0
:101CF00068202D202873746F726564292000496E56
:101D00006465783A2000204D61726C696E3D5637EB
:101D100034290A00454550524F4D2076657273694B
:101D20006F6E206D69736D6174636820284545503E
:101D3000524F4D3D0048617264636F646564204496
:101D4000656661756C742053657474696E67732081
:101D50004C6F616465640A0020490020204D3330D7
:101D6000312050005049442073657474696E677364
:101D70003A0A0020460020480020204D313435200A
:101D800053004D6174657269616C2068656174759A
:101D90007020706172616D65746572733A0A00201B
:101DA000204D323036205800486F6D65206F6666D2
:101DB0007365743A0A00204A0020204D32303520E5
:101DC0004200204A3C6A756E635F6465763E00415E
:101DD0006476616E6365643A20423C6D696E5F7340
:101DE00065676D656E745F74696D655F75733E20C0
:101DF000533C6D696E5F66656564726174653E2013
:101E0000543C6D696E5F74726176656C5F66656582
:101E100064726174653E0020204D323034205000E1
:101E2000416363656C65726174696F6E2028756EBD
:101E30006974732F7332293A20503C7072696E7442
:101E40005F616363656C3E20523C726574726163CE
:101E5000745F616363656C3E20543C7472617665A7
:101E60006C5F616363656C3E0A0020204D32303147
:101E70002058004D6178696D756D20416363656C14
:101E800065726174696F6E2028756E6974732F7343
:101E900032293A0A0020204D3230332058004D615B
:101EA00078696D756D20666565647261746573200F
:101EB00028756E6974732F73293A0A00537465701C
:101EC000732070657220756E69743A0A0020204D87
:101ED0003230302044300A0020204D32303020444F
:101EE000002044697361626C65640A0046696C6134
:101EF0006D656E742073657474696E67733A002043
:101F0000204D3134392043203B20556E69747320B5
:101F1000696E2043656C736975730A0020286D6DC6
:101F200029002020473231202020203B20556E6997
:101F3000747320696E206D6D00486F6D696E672047
:101F40004661696C6564000000FA430000FA4300D2
:101F500000A0400000C8410000A0420000A04200D4
:101F600000C8430000BA42F4010000F4010000641C
:101F7000000000881300003F0043616E63656C0041
:101F80004D6F74696F6E0053746172742050726982
:101F90006E740043616E6E6F7420656E746572209E
:101FA0007375626469723A2000022E2E0001526538
:101FB0006672657368004D38340044697361626C01
:101FC0006520537465707065727300473238004144
:101FD00075746F20486F6D65006F70656E20666167
:101FE000696C65642C2046696C653A20006F7065E9
:101FF0006E00545249474745524544007A5F6D6927
:102000006E00795F6D696E00785F6D696E00526574
:10201000706F7274696E6720656E6473746F702080
:102020007374617475730A0020436F756E74205861
:102030003A0020453A005761726E696E673A20484F
:102040006F6D696E672042756D70204469766973A3
:102050006F72203C20310A000202040000A0400000
:1020600000A040000000404A756E6374696F6E20E6
:10207000446576004573746570732F6D6D005A73F7
:10208000746570732F6D6D005973746570732F6D67
:102090006D005873746570732F6D6D00496E6974AF
:1020A000004D34323800496E697469616C697A6533
:1020B00020454550524F4D0046696C616D656E7408
:1020C0000053746570732F6D6D004A65726B00412B
:1020D0006363656C65726174696F6E0056656C6FE1
:1020E000636974790053657420486F6D65204F668D
:1020F0006673657473004572723A20757466382091
:10210000666F6E74206E6F7420696E697469616C9D
:10211000697A65642E00000C0D00FE07022603BCE0
:10212000017FFE08FE08FE05080806000040F0C812
:102130008888987810050808060000C0F888888804
:102140008888F80505050600012030F830200508CC
:10215000080600002070F820202020E0050909066C
:1021600000FF2070A8A8B888887020050606060021
:1021700001E08CEA8C8A0A0509090600FFF8A888A4
:1021800088888888A8F8050A0A0600FE2050505062
:102190005088A8A8887003030306000340A040FFEE
:1021A000FFFFFFFFFFFFFFFFFFFFFFFFFFFFFFFF3F
:1021B000FFFFFFFFFF0000000605FF010707060203
:1021C0000080808080800080030303060105A0A0BA
:1021D000A005060606000050F85050F85005090901
:1021E0000600FF2070A8A07028A870200507070629
:1021F0000000C8C810204098980507070600004056
:10220000A0A040A890680103030602058080800317
:1022100009090601FF2040408080804040200309DA
:10222000090601FF8040402020204040800507072C
:1022300006000020A8702070A820050505060001F2
:102240002020F820200203030601FFC04080050182
:1022500001060003F8020202060100C0C0050707DC
:102260000600000810102040408005070706000007
:10227000708898A8C8887003070706010040C0400E
:10228000404040E005070706000070880810204025
:10229000F8050707060000F80810300888700507E1
:1022A0000706000010305090F810100507070600D0
:1022B00000F880F008088870050707060000304025
:1022C00080F0888870050707060000F808101020C5
:1022D0002020050707060000708888708888700530
:1022E0000707060000708888780810600205050658
:1022F0000100C0C000C0C00206060601FFC0C00049
:10230000C0408003050506010120408040200503F0
:1023100003060002F800F8030505060101804020CD
:102320004080050707060000708810202000200567
:1023300007070600007088B8A8B880700507070670
:102340000000708888F8888888050707060000F074
:102350004848704848F005070706000070888080EC
:10236000808870050707060000F04848484848F094
:10237000050707060000F88080F08080F805070751
:10238000060000F88080F0808080050707060000C6
:102390007088808098887005070706000088888804
:1023A000F8888888030707060100E0404040404065
:1023B000E0050707060000381010101090600507B0
:1023C000070600008890A0C0A090880507070600B7
:1023D00000808080808080F805070706000088D88C
:1023E000A8888888880507070600008888C8A898F4
:1023F0008888050707060000708888888888700527
:102400000707060000F08888F0808080050707062F
:10241000000070888888A89068050707060000F00B
:102420008888F0A0908805070706000070888070F3
:10243000088870050707060000F8202020202020CB
:1024400005070706000088888888888870050707C0
:10245000060000888888885050200507070600007D
:1024600088888888A8A85005070706000088885033
:102470002050888805070706000088885020202003
:1024800020050707060000F80810204080F803091F
:10249000090601FFE080808080808080E0050707DA
:1024A000060000804040201010080309090601FFC3
:1024B000E020202020202020E00503030600052046
:1024C00050880501010600FEF8030303060105809C
:1024D0004020050505060000700878887805070784
:1024E0000600008080F0888888F005050506000059
:1024F00070808088700507070600000808788888C3
:1025000088780505050600007088F08070050707CB
:10251000060000304840E04040400507070600FE46
:10252000708888887808700507070600008080F0AA
:10253000888888880307070601004000C0404040A3
:10254000E00409090601FE10003010101010906020
:1025500005070706000080808890E0908803070741
:10256000060100C04040404040E00505050600006F
:10257000D0A8A8A8A8050505060000B0C8888888C6
:1025800005050506000070888888700507070600A5
:10259000FEF0888888F080800507070600FE7888AE
:1025A0008888780808050505060000B0C880808086
:1025B00005050506000078807008F005070706008D
:1025C000002020F820202018050505060000888836
:1025D000889868050505060000888888502005054C
:1025E000050600008888A8A8500505050600008893
:1025F000502050880507070600FE88888850204034
:1026000080050505060000F8102040F803090906BA
:1026100001FF20404040804040402001090906025F
:10262000FF8080808080808080800309090601FF10
:10263000804040402040404080050303060002489F
:10264000A890FFFFFFFFFFFFFFFFFFFFFFFFFFFF60
:10265000FFFFFFFFFFFFFFFFFFFFFFFFFFFFFFFF8A
:10266000FFFFFFFFFFFFFFFFFFFFFFFFFFF3FFFF86
:10267000FFFFFFFFFFFFFFFFFFFFFFFFFFE7FFFF82
:10268000FFFFFFFFFFFFFFFFFFFFFFFFFFCFFFFF8A
:10269000FFFFFFFFFFFFFFFFFFFFFFFFFF8FFFFFBA
:1026A000FFFFFFFFFFFFFFFFFFFFFFFFFE1FFFFF1B
:1026B000FFFFFFFFFFFFFFFFFFFFFFFFFC1FFFFF0D
:1026C000FFFFFFFFFFFFFFFFFFFFFFFFFF3FFFFFDA
:1026D000FFFFFFFFFFFFFFFFFFFFFFFFFE77FFFF93
:1026E000FFFFFFFFFFFFFF00000E00007E67FFFF00
:1026F000FFFFFFFFFFFFFE00000C00007CC7FFFF95
:10270000FFFFFFFFFFFFFFE000FF8003F9CFFFFFA8
:10271000FFFFFFFFFFFFFFF001FFC01FF99FFFFF5B
:10272000FFFFFFFFFFFFFFF801FFE03FF39FFFFF09
:10273000FFFFFFFFFFFFFFF801FFE0FFF33FFFFF99
:10274000FFFFFFFFFFFFFFF801FFE1FFE63FFFFF95
:10275000FFFFFFFFFFFFFFF801FFC3FFCE7FFFFF7B
:10276000FFFFFFFFFFFFFFF803FFC7FFCC7FFFFF67
:10277000FFFFFFFFFFFFFFF803FF8FFF9C03FFFF3B
:10278000FFFFFFFFFFFFFFF803FF3FFF9800FC7F05
:10279000FFFFFFFFFFFFFFF803FE7FFF307E007F9C
:1027A000FFFFFFFFFFFFFFF803FC7FFE30FF807F8E
:1027B000FFFFFFFFFFFFFFF803F87FFE61FFC07F11
:1027C000FFFFFFFFFFFFFFF803E03FFCE3FFE07FB9
:1027D000FFFFFFFFFFFFFFF803C03FFCC3FFE07FE9
:1027E000FFFFFFFFFFFFFFF803801FF9C7FFF07F28
:1027F000FFFFFFFFFFFFFFF803000FF987FFF87FE0
:10280000FFFFFFFFFFFFFFF800000FF307FFFC7F54
:10281000FFFFFFFFFFFFFFF8000007E707FFFC7F58
:10282000FFFFFFFFFFFFFFF801C003E607FFFE7F8A
:10283000FFFFFFFFFFFFFFF801E003CE07FFFE7F72
:10284000FFFFFFFFFFFFFFF803E001CC0FFFFFFFDB
:10285000FFFFFFFFFFFFFFF803F000980FFFFFFFF0
:10286000FFFFFFFFFFFFFFF803F000180FFFFFFF60
:10287000FFFFFFFFFFFFFFF803F800300FFFFFFF30
:10288000FFFFFFFFFFFFFFF803FC00700FE00000F9
:10289000FFFFFFFFFFFFFFF803FC00600FE00000F9
:1028A000FFFFFFFFFFFFFFF803FE00C00FFE000F5A
:1028B000FFFFFFFFFFFFFFF801FF00C00FFF001F3A
:1028C000FFFFFFFFFFFFFFF801FF018007FF801FF1
:1028D000FFFFFFFFFFFFFFF001FF838007FF801F67
:1028E000FFFFFFFFFFFFFE00001C030007FF801F2C
:1028F000FFFFFFFFFFFFFE000018066007FF801FBD
:10290000FFFFFFFFFFFFFFFFFFFFC67007FF803FD6
:10291000FFFFFFFFFFFFFFFFFFFFCCF007FF803F40
:10292000FFFFFFFFFFFFFFFFFFFF9CF803FF003FDC
:10293000FFFFFFFFFFFFFFFFFFFF99F803FF003FCF
:10294000FFFFFFFFFFFFFFFFFFFF31FC01FF001F45
:10295000FFFFFFFFFFFFFFFFFFFF33FE01FF001F31
:10296000FFFFFFFFFFFFFFFFFFFE67FF00FE001FEF
:10297000FFFFFFFFFFFFFFFFFFFCE7FFC03C0E1F55
:10298000FFFFFFFFFFFFFFFFFFFCCFFFF001FFBFD7
:10299000FFFFFFFFFFFFFFFFFFF98FFFFF1FFFFF9D
:1029A000FFFFFFFFFFFFFFFFFFFF9FFFFFFFFFFF97
:1029B000FFFFFFFFFFFFFFFFFFFF0FFFFFFFFFFF17
:1029C000FFFFFFFFFFFFFFFFFFFF0FFFFFFFFFFF07
:1029D000FFFFFFFFFFFFFFFFFFFE1FFFFFFFFFFFE8
:1029E000FFFFFFFFFFFFFFFFFFFE7FFFFFFFFFFF78
:1029F000FFFFFFFFFFFFFFFFFFFCFFFFFFFFFFFFEA
:102A0000FFFFFFFFFFFFFFFFFFF9FFFFFFFFFFFFDC
:102A1000FFFFFFFFFFFFFFFFFFF3FFFFFFFFFFFFD2
:102A2000FFFFFFFFFFFFFFFFFFFFFFFFFFFFFFFFB6
:102A3000FFFFFFFFFFFFFFFFFFFFFFFFFFFFFFFFA6
:102A4000FFFFFF5654726176204D696E00566D6926
:102A50006E00566D6178204500566D6178205A00F1
:102A6000566D6178205900566D6178205800416D8F
:102A70006178204500416D6178205A00416D617890
:102A8000205900416D6178205800412D54726176C3
:102A9000656C00412D52657472616374004163631B
:102AA000656C005072696E742050617573656400C6
:102AB0005061757365205072696E74004D6564696C
:102AC0006120496E73657274656400456E64657259
:102AD0002D332052656164792E005072696E7469DD
:102AE0006E672E2E2E005072696E742041626F72D6
:102AF000746564004D3235005CE142E111241FBE73
:102B0000CFEFD0E4DEBFCDBF12E0A0E0B1E0E0EB5C
:102B1000F3EE01E00BBF02C007900D92AC31B1079C
:102B2000D9F722E1ACE1B2E001C01D92A23EB207AA
:102B3000E1F715E1CDE7D5E104C02197FE010E9440
:102B400021EECC37D107C9F70E9449D90C94CBF1BB
:102B50000C9400002F923F924F925F926F927F925F
:102B60008F929F92AF92BF92CF92DF92EF92FF929D
:102B70000F931F93CF93DF93CDB7DEB7C055D10925
:102B80000FB6F894DEBF0FBECDBF2091FE02219696
:102B90002FAF219711E01093FE028091FD028D343A
:102BA00009F473C2843511F40C942024873411F095
:102BB0000C943B242090FB023090FC0234E023165E
:102BC000310409F49BC154F437FC5BC280912801A5
:102BD00052E0251631040CF005C12FC08AE52816F5
:102BE000310409F4D9C164F4A5E12A16310411F4C1
:102BF0000C943D24BCE12B16310409F4BDC141C243
:102C0000EBE52E16310409F4CBC1FCE52F16310497
:102C100009F037C221E6222E21E0322E35E6E32EDE
:102C200032E0F32E2AED32E039A328A341E7C42E87
:102C300042E0D42E00E010E0F3C1882311F40C949C
:102C40003D240E94F02C8AEE92E00E9482C3809183
:102C5000320A83FD88C02091E6023091E70240915C
:102C6000E8025091E9026091F6027091F7028091BA
:102C7000F8029091F9020E943CE7882309F473C09E
:102C80008091680581111EC020E030E0A9016091AB
:102C90006D0570916E0580916F05909170050E9491
:102CA00033EE0E949FEF20913A0130913B01621771
:102CB000730744F40E941F2F8BE89DE00E94F92EB9
:102CC00011E001C010E02091E6023091E70240914E
:102CD000E8025091E9026091F6027091F70280914A
:102CE000F8029091F9020E9432EE6B017C0120E023
:102CF00030E0A9010E9493F087FF04C0F7FAF09436
:102D0000F7F8F09420913601309137014091380165
:102D100050913901C701B6010E94A2E720E030E0DE
:102D200048E453E40E9493F018163CF40E941F2FCD
:102D30008CE69DE00E94F92E02C01123A1F0809143
:102D4000F6029091F702A091F802B091F9028093F7
:102D5000E6029093E702A093E802B093E90286EFBF
:102D600092E00E9404652AE037ED43E25CE3609163
:102D700024017091250180912601909127010E94E4
:102D8000A2E76B017C016091220170912301072E63
:102D9000000C880B990B0E9443E79B01AC01C70113
:102DA000B6010E94A2E769837A838B839C83C12C3E
:102DB000D12C76018E010F5F1F4F26EF32E042EFDC
:102DC00052E06EEE72E08AEE92E00E94945B80E147
:102DD000EAEEF2E0AAEDB2E001900D928A95E1F7F9
:102DE0000C943D24882311F40C943D240E94F02C73
:102DF00082E50E94E32C882309F44EC00E94672CD0
:102E00006B017C0120E030E0A9010E943CE78823AF
:102E100011F40C9404252091DA023091DB024091E8
:102E2000DC025091DD0228A339A34AA35BA3809161
:102E3000DE029091DF02A091E002B091E1028CA34A
:102E40009DA3AEA3BFA38090EA029090EB02A09056
:102E5000EC02B090ED024090EE025090EF026090D4
:102E6000F0027090F102A501940168A179A18AA1F4
:102E70009BA10E943CE781110C944524A30192017F
:102E80006CA17DA18EA19FA10E943CE7882311F433
:102E90000C9404250C94452489E40E94E32C882397
:102EA00029F00E94672C6B017C0103C0C12CD12C3E
:102EB00076018AE40E94E32C882311F40C940B25FC
:102EC0000E94672C68A779A78AA79BA720E030E01B
:102ED000A901C701B6010E943CE781110C94182595
:102EE00020E030E0A90168A579A58AA59BA50E94EC
:102EF0003CE781110C9418250C94042580E50E9470
:102F0000E32C882329F00E94232C6B017C0103C051
:102F1000C12CD12C760183E50E94E32C882361F03B
:102F20000E94672C20E030E04AE754E40E94A2E7C8
:102F30000E94A6EF6B017C010E943CC0809181023F
:102F4000811105C060E088EF96E00E94D3D40E9412
:102F50006D45C60ED71EE81EF91E0E946D45DC01A8
:102F6000CB018C199D09AE09BF09B7FD02C00C94B5
:102F70003D240E94B431F1CF809180028770873068
:102F800011F00C949A2860E08FE40E94BE2D81110C
:102F90000C943D240C949A281092FA020C943D242F
:102FA0008FE08093FA020C943D240E94672C2B0141
:102FB0003C01133049F0F601208131814281538177
:102FC0000E9432EE2B013C01A8A1B9A12D913D91A7
:102FD0004D915C91C301B2010E9432EE4B015C0144
:102FE0002DEB37E346E855EB0E9493F087FD20C0B8
:102FF0002DEB37E346E855E3C501B4010E943CE7F9
:103000001816B4F01F5FB4E0EB0EF11CE8A1F9A1B3
:103010003496F9A3E8A3F4E0CF0ED11C143039F1B3
:10302000D1018D911D010E94E32C882359F3BDCF5E
:10303000133051F44092E6025092E7026092E802A7
:103040007092E90201E0DECFA5019401F7016081F1
:103050007181828193810E9433EED7016D937D93BC
:103060008D939C931397812F0E9462C3CBCF002333
:1030700021F086EE92E00E9404650E94F1C50C9456
:103080003D240E945B5C0C943D248091FB02909156
:10309000FC028137910509F411C50CF0CBC08A32CE
:1030A000910509F41CC40CF06AC08831910509F43B
:1030B00035C20CF049C08231910509F486C56CF423
:1030C00097FF02C00C941D24823091050CF47EC140
:1030D000419709F4F2C10C941D248531910509F43E
:1030E00000C22CF5449711F00C941D248BEC96E053
:1030F0000E94F92E89EA9FE00E94BC9B8BE1E9EADD
:10310000FFE0DE01119601900D928A95E1F760E0F3
:1031100070E0CE0101960E9483A4CE0101960E9428
:10312000B09D8CEB96E00E94F92E0C943D248631E4
:10313000910509F4DAC1479711F00C941D24E09130
:103140006302F0916402DEC18C31910509F46CC216
:103150003CF48A31910509F406C20CF4EBC111C2AA
:103160008E31910509F46FC20CF466C28F3191055E
:1031700009F40BC3809709F4C5C20C941D248C3547
:10318000910509F468C534F58135910509F4FBC44E
:103190008CF48C34910509F4C2C38D34910509F483
:1031A000D1C38B34910511F00C941D240E941B7E19
:1031B0000C943D248335910509F400C50CF4F7C443
:1031C0008435910509F401C58535910509F42AC5B1
:1031D0000C941D248C36910509F468C4ACF489362E
:1031E000910509F4D4C334F48836910509F4ADC3CC
:1031F0000C941D248A36910509F4DFC38B369105A2
:1032000009F4F7C30C941D248E36910509F4F9C313
:103210000CF4BAC38F36910509F404C480379105C4
:1032200011F00C941D2441E060E070E081E196E033
:103230000E94232F8C3D910511F40C949B210CF0DE
:1032400050C08139910509F45AC60CF586379105AD
:1032500009F409C664F48337910509F48BC50CF4AD
:1032600084C58537910509F4EEC50C941D24883773
:10327000910509F435C60CF430C68937910509F477
:1032800037C68C38910509F43BC40C941D248B3C43
:10329000910509F4FFC6ACF48E3B910509F44AC4CC
:1032A00034F48B39910509F448C40C941D24883CEE
:1032B000910509F47FC6893C910509F4C8C60C94B0
:1032C0001D248D3C910509F43BC70CF405C78E3CC9
:1032D000910509F448C7833D910509F466C70C942C
:1032E0001D248A3921E0920709F4E5C38CF58C325C
:1032F00041E0940711F40C94A32294F4823E9105CA
:1033000011F40C94FE218232A1E09A0711F40C947E
:1033100049228D3D910511F00C941D240C94A82197
:103320008E32B1E09B0711F40C94372314F40C9403
:10333000B8228F32F1E09F0711F40C947B2380397F
:10334000914011F00C941D240E943CC00C943D242B
:10335000873F31E0930711F40C94EF23ECF4843FA2
:1033600051E0950711F40C94E9233CF48C3A914018
:1033700011F40C947E230C941D24853FE1E09E07FC
:1033800011F40C94EC23863F914011F00C941D2411
:103390000E9443AB0C943D248C3022E0920711F440
:1033A0000C9407243CF4883F914011F40C94F723CB
:1033B0000C941D24803A53E0950709F4D8C1873E48
:1033C000934011F40C940F240C941D24A0906302DC
:1033D000B090640280E50E94E32C882359F00E949B
:1033E000232C6B017C0111E0672B682B692B31F4D6
:1033F00010E004C010E0C12CD12C760183E50E94BE
:10340000E32C882311F40C944A2A0E94672C20E0B4
:1034100030E04AE754E40E94A2E70E94A6EF6B0165
:103420007C0111110BC0672B682B692B39F4A11497
:10343000B10421F0F5018081811102C010E001C0CA
:1034400011E00E943CC0112329F061E0C5010E94F7
:103450004DD505C060E085EE96E00E94D3D483E0B0
:103460008093FE0281E080936202C114D104E104E2
:10347000F104B1F00E946D45C60ED71EE81EF91E7C
:103480000E946D45DC01CB018C199D09AE09BF0975
:10349000B7FF0DC08091620281110C944F2A07C0C2
:1034A00080916202882319F00E94B431F9CF0E9402
:1034B00072D5109262020C943D2480915E0284FFCA
:1034C00002C00C94532A8091600287FF02C00C94C2
:1034D000532A80916102837011F00C94532A0C944A
:1034E000652A0E9494A10C943D240E9425A18091FC
:1034F0006611877F809366110C943D24803209F415
:103500001082319680818111F9CF60E08091630251
:10351000909164020E9467A30C943D240E94952E12
:10352000882321F00E9434A10E941B7E0E9472D544
:103530000C943D248091661182FF03C08B7F8093A1
:10354000661180915D02813089F782E080935D028F
:103550000E946D456093590270935A0280935B02FA
:1035600090935C02E3CF8091661183FD02C00C94BE
:103570003D2483E50E94E32C81110C946F2A0C9466
:103580003D2483E40E949A2C882319F18AE896E06E
:103590000E94F92E8091530F882391F0BE016F5F36
:1035A0007F4F80E59FE00E94839A8E010F5F1F4F3F
:1035B000D8018D918D01882339F00E94F22EF8CF29
:1035C00080E896E00E94F92E8AE00E94F22E0C9488
:1035D0003D248091661182FF21C089E996E00E9416
:1035E000F92E609162117091631180916411909134
:1035F00065114AE00E94EF2F8FE20E94F22E609147
:103600005E1170915F1180916011909161114AE09B
:103610000E94EF2F0E948D310C943D248BEA96E09E
:103620000E94F92E0C943D248091630290916402D3
:103630000E941CA30C943D24809166118E7F809380
:1036400066110C943D248091661183FD02C00C9498
:103650003D240E94445C8091661183FD02C00C945D
:103660003D246091630270916402CE014C960E94E9
:1036700015BD8C01009711F40C943D246C8D7D8D4B
:1036800019821C8222E0AC01CE0101960E94B69DF7
:10369000811102C0F12C14C0CE0101960E9483BC9E
:1036A0008823C1F361E0CE0101960E942B9A009716
:1036B00089F325EEFC0120831C820E94B395F82E2D
:1036C000CE0101960E94B09DB801FF2089F082E7EB
:1036D00096E00E94082F8AE00E94F22E109262115A
:1036E0001092631110926411109265110C943D2494
:1036F0008AE596E00E94082F81E99CE10E94F92E5C
:103700000C943D248091661182FD0E943CC0809102
:10371000661183FD02C00C943D2460E080E50E94A8
:10372000BE2D182F682F80916302909164020E9431
:1037300067A383E50E94E32C882381F00E94332C49
:10374000AB01BC014093621150936311609364110B
:103750007093651180E59FE00E94A6970E9434A1B6
:1037600011110C943D240E941B7E0C943D24209149
:103770006302309164029091661192609093661199
:10378000C9010E941CA30C943D240E94CC7D7B01A6
:103790008C0120E831E541E050E00E9492EDC90142
:1037A0006DE671E00E94DAED4B015C01C801B701E2
:1037B00020E13EE040E050E00E9492EDCA01B901F4
:1037C00028E130E040E050E00E9492ED762E672E36
:1037D000C62ED72E9CE3292E312C412C512CC8010A
:1037E000B701A20191010E9492EDF62EE72ECA01C7
:1037F000B901A20191010E9492EDCB018E010F5FF0
:103800001F4F8114910499F0EF92FF927F936F9371
:103810006F927F92BF92AF929F928F9289E396E0D0
:103820009F938F931F930F930E94D4E613C0A1140C
:10383000B104B1F0EF92FF927F936F936F927F92FA
:10384000BF92AF928DE396E09F938F931F930F9358
:103850000E94D4E60FB6F894DEBF0FBECDBF30C0D5
:10386000CD2879F0EF92FF927F936F936F927F92C2
:1038700081E496E09F938F931F930F930E94D4E669
:10388000E9CF892B69F0EF92FF927F936F9385E4E4
:1038900096E09F938F931F930F930E94D4E6DACF05
:1038A000EF92FF9289E496E09F938F931F930F937B
:1038B0000E94D4E60F900F900F900F900F900F90F2
:1038C00060E0C8010E944DD50E941F2FB8018DE411
:1038D00096E00E94082F8AE00E94F22ECEC783E570
:1038E0000E94E32C882309F4C8C70E94432CF82EB9
:1038F0006FEF7FEF80E50E94AB2D8C0197FDBDC778
:10390000E82E60E089E40E94BE2D81110C94802A8B
:10391000802F0E94FDD881118EC50C94802A809141
:103920005D02813009F0A9C782E080935D020E94A8
:103930006D456093590270935A0280935B02909395
:103940005C029BC70E943F7E98C78091320A83FD2C
:1039500094C70E94A33087FD90C783E50E94E32CA3
:10396000882379F00E94672C0E949FEF8B01CB0186
:103970000E94D18A0635110524F40E943F7E0E94E0
:1039800072D50E948D6479C70E94707476C70E94B8
:10399000A330182F87FD0AC084EF92E00E94F92E11
:1039A000812F0E944C888AE00E94F22E2196BFADA2
:1039B0002197B093FE020C94F02B80E50E94695C85
:1039C00081115BC781E40E949A2C882321F06091C9
:1039D000570570E002C06FEF70E083E50E94D27877
:1039E0008F3F910519F010F08FEF90E0809357050D
:1039F00044C780E50E94695C81113FC7109257055A
:103A00003CC78EE40E94E32C882309F436C70E9449
:103A1000332C609355027093560280935702909313
:103A200058022BC783E50E949A2C882329F083E54E
:103A30000E94695C8093320A0E941F2F83E296E005
:103A40000E94F92E8091320A882369F185EBE82ED5
:103A500082E0F82E00E010E020E08091320A90E051
:103A6000A0E0B0E0002E04C0B695A7959795879585
:103A70000A94D2F780FF0EC0DD24D394D20E222305
:103A800019F08CE20E94F22EF701859194910E9428
:103A9000F92E2D2D0F5F1F4FE2E0EE0EF11C0530C9
:103AA0001105D9F691CD8FE196E08CCD109262028E
:103AB00010922001E2C60E940B2EDFC683E50E9411
:103AC000E32C882371F00E94432C282F30E02D3303
:103AD00031051CF480931F01D0C68CE380931F0135
:103AE000CCC60E941F2F40911F0150E060E070E0A3
:103AF0008AE096E00E945C308AE00E94F22EBDC609
:103B00008091320A83FDB9C683E50E94E32C8823A5
:103B100009F4B3C60E94672C0E949FEF63377105BA
:103B200014F063E770E070935302609352020E94B6
:103B3000E285A3C60E949472A0C683E50E94E32C8E
:103B4000882309F49AC60E94432C182F90E0CD9741
:103B50000CF01CE3109349020E946D456B017C013F
:103B6000212F30E0A8EEB3E00E94BFEDC60ED71EB5
:103B7000E81EF91EC0924502D0924602E09247022A
:103B8000F09248027AC60E94E28A0E943F7E0E941A
:103B900034C10E94922E68EE73E080E090E00E94B3
:103BA000D32D60E08DEF95E00E94D3D466C680915E
:103BB000FA028F7D80618093FA025FC68091FA02DB
:103BC0008F7E80628093FA0258C683E50E94E32CC0
:103BD000882399F00E94672C20E030E04AE754E403
:103BE0000E94A2E70E94A6EF60931B0170931C0144
:103BF00080931D0190931E0140C680915E0284FF58
:103C000002C00C94932A8091600287FF02C00C943A
:103C1000932A80916102837011F00C94932A0E9480
:103C200034C12BC683E50E949A2C882309F425C64B
:103C30000E94672C20E030E04AE754E40E94A2E7AB
:103C40000E94A6EF60934102709342028093430268
:103C50009093440212C60E94A33087FD0EC6909135
:103C60005E0294FD04C09091600297FF0AC011E6C5
:103C7000C12E11E0D12E03E3E02E0AE0F02E10E079
:103C800009C090916102937091F7682F81E00E94C2
:103C90005231F3C5D6018D916D010E94E32C88232A
:103CA00009F459C0133009F04FC00E94672C4B0132
:103CB0005C0120E030E040EA51E40E943CE787FFED
:103CC0003AC0A50194016091530A7091540A809101
:103CD000550A9091560A0E942DEF2B013C019B0141
:103CE000AC016091630A7091640A8091650A9091B9
:103CF000660A0E94A2E76093630A7093640A809345
:103D0000650A9093660A60914B0570914C0580910D
:103D10004D0590914E050E9441E7A30192010E943A
:103D2000A2E70E94A6EF60934B0570934C05809329
:103D30004D0590934E058092530A9092540AA0929A
:103D4000550AB092560A07C00E94672CF701648B8F
:103D5000758B868B978B1F5FF4E0EF0EF11C143090
:103D600009F098CF0E94426688C50E943CC00E941C
:103D7000F1C583C58AE395E00E94F92E60E08AE2EE
:103D800095E00E94E57860E085E195E00E94E578A5
:103D900061E081EB90E20E94E57861E08AE095E0E5
:103DA0000E94E57861E08AEF94E00E94E57860E0A7
:103DB00081EF94E00E94E57861E087EE94E00E9454
:103DC000E57860E08DED94E00E94E57860E085EDB7
:103DD00094E00E94E57860E087EC94E00E94E5784A
:103DE00060E089EB94E00E94E57860E08AEA94E084
:103DF0000E94E57860E08CE994E00E94E57860E05C
:103E000086E894E00E94E57860E085E794E00E940F
:103E1000E57860E086E694E00E94E57860E081E580
:103E200094E00E94E57861E08EE394E00E94E578FA
:103E300060E081E394E00E94E57860E08DE194E049
:103E40000E94E5781AC58091630290916402009700
:103E500009F46CCBDC012C91222309F467CB60E0E0
:103E60000E944DD50AC5009163021091640294E04E
:103E7000F12C40E0915021F1F8018081282F2B7F17
:103E8000213421F421812133D9F407C08035C1F4D4
:103E9000818180538A3048F013C0813421F0853409
:103EA00021F441E002C0FF24F39498012E5F3F4FBC
:103EB00089012F5F3F4FF80180818032C9F3DACF4B
:103EC00041110E941F2FFF2021F089E194E00E9400
:103ED000F92EC8010E949331D0C40E9404C7CDC4FA
:103EE00081E080937D0280937E020E941FC7C5C43B
:103EF00010927D0210927E020E941FC7BEC460E035
:103F000070E083E50E94AB2D8C0111270230110572
:103F10003CF00E941B2F87EF93E00E94F92EADC466
:103F200088E40E94E32C8823A9F00E94332C6A3A8B
:103F300071053CF06530F1E07F072CF064E071E042
:103F400002C06AEA70E0F801EE0FFF1FE35CFD4F6C
:103F50007183608386E40E94E32C882381F00E94B1
:103F6000332C77FD07C06F3F710529F024F06FEF08
:103F700070E001C060E0F801E55CFD4F608382E421
:103F80000E94E32C882309F478C40E94332C653006
:103F9000710534F0643771052CF063E770E002C0FE
:103FA00065E070E0000F111FF801E95CFD4F7183BF
:103FB000608363C40E94A330182F87FD5EC484E42D
:103FC0000E949A2C882309F43FC00E94672C6B0141
:103FD0007C0101E020E030E0A9010E943CE7811172
:103FE00001C000E00093360220E030E0A901C701E3
:103FF000B6010E943CE7882339F10E94672C24E037
:104000001202F0011124EE5CFD4F60837183828304
:10401000938320E030E0A901609132027091330275
:1040200080913402909135020E943CE781110CC0CE
:1040300080E090E0A0EEBFE38093320290933302E1
:10404000A0933402B09335020E9468BF16C40E9448
:10405000A33087FD12C4F1E6EF2EF1E0FF2E03E35B
:104060001AE0D7018D917D010E949A2C882359F086
:104070000E94672C0E94A6EFF801608371838283FF
:1040800093830E94BD640C5F1F4FFAE003341F0747
:1040900041F7F3C30E94A33087FDEFC371E6E72E1B
:1040A00071E0F72E03E31AE0E3E4CE2EEAE0DE2E21
:1040B000D7018D917D010E949A2C882339F00E94AE
:1040C000672CF80164A375A386A397A30C5F1F4F09
:1040D000C016D10669F7D1C380915F0287FF02C085
:1040E0000C94B82A809160028E7011F00C94B82A5A
:1040F0004091670A5091680A6091690A70916A0A52
:1041000087EE93E00E94413140916B0A50916C0A16
:1041100060916D0A70916E0A84EE93E00E944131C5
:1041200040916F0A5091700A6091710A7091720A01
:1041300081EE93E00E9441318AE00E94F22E9DC3FD
:1041400080915E0281FF02C00C94FE2A80915F0282
:1041500081FF02C00C94FE2A809160028C7011F0E5
:104160000C94FE2A8AC351E6C52E51E0D52E66E294
:10417000E62E62E0F62E10E0D6018D916D010E94D0
:104180009A2C882351F00E94672CF7016083718379
:1041900082839383812F0E9462C31F5FF4E0EF0E3E
:1041A000F11C133049F70C943D1840907102509067
:1041B000720260907302709074022091030130913A
:1041C00004014091050150910601C301B2010E9412
:1041D00033EE68A379A38AA39BA380907502909085
:1041E0007602A0907702B09078022091070130917A
:1041F00008014091090150910A01C501B4010E94D2
:1042000033EE6CA37DA38EA39FA3C0907902D090C0
:104210007A02E0907B02F0907C0220910B013091B9
:104220000C0140910D0150910E01C701B6010E9491
:1042300033EE68A779A78AA79BA720910F01309139
:1042400010014091110150911201C301B2010E946D
:1042500033EE2B013C012091130130911401409168
:10426000150150911601C501B4010E9433EE4B01B6
:104270005C01209117013091180140911901509172
:104280001A01C701B6010E9433EE6B017C010E9446
:104290001F2F82EB93E00E94F92E83E50E949A2C57
:1042A000882321F00E94572C809302018091020103
:1042B000882319F081E49CE002C086E395E00E9427
:1042C000F92E8AEA93E00E94F92E48A159A16AA129
:1042D0007BA180E79EE10E9441314CA15DA16EA1CE
:1042E0007FA184EC9AE10E94413148A559A56AA5B5
:1042F0007BA58DEB9AE10E9441318BE097E10E9412
:10430000F92E82EA93E00E94F92EB301A20180E720
:104310009EE10E944131B501A40184EC9AE10E9422
:104320004131B701A6018DEB9AE10E9441318AE04B
:104330000E94F22EA2C283E50E94E32C882309F496
:104340009CC20E94332C709323016093220195C27A
:104350000E94A330F82E87FD90C283E50E94E32CD3
:104360000F2D0F2C000C110B882369F10E94332CA8
:10437000F801EE0FFF1FE050FF4F71836083000FC5
:10438000111F000F111F98012A5C3E4F7901072E63
:10439000000C880B990B0E9443E72AE037ED43E2BB
:1043A0005CE30E94A2E7F801EE5DFD4F20813181C0
:1043B000428153810E94A2E7D7016D937D938D9333
:1043C0009C9313975AC20E941F2F85E40E94F22EDD
:1043D00080E38F0D0E94F22EF801EE0FFF1FE050D8
:1043E000FF4F608171818AE993E00E94963085E2F7
:1043F0000E94F22E8AE00E94F22E3FC280E50E94C7
:104400009A2C882309F439C260E070E080E50E94AC
:10441000AB2DF82E6FEF7FEF83E50E94AB2D8C0163
:104420000196039708F029C2F7FC27C28F2D0E943E
:10443000FDD8882339F00E941B2F8AE296E00E9463
:10444000F92E1BC20E943CC060E08F2D0E94149385
:104450000F3FBFEF1B0731F00130110571F000E095
:1044600010E00DC08F2D0E94BC9231E020E0892B1E
:1044700009F030E0032F122F02C001E010E08F2D71
:104480000E94BC928017910709F4F7C10E94B431D1
:10449000F6CF8AE50E94E32C811106C083E50E94D5
:1044A000E32C882309F440C00E94672C20E030E010
:1044B00040E050EC0E943CE787FF02C00C945D2B6B
:1044C0000E94672C20E030E040E050E40E9493F02E
:1044D000181614F40C94572B0E94672C20917F021D
:1044E0002695269520FF20C020914F0A3091500A32
:1044F0004091510A5091520A0E94A2E70E949FEFF8
:104500002091200230912102260F371F3093210283
:104510002093200220911E0230911F02620F731F10
:1045200070931F0260931E028091600287FF02C099
:104530000C94632B80916102837011F00C94632BB7
:104540000E941F2F9AC164E071E083E50E94D27837
:104550008C0168EE73E080E50E94D2788938E3E14F
:104560009E0710F088E893E1B8010E94A6D485C1A7
:1045700085E40E94695C811173C080E50E949A2CD9
:10458000882351F00E94672C609374057093750521
:10459000809376059093770589E40E949A2C88236E
:1045A00081F00E94672C2CEA35EC47E25EE30E9422
:1045B000A2E7609378057093790580937A059093CC
:1045C0007B0584E40E949A2C882381F00E94672C4A
:1045D0002CEA35EC47E25EE30E942DEF60937C0508
:1045E00070937D0580937E0590937F050E941F2F19
:1045F000409174055091750560917605709177052D
:1046000086E993E00E9441312CEA35EC47E25EE313
:10461000609178057091790580917A0590917B057C
:104620000E942DEFAB01BC0182E993E00E94413171
:104630002CEA35EC47E25EE360917C0570917D05E4
:1046400080917E0590917F050E94A2E7AB01BC019D
:104650008EE893E00E9441318AE00E94F22E0DC163
:104660000E941B2F8CE793E00E94F92E06C183E580
:104670000E949A2C182F882371F00E94672C0E94A8
:104680009FEF70933B0160933A0121E0672B09F0A3
:1046900020E02093680580E50E949A2C882359F039
:1046A00020913A0130913B01232B11F00E94572CAD
:1046B00080936805E2C01111E0C00E941F2F89E6B7
:1046C00093E00E94F92E80916805882319F089E60D
:1046D0009DE002C080E593E00E94F92E60913A01CE
:1046E00070913B0188E593E00E94963084E593E069
:1046F0000E94F92EC2C00E94926EBFC090918002AB
:1047000090FD02C087E001C086E091FD8D7F9E0193
:104710002F5F3F4F190192FD02C00C946A2B8B7FD3
:1047200011F00C94972B0DE912E04AED52E059A3D9
:1047300048A39BECC92E92E0D92E7901F80165912E
:10474000759185919491A8A1B9A18D909D90AD90FE
:10475000BD90B9A3A8A3A50194010E9432EE2B013C
:104760003C01F701608371838283938320E030E012
:1047700040EA51EC0E9493F087FD0AC020E030E04F
:1047800040EA51E4C301B2010E943CE718162CF440
:10479000F601849118160CF4CDC7D7018D909D9029
:1047A000AD90BD907D0120E030E040EA51ECC501C4
:1047B000B4010E9493F087FDC9C720E030E040EAD1
:1047C00051E4C501B4010E943CE718160CF0D2C7B1
:1047D000BDC70E94197951C00E940BB44EC061E060
:1047E00083E50E94BE2D81270E9433AC46C081E044
:1047F00080931D020E9452AE10921D028823E9F19F
:104800000E941F2F87EF92E00E94F92E36C0809100
:10481000661182FF32C08064809366112EC081E0F1
:104820008093280110921C0260E083E50E94BE2D57
:10483000811123C00E94847620C00E945B5C1DC051
:104840000091FB021091FC020023B9F00E941F2F7F
:1048500084E50E94F22EB8017727072E000C880B02
:10486000990B0E947A3080E20E94F22E8CE793E04E
:104870000E94F92E02C00E945B5C0E947476219611
:10488000FFAD2197F093FE02ABC711E022E02216A4
:10489000310409F010E020E030E0A901C701B601C1
:1048A0000E943CE7881F8827881F1813A4C020E0B7
:1048B00030E040E85FE328A739A74AA75BA728A113
:1048C00039A14AA15BA1C501B4010E9432EE20E0EA
:1048D00030E040E05FE30E94A2E768A379A38AA3E7
:1048E0009BA32CA13DA14EA15FA1C301B2010E94D7
:1048F00032EE20E030E040E05FE30E94A2E76CA3EC
:104900007DA38EA39FA328A139A14AA15BA1CA01BF
:10491000B9010E94A2E74B015C012CA13DA14EA16F
:104920005FA1CA01B9010E94A2E79B01AC01C501C8
:10493000B4010E9433EE0E94E1F04B015C019B0147
:10494000AC01C701B6010E9432EE2B013C01A5016A
:104950009401C701B6010E9433EE9B01AC01C30173
:10496000B2010E94A2E76B017C0120E030E0A901C6
:104970000E9493F087FD07C0C701B6010E94E1F0D5
:104980002B013C0103C0412C512C32016CA17DA1B3
:104990008EA19FA19058A50194010E942DEF28A5FA
:1049A00039A54AA55BA50E94A2E7A30192010E9436
:1049B000A2E728A139A14AA15BA10E9433EE6B01B5
:1049C0007C01A501940168A179A18AA19BA10E9403
:1049D0002DEF28A539A54AA55BA50E94A2E7A30152
:1049E00092010E94A2E72CA13DA14EA15FA10E94CD
:1049F00033EE0C94621780E090E0A0E8BFEB88A74C
:104A000099A7AAA7BBA75BCF0E941B2F81E097E0C5
:104A10000E94F92E32CF20E030E0A901C701B60193
:104A20000E943CE7882381F318A619A61AA61BA6A4
:104A3000A7019601505828A339A34AA35BA388A5D0
:104A400099A5AAA5BBA5B0588CA39DA3AEA3BFA34F
:104A5000CA01B9010E94A2E74B015C012CA13DA152
:104A60004EA15FA1CA01B9010E94A2E79B01AC015E
:104A7000C501B4010E9433EE0E94E1F06CAF7DAF3E
:104A80008EAF9FAF2091DA023091DB024091DC02C1
:104A90005091DD0228AB39AB4AAB5BABA701960165
:104AA00068A979A98AA99BA90E9433EE25966CAFC3
:104AB0007DAF8EAF9FAF25978091DE029091DF0290
:104AC000A091E002B091E1028CA79DA7AEA7BFA77D
:104AD00028A539A54AA55BA5BC01CD010E9433EEEE
:104AE00029966CAF7DAF8EAF9FAF29972091EA02D8
:104AF0003091EB024091EC025091ED022CAB3DABBA
:104B00004EAB5FAB25962CAD3DAD4EAD5FAD259761
:104B10006CA97DA98EA99FA90E9432EE6B017C0130
:104B20008091EE029091EF02A091F002B091F1021B
:104B300088AF99AFAAAFBBAF29962CAD3DAD4EADB6
:104B40005FAD2997BC01CD010E9432EE4B015C01A3
:104B5000A701960168A179A18AA19BA10E94A2E761
:104B60002B013C01A50194016CA17DA18EA19FA107
:104B70000E94A2E79B01AC01C301B2010E9433EE87
:104B80002B013C01A501940168A179A18AA19BA1F7
:104B90000E94A2E74B015C01A70196016CA17DA1D7
:104BA0008EA19FA10E94A2E79B01AC01C501B401A7
:104BB0000E9432EEA30192010E94B2EE6B017C01D1
:104BC00020E030E0A9010E943CE787FF0AC02BEDFE
:104BD0003FE049EC50E4C701B6010E9433EE6B019F
:104BE0007C012BED3FE049EC50E4C701B6010E9487
:104BF0002DEF20E030E040EC51E40E94A2E70E945B
:104C000011EF0E94A6EF8B01672B11F401E010E079
:104C100032E02316310451F42BED3FE049EC50E42F
:104C2000C701B6010E9432EE6B017C0120E030E04A
:104C3000A901C701B6010E943CE7811122C02CA93D
:104C40003DA94EA95FA968A979A98AA99BA90E9433
:104C50003CE7811116C028AD39AD4AAD5BAD6CA5FE
:104C60007DA58EA59FA50E943CE781110AC008E1A1
:104C700010E0EBEDCE2EEFE0DE2EE9ECEE2EE0E4E0
:104C8000FE2E8091E2029091E302A091E402B091A5
:104C9000E5028CA79DA7AEA7BFA79C01AD016091BF
:104CA000F2027091F3028091F4029091F5020E9459
:104CB00032EE4B015C01A70196016CAD7DAD8EAD6E
:104CC0009FAD0E94A2E72B013C0120E030E0A9014A
:104CD000C501B4010E943CE78823C9F0A3019201F9
:104CE000C301B2010E94A2E72B013C01A50194017E
:104CF000C501B4010E94A2E79B01AC01C301B2014E
:104D00000E9433EE0E94E1F02B013C010DC020E037
:104D100030E0A901C301B2010E9493F087FF04C0F3
:104D200077FA709477F870942FE632E143E85AE30B
:104D3000C301B2010E943CE787FDF1C12091E60268
:104D40003091E7024091E8025091E9022CAB3DAB73
:104D50004EAB5FABC301B2010E94D5EF0E94A6EF3C
:104D60001B016017710708F41801B10180E090E0A1
:104D70000E9441E72B013C019B01AC01C701B60138
:104D80000E942DEF68AB79AB8AAB9BABA30192017C
:104D9000C501B4010E942DEF2D966CAF7DAF8EAF93
:104DA0009FAF2D972CA93DA94EA95FA96091F6024E
:104DB0007091F7028091F8029091F9020E9432EE10
:104DC000A30192010E942DEF61966CAF7DAF8EAF73
:104DD0009FAF619728A939A94AA95BA9CA01B9015E
:104DE0000E94A2E720E030E040E05FE30E94A2E7FB
:104DF0009B01AC0160E070E080E89FE30E9432EE2E
:104E000068AF79AF8AAF9BAF8CA59DA5AEA5BFA5B6
:104E100089879A87AB87BC872CA93DA94EA95FA932
:104E20002D873E874F87588B2AE037ED43E25CE3BE
:104E300060912401709125018091260190912701B4
:104E40000E94A2E76B017C01609122017091230115
:104E5000072E000C880B990B0E9443E79B01AC01C5
:104E6000C701B6010E94A2E76C8F7D8F8E8F9F8F46
:104E70000E946D459B01AC0128533F4F4F4F5F4F40
:104E80002CAF3DAF4EAF5FAF48A059A06AA07BA04A
:104E900041E050E05DA74CA759E15CAB8CA59DA516
:104EA0008215930508F00FC10E94638C0E946D4526
:104EB000DC01CB012CAD3DAD4EAD5FAD821B930B44
:104EC000A40BB50BB7FD0EC00E946D459B01AC0154
:104ED00028533F4F4F4F5F4F2CAF3DAF4EAF5FAFAB
:104EE0000E94B4313CA931503CAB3323E9F12CA1F1
:104EF0003DA14EA15FA168AD79AD8AAD9BAD0E9489
:104F0000A2E76B017C019201A30168A979A98AA992
:104F10009BA90E94A2E7A70196010E9433EE7B01A4
:104F20008C019201A30168AD79AD8AAD9BAD0E9461
:104F3000A2E74B015C012CA13DA14EA15FA168A994
:104F400079A98AA99BA90E94A2E79B01AC01C5018E
:104F5000B4010E9432EE2B013C01C701D8018CA3A1
:104F60009DA3AEA3BFA34FC04CA55DA5BA0180E031
:104F700090E00E9441E728A939A94AA95BA90E94AB
:104F8000A2E74B015C010E9428EF6B017C01C50187
:104F9000B4010E94D3F04B015C01A701960168A106
:104FA00079A18AA19BA10E94A2E72B013C0128A51F
:104FB00039A54AA55BA5C501B4010E94A2E7A301DA
:104FC00092010E9433EE2B013C01A501940168A1DE
:104FD00079A18AA19BA10E94A2E74B015C0128A5AF
:104FE00039A54AA55BA5C701B6010E94A2E79B01AE
:104FF000AC01C501B4010E9432EE6CA37DA38EA367
:105000009FA359E15CAB9201A30125966CAD7DADE8
:105010008EAD9FAD25970E9433EE69837A838B8393
:105020009C832CA13DA14EA15FA129966CAD7DADC5
:105030008EAD9FAD29970E9433EE6D837E838F8363
:1050400098872D962CAD3DAD4EAD5FAD2D97698502
:105050007A858B859C850E9433EE69877A878B875A
:105060009C8761962CAD3DAD4EAD5FAD61976D8572
:105070007E858F8598890E9433EE6D877E878F8726
:10508000988BCE0101960E9482C3C12CD12C70E86E
:10509000E72E7FE3F72E8E01045E1F4F9E01235FF4
:1050A0003F4FAE01475F5F4FBE016B5F7F4FCE0149
:1050B00001960E94945B882331F08CA59DA50196F2
:1050C0009DA78CA7EBCE80E1EAEEF2E0DE0111961F
:1050D00001900D928A95E1F7CE0101960E9482C35C
:1050E000C12CD12C60E8E62E6FE3F62E8E01045E13
:1050F0001F4F9E01235F3F4FAE01475F5F4FBE01D1
:105100006B5F7F4FCE0101960E94945B80E1FE01B0
:105110003196AAEDB2E001900D928A95E1F70E94D6
:105120006D456093D6027093D7028093D802909316
:10513000D902A3CB0E943CC080912401909125010B
:10514000A0912601B091270180930103909302035F
:10515000A0930303B0930403809122019091230153
:10516000909300038093FF0284E690E090932301E4
:105170008093220181E080937D020E941FC788E511
:105180000E949A2CB82E89E50E949A2C182F8AE545
:105190000E949A2CB1127BC1B81611F03B2C78C139
:1051A00033243394BB24B39491E098A780E1EAEDD3
:1051B000F2E0AAEEB2E001900D928A95E1F782E565
:1051C0000E94E32C882369F00E94672C6B017C010C
:1051D00020E030E0A9010E943CE7882309F451C097
:1051E00006C0C12CD12C50EAE52E50E4F52EB110AA
:1051F00003C0332009F421C180917F0282FD09C0E0
:105200006091E2027091E3028091E4029091E502E4
:1052100003C060E070E0CB01A70196010E9433EE6D
:105220002B013C016093F2027093F3028093F4022D
:105230009093F5022091E2023091E3024091E40262
:105240005091E5020E9493F01816DCF419821A823C
:105250001B821C822091DE023091DF024091E0022D
:105260005091E1026091DA027091DB028091DC02E0
:105270009091DD02DE0111966D01830172010E94A1
:105280001FC4BB2009F4D4C0332009F4CEC010924F
:10529000DA021092DB021092DC021092DD02109210
:1052A000DE021092DF021092E0021092E1020E94F0
:1052B000DEC4EBECF2E0B491BCA7E9EAF2E0C59001
:1052C000D590E590F490EDEAF2E085909590A59068
:1052D000B490A5019401C701B6010E9493F018167D
:1052E0002CF4A7019601C501B40104C0A5019401E5
:1052F000C701B6010E942DEF2B013C01E3ECF2E067
:10530000259135914591549128A339A34AA35BA3D4
:10531000EFEBF2E085919591A591B4918CA39DA3BB
:10532000AEA3BFA39C01AD0168A179A18AA19BA1F5
:105330000E9493F0181634F42CA09DA198AB0EA1F6
:105340001FA105C028A0A9A1A8AB0AA11BA1A30168
:105350009201C301B2010E94A2E720E030E040E8E0
:105360005FE30E9433EE0E94E1F0222D38A9A801EC
:105370000E94A2E769837A838B839C83ECECF2E042
:1053800014914090E2025090E3026090E402709029
:10539000E50220E030E040EC5FE3C501B4010E948B
:1053A000A2E74B015C01612F110F770B880B990B62
:1053B0000E9443E79B01AC01C501B4010E94A2E732
:1053C0004B015C0120E030E040EC5FE3C701B60137
:1053D0000E94A2E76B017C01BCA56B2FBB0F770B72
:1053E000880B990B0E9443E79B01AC01C701B601F2
:1053F0000E94A2E7FE0131966F0183017201A501AF
:1054000094010E941FC40E9435AB1092DA021092E0
:10541000DB021092DC021092DD021092DE0210928A
:10542000DF021092E0021092E10280E00E9420C5AB
:10543000332019F081E00E9420C5F8A5FF2319F060
:1054400082E00E9420C50E94DEC480917E0280938B
:105450007D028091010390910203A0910303B0911A
:1054600004038093240190932501A0932601B09317
:1054700027018091FF029091000390932301809374
:10548000220183E0809321010E94F1C5F6C9312EEB
:1054900088A78CCE11110C941E1A0C94171A0E9416
:1054A000B4310C94401A88E50E949A2C81115E98C0
:1054B00089E50E949A2C81115E988AE50E949A2CB7
:1054C000882309F4DAC91598D8C960E08CED96E014
:1054D0000E94D3D45E985E9815985E98CEC90E94BB
:1054E000332CAB01BC014093621150936311609364
:1054F00064117093651180E59FE00E94A697BDC975
:1055000061E0802F0E9414936F2D802F0E94E592FE
:105510006F2D70E0802F0E94C14494E0E912ADC964
:10552000F0925705AAC90E943CC088E50E949A2CB7
:10553000882331F05E9A80917F028E7F80937F0274
:1055400089E50E949A2C882331F05E9A80917F022F
:105550008D7F80937F028AE50E949A2C882309F42C
:105560008CC9159A80917F028B7F80937F0285C9B9
:1055700083E50E94E32C882391F00E94672C6093BE
:10558000670A7093680A8093690A90936A0A609325
:105590006F0A7093700A8093710A9093720A80E583
:1055A0000E94E32C882351F00E94672C6093670AC5
:1055B0007093680A8093690A90936A0A82E50E9450
:1055C000E32C882351F00E94672C60936B0A709340
:1055D0006C0A80936D0A90936E0A84E50E94E32C16
:1055E000882309F44AC90E94672C60936F0A70935C
:1055F000700A8093710A9093720A3FC982E40E94F4
:105600009A2C882351F00E94232C6093430A7093B4
:10561000440A8093450A9093460A83E50E949A2C97
:10562000882351F00E94672C6093730A7093740A68
:105630008093750A9093760A84E50E949A2C8823B9
:1056400051F00E94672C6093770A7093780A8093D8
:10565000790A90937A0A8AE40E949A2C882309F4A2
:105660000CC90E94672C6B017C012AE037ED43E2F4
:105670005CE30E9493F087FD13C02AE939E949E908
:105680005EE3C701B6010E943CE718164CF0C092D9
:105690003B05D0923C05E0923D05F0923E05EDC8F9
:1056A0000E941B2F82EC93E00E94F92EE6C860E076
:1056B00070E080E090E40C946E2260E070E080E0A6
:1056C00090EC0C946E2282E50E949A2C81110C942D
:1056D000A022D3C82DEF31E081FF03C04FEF51E08E
:1056E00002C047E152E080FF03C081E092E002C0C7
:1056F00087E192E03F932F935F934F939F938F9314
:1057000082E093E09F938F933F922F920E94D4E682
:105710000E941F2FC1010E94933160E0C1010E94CD
:105720004DD50FB6F894DEBF0FBECDBFA6C827E19A
:1057300032E0D2CFB7FAB094B7F8B094D7018D92D7
:105740009D92AD92BC9213970C94CD230E941B2F77
:1057500082E393E00E94F92E61E084E293E00E94EC
:10576000D3D40E9432A868E270E088EC90E00E94F6
:10577000A6D483C80C5F1F4FBFEFCB1ADB0AE2E051
:10578000093A1E0711F00C949E2386E2E82E82E06F
:10579000F82E10E0F10181919191A191B1911F0139
:1057A000F70181939193A193B1937F01812F0E947F
:1057B00062C31F5F133071F70E94F1C560E084E19E
:1057C00093E00E94D3D463E972E084E690E00E9403
:1057D000A6D46AEB72E084E690E00E94A6D44DC89D
:1057E000C05BDF4F0FB6F894DEBF0FBECDBFDF91B9
:1057F000CF911F910F91FF90EF90DF90CF90BF90CE
:10580000AF909F908F907F906F905F904F903F9060
:105810002F900895282F8091FA02233021F485FDDE
:105820000EC084FD0EC090E0A0E0B0E004C0B695CC
:10583000A795979587952A95D2F78170089581E06D
:10584000089580E008958091890390918A030097DC
:1058500031F04AE050E060E070E00C9464E560E014
:1058600070E0CB0108958091890390918A0300979D
:1058700031F04AE050E060E070E00C9436E460E023
:1058800070E0CB0108950E94332C97FD0CC00E945C
:10589000332C6F3F71058105910509F034F40E94A6
:1058A000332C862F089580E008958FEF089580911E
:1058B000890390918A03892B39F00E94432C91E04F
:1058C000811103C090E001C091E0892F08950F93EA
:1058D0001F93CF938091890390918A030097F1F0F1
:1058E000FC018F01C1912C2F2F7D89F0C53411F05F
:1058F000C536B9F7F801108260E070E00E94DAE284
:10590000F801C083562F472F382F292F0BC060E096
:1059100070E0CF911F910F910C94DAE250E040E0DB
:1059200030E020E0652F742F832F922FCF911F91AD
:105930000F91089581548A3108F042C0E82FF0E0B9
:1059400040915E0250915F0260916002709161022D
:1059500004C076956795579547958A95D2F7842F19
:10596000817040FF2FC0EF5DF44F9081992309F1C2
:10597000E0913905F0913A05E90FF11D908120ED94
:10598000290F2A3098F09E3211F491810CC09D327B
:1059900011F09B3271F4918120ED290F2A3030F003
:1059A0009E3239F4928190539A3018F42E2F9F2F03
:1059B00002C020E090E02093890390938A03089529
:1059C00080E0089508950E949A2C882341F081E098
:1059D0002091890330918A03232B09F480E00895F4
:1059E0004F925F926F927F92AF92BF92CF92DF926F
:1059F000EF92FF920F931F93CF9381E6A82E81E041
:105A0000B82E9AEEE92E92E0F92E0AED12E021E787
:105A1000C22E22E0D22EC0E0F50181915F010E94EA
:105A2000E32C882311F10E94672C2B013C018C2F61
:105A30000E940A2C882351F0F80120813181428193
:105A40005381C301B2010E9433EE09C0F6012081E7
:105A5000318142815381C301B2010E9432EEF701CC
:105A600060837183828393830AC0F801808191816E
:105A7000A281B381F70180839183A283B383CF5F37
:105A8000F4E0EF0EF11C0C5F1F4F84E0C80ED11C38
:105A9000C33011F685E40E94E32C882301F10E94B3
:105AA000672C6B017C0183E00E940A2C882371F033
:105AB0002091E6023091E7024091E8025091E9021C
:105AC000C701B6010E9433EE6B017C01C092F60261
:105AD000D092F702E092F802F092F90210C08091A1
